:020000040800F2
:10000000001A0020AD0100085D2F0008FD60000807
:100010006B3100086B3100086B31000800000000F4
:100020000000000000000000000000007D23000828
:100030005D2F0008000000007D2C0008D12300087F
:100040005D2F00085D2F00085D2F00085D2F000860
:100050005D2F00085D2F00085D2F00085D2F000850
:100060005D2F00085D2F00085D2F00085D2F000840
:100070005D2F00085D2F00085D2F00085D2F000830
:100080005D2F00085D2F00085D2F00085D2F000820
:100090005D2F00085D2F00085D2F00085D2F000810
:1000A0005D2F00085D2F00085D2F00085D2F000800
:1000B0005D2F00085D2F00085D2F00085D2F0008F0
:1000C0005D2F00085D2F00085D2F00085D2F0008E0
:1000D0005D2F00085D2F00085D2F00085D2F0008D0
:1000E0005D2F00085D2F00085D2F00085D2F0008C0
:1000F0005D2F00085D2F00085D2F00085D2F0008B0
:100100005D2F00085D2F00085D2F00085D2F00089F
:100110005D2F00085D2F00085D2F00085D2F00088F
:100120005D2F00085D2F00085D2F00085D2F00087F
:100130005D2F00085D2F00085D2F00085D2F00086F
:100140005D2F00085D2F00085D2F00085D2F00085F
:100150005D2F00085D2F00085D2F00085D2F00084F
:100160005D2F00085D2F00085D2F00085D2F00083F
:100170005D2F00085D2F00085D2F00085D2F00082F
:100180005D2F00085D2F00085D2F00085D2F00081F
:100190005D2F00085D2F00085D2F00085D2F00080F
:1001A0005D2F00085D2F00085D2F000880B56F46A9
:1001B0000B480C494FF6FF72CFF6FF72814201D017
:1001C00004C0FBE701F04AFC01F054FC034801685D
:1001D00041F47001016001F05DFC00BF88ED00E0BA
:1001E00040140020001A0020F0B503AF2DE9000FE5
:1001F00093B0CE4A1368DB070AD1136843F0690352
:1002000023F09403136013689B0701D400BFFAE73F
:10021000936813F00C0F07D000239360936813F0DA
:100220000C0F01D000BFF9E791F82B304BB991F8D2
:1002300028B04FF00009BBF1020F12D091F829301D
:100240007BB9D2F8943043F00103C2F89430D2F86D
:1002500094309B0701D400BFF9E791F828B04FF024
:100260000109BBF1020F23D0936D43F080539365D6
:10027000AF4B1C6844F480741C601923BBF1000F61
:1002800008BF0523D2F890402343C2F89030D2F83B
:1002900090309B07FBD591F829304BB9D2F89030BC
:1002A00043F02003C2F89030936943F400739361E4
:1002B00091F82530022B0FD091F824409D4D002C51
:1002C00008BF05F5802515601468A403FCD51BB98B
:1002D000146844F40024146091F830A0BAF10C0FB3
:1002E00032D191F82AC0BCF1000F0BD0D2F898405F
:1002F00044F00104C2F89840D2F89840A40701D411
:1003000000BFF9E7BAF10C0F08D0BAF10B0F02BF2A
:10031000D2F8884044F04064C2F8884091F82C40FC
:10032000854EDFE804F002382233BAF10C0F3FD1DA
:10033000012100200E91DFF8A4140D91119010906E
:100340000420DFF89C141DE00D24BBF1020F08BF50
:100350000924156844EA0A1425F0F9052C431460B1
:100360001468A407BDD400BFFAE7022B1CD10121F9
:1003700000200E91DFF858140D9111901090042078
:10038000DFF850140F900DA800F033FC022B0BD1B6
:10039000BAF10C0F0CD140F26313136013685B05C4
:1003A000FCD50123B04608E0D1F82080022304E008
:1003B000DFF8243453F82A8000230A9391F82D4063
:1003C0005E4D042C0C9423460ED18B699BB1B8F181
:1003D000000F00F0EB81CB695B00B3FBF8F31B026D
:1003E0000B9300230C9303E0CB8D0B938B6913B11C
:1003F00001F11C0309E0BAF10C0F02D1504B01339B
:1004000007E0DFF8D43303EB8A031B68AB4280F0CC
:100410009C810C6894B14C68002C00F0BE81B3FB49
:10042000F4F4012C0BD0022C0BD0002C00F0C18175
:10043000E51E032D28D20925042404E0012400250B
:1004400001E00825022409958D68B3FBF4FEA5B1EF
:10045000CD68002D00F0A481BEFBF5F5012D0CD078
:10046000022D0DD0002D00F0A9813446EE1E032E82
:1004700011D205250795042517E00024012501E088
:1004800004240225079411E0A51F062D80F0328177
:100490000A250824D7E7063D0726062D4FF010054C
:1004A00038BF0626079638BF08252646BEFBF5F45A
:1004B00008959C4200F23F810D69CDF818C0CDF837
:1004C000048095B14969002900F06D81BEFBF1F10E
:1004D00001290AD002290BD0002900F07481CD1E19
:1004E000032D08D2052504210EE0002501210BE093
:1004F0000425022108E00639072506294FF01001DE
:1005000038BF062538BF0821BEFBF1F8984500F238
:10051000178106F1010C0595E6450493029111D26D
:10052000534649464FF4C06624E000BF0010024025
:1005300000700040630001000024F40001B4C40412
:10054000FF083D00B34DAE4504D25346494640F244
:1005500001660FE0B04D53464946AE4502D240F227
:10056000026607E0AD4D40F204660235AE4538BF85
:1005700040F20366AA4D4FF0020A03942E600C9CD1
:10058000DFE804F01B03161906004FF0040A14E01C
:10059000059C9C46E502079C0C2B45EA0425099C1A
:1005A00008BF4FF0060C002645EA04150A9C67E0D8
:1005B0004FF0060A01E04FF0080A0B9CD946C4F33D
:1005C000072BBBF1070F40F2C580BBF1570F80F03E
:1005D000C6800B9C012555FA84F5019CB4FBF5F50A
:1005E000804CA54240F2C080654580F0C28005FB8A
:1005F0000BF58A4EB54240F2C180944EB54280F070
:10060000C280794CB5FBFAF5A54280F0C1800B9C05
:100610009C461668E5B226F0807616600A9C16683D
:10062000B60101D500BFFAE7D6688D4B33400C9E6A
:10063000760665F306160BF07F05CB4646EA0525E0
:1006400025442B440133D360136843F08073136057
:10065000D36843F08073D36013689B0101D400BF5B
:10066000FAE7936843F6F3750326AB43059D43EA27
:10067000C523079D43EA0523099D43EA0513DD1CB5
:100680009560089D9368C3F38103B34201D000BF16
:10069000F8E7BCF10C0F02BF136823F005031360E9
:1006A00041770499C1600C99069A029E0429039B24
:1006B00071460277C0F800E080F81AC046760576E9
:1006C000C0F80880436008BF0324BBF10202C4766F
:1006D00018BF0122012E827718BF4FEA48014161FD
:1006E000012D18BF4FEA430EC0F810E013B0BDE86B
:1006F000000FF0BDA4F10C051C2D02D20B25102417
:10070000A1E6A4F12805382D02D20C2540249AE652
:10071000A4F16005602D02D20D25802493E6C03C33
:100720000F25C02C4FF4007438BF0E25099538BF33
:100730004FF4807488E64D4821214D4A00F066FF51
:1007400048482121484A00F061FF29482621294ACA
:1007500000F05CFF33482021334A00F057FF334854
:100760002121334A00F052FF32482A21324A00F058
:100770004DFF32482B21324A00F048FF31482321F7
:10078000314A00F043FF32482421324A00F03EFF54
:1007900031482C21314A00F039FF194801F002F8A4
:1007A000194800F0FFFF1A4800F0FCFF0F4800F066
:1007B000F9FF11482821114A00F028FF0E4828218E
:1007C000104A00F023FF0C482821104A00F01EFFB9
:1007D000946100089C61000884640008406100087E
:1007E00058610008FF083D0001B4C404AC61000872
:1007F000BC610008E46100080C640008346400086F
:10080000FC63000854640008446400087464000831
:10081000646400080148E801016CDC02FF8FD0032A
:10082000002002405C6200089C620008AC62000884
:10083000D0620008E06200080C6300081C63000836
:1008400048630008586300087C630008816FE81360
:100850008C630008B0630008C0630008EC63000804
:100860008C80FFF9286200084C620008F4610008DF
:100870001862000880B56F4600F000F880B56F463A
:1008800096B006208DF854004FF08060CDF84E00F1
:1008900002208DF84C008DF8490007481090012087
:1008A0000F9000200D900B90099001A809A9FFF767
:1008B0009BFC03F015F900BF00B4C40480B56F467B
:1008C0008AB00A460146684600F004F8BDF80A00FE
:1008D0000AB080BDB0B502AF8EB00446029201F1FD
:1008E0000800104A019003A801A900F0FFF8DDE913
:1008F00003010D4A00F01CF803AD02460B461146F9
:1009000028461A4600F02AF99DF80C0030B9691CF7
:100910002046282205F0ECFB0EB0B0BD034805F0E0
:10092000DFF900BFB4640008F4640008046500083F
:1009300000B1704780B56F46104605F0D1F980B51B
:100940006F468AB00A4601466846FFF7C3FF039820
:100950000AB080BDB0B502AF88B0044601F108000E
:10096000019269460F4A009002A800F0BFF8DDE945
:1009700002010D4AFFF7DCFF02AD02460B461146AD
:1009800028461A4600F00FF99DF8080030B9691C96
:100990002046142205F0ACFB08B0B0BD034805F0BA
:1009A0009FF900BFB46400081465000824650008BE
:1009B000FEB506AF0A46014601A8FFF7CBFFBDF81A
:1009C000060000F0010006B080BD80B56F468AB019
:1009D0000A4601466846FFF77DFFBDF818000AB0D9
:1009E00080BDD4D4F0B503AF4DF804BD8EB015462C
:1009F00008301D4A01916946009002A800F076F87F
:100A0000DDE90201194AFFF793FF04460E4602A8EA
:100A10002146324600F0A2F89DF8080008BBBDF858
:100A20002100ADB2A8421CD902A82146324600F0EE
:100A300095F89DF80800A0B9BDF81F000021CDE988
:100A40000211082300EBC501F56802AA2046A84759
:100A5000C0B2082801BFDDE902010EB05DF804BB99
:100A6000F0BD034805F03CF9B464000834650008A3
:100A700044650008D0B502AF048802460B8843EAFB
:100A80000400B0FA80F0400934B12BB14888518895
:100A9000081AB0FA80F04009D0BD03880246002051
:100AA000062B01BF5388042B88B2918802BF081A15
:100AB000B0FA80F040097047B0B502AF44688C428C
:100AC00009D900684BB1A14209D2455C013B02F84B
:100AD000015B0131F6E70020B0BD0820B0BD024A3D
:100AE0000846214600F099F88C650008F0B503AF80
:100AF0002DE9000B8CB0D568914604464FF00008F4
:100B00000E4608466A4600210423CDF80080A84717
:100B1000C1B2082910D11048009981420BD1A7F128
:100B2000410031464A4600F019F817F8410C50B11F
:100B300017F8400C00E00120C4F8008020710CB0D0
:100B4000BDE8000BF0BD37F83C0C012802D1C4E928
:100B50000069F4E70220EFE77F434246F0B503AFB8
:100B60004DF8048D8AB0E8460E46044640462821DA
:100B7000154605F0BBFAED683046002142462823B1
:100B8000A8470146C2B2601C082A05D1694628223E
:100B900005F0AEFA002001E00170012020700AB0DB
:100BA0005DF8048BF0BDF0B503AF4DF8048D86B051
:100BB0000DF104080E46044614214046154605F082
:100BC00095FAED683046282142461423A84701468D
:100BD000C2B2601C082A05D101A9142205F088FAC6
:100BE000002001E001700120207006B05DF8048B48
:100BF000F0BD80B56F4688B090E87441EC4663461E
:100C0000012083E87441ADF81C006046069105F0B0
:100C100037F880B56F4600F09BF980B56F468CB011
:100C2000CDE9000100200690022046F20C610390FD
:100C3000059008A8C0F60001049040F659400291C2
:100C4000C0F600006946CDE9090111460B9001A8E4
:100C5000089002A8FFF7CDFFF0B503AF2DE9000F14
:100C60008DB0046842F210700D464FF69C7E8442AF
:100C700046F25E60C0F600003CD341F259784EF275
:100C8000FF02A7F1430B0021CDF2B7184DF6F00992
:100C900041F27B4AC0F2F5520295A4FB08350BEBFA
:100CA000010C043994424FEA553303FB09451C46B5
:100CB000AEB24FEA960606FB0AF64FEA564606FB28
:100CC0000E5530F81660ACF82360ADB230F8155010
:100CD000ACF82550E1D8029D27311C46632C0CD876
:100CE00022460A2A1AD330F812000239A7F1430229
:100CF000505219E02721632CF2D9A2B241F27B4372
:100D0000920802395A43A7F14306520C02FB0E43E4
:100D10009BB230F8133073520A2AE4D2013942F000
:100D20003000A7F143025054C1F127000090A7F111
:100D30004300002243182846012100F005F80DB0B9
:100D4000BDE8000FF0BDD4D4F0B503AF2DE9000F1E
:100D500085B00C46C169D7F80880934611F00102AE
:100D60004FF02B0A02EB080508BF4FF4881A99468A
:100D70004A0701D4002418E0BBF1000F12D01BF089
:100D8000030311D094F90060002216F1410FC8BF8F
:100D90000122012B08D094F9013013F1410FC8BF93
:100DA000013201E00022FFE715440268B2B1CDF83C
:100DB0001090D0F80490A94520D90907CDF80C80EF
:100DC00032D490F82010A9EB05090294DFE801F075
:100DD0006602600249464FF000095FE0D0E905561F
:100DE000524631462346CDF800B0284600F08DF833
:100DF000002872D1F368284649460EE0D0E905562E
:100E0000524631462346CDF800B0284600F07DF822
:100E1000002862D1F36828460499424605B0BDE82F
:100E2000000FBDE8F040184701692346D0E9058668
:100E30005246019130210161012190F8204080F853
:100E40002010314602904046CDF800B000F05DF829
:100E500001460120002941D1DDF810A0A9EB0500D1
:100E6000A346441C013C06D03269404630219047DD
:100E70000028F7D031E0F3684046039A514698477E
:100E800058BB0298019980F820B00161002025E04C
:100E900009F101024FEA59014FEA5209D0E904650C
:100EA0004C1CD0F81880013C07D0D8F810202846F8
:100EB000314690470028F6D00FE0CDF800B0284624
:100EC000029B4146524600F020F830B9D8F80C3069
:100ED0002846DDE90321984720B1012005B0BDE88F
:100EE000000FF0BD0024A14509D0D8F810202846F5
:100EF0003146904701340028F5D0611E00E0494694
:100F00000020494538BF0120E8E7F0B503AF4DF8B0
:100F1000048DD7F808801C460E46B2F5881F0AD00B
:100F200033691146054698470146284619B1012004
:100F30005DF8048BF0BD3CB1F368214642465DF894
:100F4000048BBDE8F040184700205DF8048BF0BD2D
:100F500080B56F468CB08021CDE90001002046F2BB
:100F60005C7106900220C0F600010390059008A86D
:100F7000029101A9049040F65940C0F60000CDE965
:100F8000090146F24C610B906846089002A8C0F631
:100F90000001FFF72EFE80B56F4600F000F880B527
:100FA0006F468CB0CDE90001002046F29C7106909E
:100FB0000220C0F600010390059008A8029101A943
:100FC000049040F65940C0F60000CDE909011146F1
:100FD0000B906846089002A8FFF70BFEF0B503AF30
:100FE0002DE9000F87B08846D0F800C081685CEA20
:100FF000010302D1D0E90501D0E2B1B3C66808EB24
:10100000020E82464FF00009C6B10025414608E0B5
:10101000F0292CBF211DE11C0B1B01359944AE4268
:101020000DD0714526D00C4611F9013BB3F1FF3FBD
:10103000F2DCD9B2E029EBD2A11CEDE741467145C3
:10104000504612D091F90010B1F1FF3FDCBFC9B298
:10105000E029B9F1000F14D0914511D218F9091007
:1010600011F1410F0DDC00210CE09146BCF1000FA5
:1010700010D190E291465046BCF1000F0AD18AE2AD
:10108000F1D1414600290CBF91468846BCF1000FC2
:1010900000F081824668B9F1100F0BD2B9F1000F50
:1010A00020D009F00301B9F1040F1ED24FF0000E59
:1010B000002543E008F10301CDE9006021F00306BB
:1010C000CDF80890B6EB080EA9EB0E0000F0030B6C
:1010D00001D100218DE0A8EB060111F1040F4ED9DA
:1010E00000216EE04FF0000E45E209F00C05B2461B
:1010F000A8F1040684464FF0000E2B4616F9040FA3
:1011000096F9032010F1410FC8BF0EF1010E96F9B8
:10111000010096F9024010F1410FC8BF0EF1010E17
:1011200014F1410FC8BF0EF1010E12F1410FC8BFFB
:101130000EF1010E043BE1D160465646002900F055
:101140001A8218F9052012F1410FC8BF0EF1010EE5
:10115000012900F0108208EB050393F9012012F138
:10116000410FC8BF0EF1010E022900F0048293F96D
:10117000021011F1410FC8BF0EF1010EFBE108F1A1
:10118000010A00216FF003020AEB0203043293F913
:10119000034093F9065093F905C014F1410F93F9F8
:1011A0000430C8BF013113F1410FC8BF01311CF138
:1011B000410FC8BF013115F1410FC8BF0131131DE7
:1011C000E2D198F9002012F1410FC8BF0131BEF100
:1011D000010F0ED098F9012012F1410FC8BF013163
:1011E000BEF1020F05D098F9022012F1410FC8BFDD
:1011F00001314FEA90090024BBF1000FCDF80C80BB
:101200001AD020F00302324492F9005015F1410F38
:10121000C8BF0124BBF1010F0ED092F9015015F1A6
:10122000410FC8BF0134BBF1020F05D092F9022073
:1012300012F1410FC8BF013404EB010E4FF0010B56
:1012400012E04FF0000C3FFA8CF03FFA9CF2104491
:10125000A9EB040903EB840614F0030100EB004042
:101260000EEB104E40F05681B9F1000F00F04F81A7
:10127000B9F1C00F4C4628BFC0243346B9F1040F62
:10128000DFD36FF00F0000EB840130290BEB11105E
:1012900007D24FF0000C1E4610F0030840F0B88053
:1012A000D1E720F0030B4FF0000C1E46CDE90404FB
:1012B000069396E81205BBF1040B32696FEA010050
:1012C000B5694FEAD01040EA91106FEA04014FEA85
:1012D000D11120F0FE3041EA9411604421F0FE3437
:1012E000716920446FEA08044FEAD413B46B43EAEF
:1012F0009813D6F83CC023F0FE3318446FEA0A0373
:101300004FEAD31343EA9A1323F0FE3318446FEAEB
:1013100002034FEAD31343EA921222F0FE32F3693A
:1013200010446FEA01024FEAD21242EA911121F011
:10133000FE31326A08446FEA05014FEAD11141EAF1
:101340009511756A21F0FE3108446FEA03014FEAF6
:10135000D11141EA9311B36A21F0FE3108446FEADA
:1013600002014FEAD11141EA9211F26A21F0FE31F5
:1013700008446FEA05014FEAD11141EA9511356B36
:1013800021F0FE3108446FEA03014FEAD11141EA2E
:101390009311736B21F0FE3106F1400608446FEAA9
:1013A00002014FEAD11141EA921121F0FE310844C5
:1013B0006FEA05014FEAD11141EA951121F0FE31A2
:1013C00008446FEA03014FEAD11141EA931121F079
:1013D000FE3108446FEA04014FEAD11141EA941149
:1013E00021F0FE3108446FEA0C014FEAD11141EAC5
:1013F0009C1121F0FE3101EB000C7FF45AAF069BEB
:101400004FF0010BDDE9040410F003083FF41BAFBB
:10141000D6E90002A246B168B8F1010FF4686FEA9C
:1014200000054FEAD51545EA90106FEA020520F055
:10143000FE304FEAD51545EA9212604422F0FE32A2
:1014400010446FEA01024FEAD21242EA911222F0EE
:10145000FE3210446FEA04024FEAD21242EA9412BA
:10146000544622F0FE3202EB000C3FF4ECAED6E91B
:101470000402B8F1020FD6E906146FEA00054FEA3C
:10148000D51545EA90106FEA020520F0FE304FEACC
:10149000D51545EA9212604422F0FE3210446FEAFC
:1014A00001024FEAD21242EA911222F0FE321044B7
:1014B0006FEA04024FEAD21242EA9412544622F032
:1014C000FE3202EB000C3FF4BEAE06F1200527CD44
:1014D000CE43F60946EA9111C44321F0FE31E409F6
:1014E00044EA901020F0FE30544660440844D14352
:1014F000C90941EA921121F0FE310844E943C909C2
:1015000041EA951121F0FE3101EB000C9BE6DDE98B
:1015100002982EE004F0FC06DDE90298012953F858
:1015200026006FEA00024FEAD21242EA901020F041
:10153000FE3515D003EB8606022970686FEA0002BB
:101540004FEAD21242EA901020F0FE30054407D054
:10155000B068C143C90941EA901020F0FE3005444B
:101560003FFA85F03FFA95F1084400EB00400EEB9E
:10157000104EDDE9006076450DD990F82020CB466D
:10158000A6EB0E090021DFE802F017021117494609
:101590004FF0000910E0D0E905014A46CB6841460A
:1015A00007B0BDE8000FBDE8F040184709F101029F
:1015B0004FEA59014FEA5209D0E904A44E1C85694B
:1015C000013E06D02A692046514690470028F7D0B0
:1015D00005E0EB68204641465A46984708B101208D
:1015E00010E00026B14508D02A69204651469047B0
:1015F00001360028F6D0711E00E04946002049451A
:1016000038BF012007B0BDE8000FF0BD80B56F46C0
:1016100088B094460122019206AA0023CDE9060172
:101620000092042268466146049303930292FFF7F6
:10163000E0FA0B46D0E900121846FFF7CFBCD0E91C
:101640000002D2681047F0B503AF2DE9000F8DB04E
:10165000032316698DF83030202308930023002ED1
:10166000CDE90A130990069304935DD050690028D0
:1016700000F08080D2F800A04101D2F808B0013813
:1016800020F078404FF000084FF00009013002923E
:10169000039101900AEB09014A6832B1DDE90903BF
:1016A0000968DB689847002875D106EB08000369D4
:1016B00006EB8900D0E90221057F846908938DF843
:1016C00030500B9442B1012A03D10BEBC1014A689F
:1016D0000AB1002201E00968012256F80830CDE97C
:1016E0000421022B06D04168012B06D10BEBC1016E
:1016F0004A680AB1002201E00968012243690791A2
:1017000006920BEBC3015BF833004B6804A99847C2
:10171000002840D1039808F1200809F10809404544
:10172000B8D1DDE901B227E0D06818B3C6000138AE
:1017300020F060409468D2F8009000F1010B0DF1A8
:1017400010089246002509EBC5014A682AB1DDE977
:1017500009030968DB689847E8B904EBC50154F848
:1017600035004A6841469047A8B90135083EEAD19C
:10177000524601E04FF0000B506883450DD21268CD
:101780005E46DDE90901CB6852F83B1002EBCB0263
:101790005268984708B1012000E000200DB0BDE874
:1017A000000FF0BD80B56F4686B0014600200122D3
:1017B0000490019246F6200203900420C0F6000235
:1017C000029068460092FFF714FA80B56F468EB01B
:1017D0008DE80F00002046F220610890022005905D
:1017E000C0F6000107900AA8069041F23F60C0F6DB
:1017F0000000D7F808C00D9002A80C9041F23360A9
:10180000C0F6000004910B9068460A9004A8614657
:10181000FFF7EFF980B56F468CB0008842F20F7287
:101820008C46904223D9020940F247335A434DF681
:10183000F003CFF6FF7341F27B41D20C12FB0300A1
:1018400083B29B0859436FF06303490C11FB0300FB
:1018500046F25E63C0F6000333F8111027F8041C4B
:1018600080B233F81000232327F8020C22E046F25E
:101870005E626328C0F6000218D9810841F27B43FA
:1018800059436FF06303490C11FB0300252380B219
:1018900032F8100027F8020C08460A2809D3023B48
:1018A00032F81000A7F12701C85209E027230A28BF
:1018B000F5D20246013BA7F1270142F03000C8549F
:1018C000C3F127000090A7F12700012103446046DF
:1018D0000022FFF739FA0CB080BD80B56F468AB0A0
:1018E000CDE90001002006900120039046F2B0519E
:1018F000059008A8049041F23360C0F60000C0F6DD
:10190000000109906846089002A802911146FFF76D
:1019100070F980B56F4688B0014600200490012020
:10192000019046F2B052039006A8029041F2336053
:10193000C0F60000C0F60002079046F2F050C0F674
:101940000000009206906846FFF753F9F0B503AF28
:101950004DF8048DA2B000680DF1080C00244FF082
:10196000570E00F00F03224603F157050A2B64447B
:1019700002F1800838BF03F13005102884F87F5049
:101980002AD3C5B2A02D0EEB15164FEA151338BF9A
:1019900003F13006050A84F87E6020D005F00F03BD
:1019A00003F157050A2B38BF03F1300584F87D5049
:1019B000050B19D005F00F0303F157050A2B38BFAB
:1019C00003F1300584F87C50141F000CC9D102F1DA
:1019D0007C00A8F103080BE0A8F1010008E0A8F1E1
:1019E0000200A8F1010803E0A8F10300A8F1020831
:1019F000812811D2C8F18102009246F25C620CEBA0
:101A00000003C0F60002084611460222FFF79CF9C7
:101A100022B05DF8048BF0BDFFF7FBF880B56F4690
:101A20008CB0CDE90001002006900320039046F21F
:101A3000EC70C0F60000694602900220059008A8EC
:101A4000049040F65940C0F60000CDE90901114666
:101A50000B9001A8089002A8FFF7CBF803480022DA
:101A60000349884228BF704704C0FAE708000020F5
:101A70004014002004480549054A904228BF704799
:101A800008C908C0F9E700BF00000020647400081E
:101A90000400002080B56F46FEF7ECFEFEE77047BD
:101AA000F0B503AF2DE9000F89B001AD92460C46A9
:101AB000804628461C21FF2299464FF0FF0B04F078
:101AC00080F9154E284600210122B04728460821FA
:101AD0002246B047284610215246B0473889ADF813
:101AE000209028B1012805D1FF204FF0FE0B06E021
:101AF000FF2004E0D7F80CB01FFA8BF0000A8DF835
:101B0000230040468DF822B001A9202204F0F0FA0B
:101B100009B0BDE8000FF0BD1D1B0008D0B502AF35
:101B20004318013A0024082C05D008191F2803D8AF
:101B30001A550134F7E7D0BD014A2021FFF76DF8AF
:101B4000286800088BB20022B2EB532F07D1DA02CB
:101B5000C0F6000102F10062C0E901210122026029
:101B60007047F0B503AF4DF8048D00F1040C044646
:101B70004FF000089CE80610DCE9005682EA0600F7
:101B800081EA050318434FF000001DD051EA02001E
:101B900003D005EA0600013015D12568686940F0D8
:101BA000010068612846CCE9001200F012F869696A
:101BB00021F001016961C1B2022901D1002003E0D5
:101BC00000F0010020740120C4F80C805DF8048B43
:101BD000F0BD0169C903FCD40169016111F0300F46
:101BE000C1F3001008BF02207047D4D40846024950
:101BF0000222FFF7F3B900BF44690008F0B503AF54
:101C00002DE9000B8CB00DF108090E460446202189
:101C100048461D46904604F06FFA05F100613046D3
:101C20004A462023C04770BBBDF826004FF6FE7120
:101C30000222608088424FF6FF7108BF0122401ADD
:101C400018BF10462080DDE906100840B0F1FF30D3
:101C500018BF0120207202AB0FCB1A40B2F1FF3245
:101C600018BF01220840B0F1FF31E27118BF012115
:101C70000130BDF82400A17108BF0920A0800CB07C
:101C8000BDE8000BF0BD0448A7F1190200902B211C
:101C90000248034BFFF799FD14690008A869000882
:101CA00098690008F0B503AF4DF804BD94680023AF
:101CB00014F1030F9FBF5668A51CB54213689EBF61
:101CC00019539560072303605DF804BBF0BDB0B500
:101CD00002AF0C46D1E90151A94209D225686A54E4
:101CE0000131A16019462246BDE8B040FFF7DABFD6
:101CF00000210160B0BDB0B502AF0C4672B1D4E9AD
:101D0000012191420FD22268012555540131A16071
:101D100019462246BDE8B04000F008B82146BDE8AB
:101D2000B04000F018B800210160B0BDF0B503AFBD
:101D30004DF804BD9468002314F1050F9FBF566849
:101D4000251DB54213689EBF195195600723036096
:101D50005DF804BBF0BDD0B502AFD1E9014300226C
:101D6000A34204D20C68E2545A1C8A600722026023
:101D7000D0BDD4D4F0B503AF4DF804BD14468A1ECF
:101D800092B2042A28BF0422DFE802F00334282B91
:101D90000C00D3E901420021A24237D21C68A154B1
:101DA000511C2FE0D3E90162B2422ED2D3F800C019
:101DB00004250CF80250551C09049D6029D0B54239
:101DC00023D201210CF80510911C1A469960214676
:101DD0005DF804BBBDE8F040FFF764BF194602227E
:101DE00001E01946032223465DF804BBBDE8F0403C
:101DF000FFF76DBFD3E90121914206D21A68012491
:101E0000545401319960072100E00021016003F082
:101E100081BF19465DF804BBBDE8F040FFF79BBFEA
:101E2000F0B503AF4DF8048DA2B0CA69D30608D44B
:101E300092060DD422B05DF8048BBDE8F040FEF7A9
:101E40000BBF22B05DF8048BBDE8F040FFF77EBD0C
:101E500000680DF1080C00264FF0370E00F00F025D
:101E6000354602F137030A2A664405F1800838BF77
:101E700002F13003102886F87F3029D3C2B213094B
:101E80000EEB1214A02A38BF03F13004020A86F8C0
:101E90007E4020D002F00F0202F137030A2A38BF39
:101EA00002F13003020B86F87D3019D002F00F02E8
:101EB00002F137030A2A38BF02F1300386F87C307A
:101EC0002E1F000CCAD105F17C00A8F103080BE01D
:101ED000A8F1010008E0A8F10200A8F1010803E060
:101EE000A8F10300A8F1020881280ED2C8F18102EE
:101EF0000092074A0CEB0003084611460222FEF747
:101F000023FF22B05DF8048BF0BDFEF782FE00BF18
:101F10005C660008D1E901329A4209D2531C8B60F9
:101F20000968895C01298EBF01210171072100E048
:101F30000021016070478B68002213F1050F0DD856
:101F4000B0B502AF4D681C1DAC429FBF8C600968E4
:101F5000C958416098BF0722BDE8B0400260704791
:101F6000C16809B1FFF7FDBD00207047BFB506AFDE
:101F7000044601A80D46FFF7E5FD0198E0B10220F7
:101F800040F6FA7265F3CA0025686969914308440E
:101F90006861686940F4803068612846FFF719FE7F
:101FA0006969074A11406961C1B2022901D1002063
:101FB00003E000F001002074012004B0B0BD00BFB8
:101FC000FDFFFEFFF0B503AF2DE9E00F00F1040BBC
:101FD000044600259A46CDE90112AB422DD0029865
:101FE000465D019800EB0509E06829F0070838B163
:101FF000404505D02046FFF7B4FD00BBE0685346DE
:1020000018B9D8E90001CBE9000109F007001BF875
:102010000010FF2918BF002E0CD107280BF8006014
:10202000C4F80C8004D12046FFF79BFD534638B915
:102030000135D2E7B142F0D002E01D4600E0534640
:1020400000209D4238BF0120BDE80E0FF0BDD4D462
:10205000F0B503AF2DE9FE0F6821814604F04CF87E
:10206000D9F80C01016840680844A0F1080B5FEA48
:102070004B7072D1BBF1670F79D9D9F8FC000028F9
:1020800000F08280D9E92780ABF16805AB21424698
:1020900018B102F8011B0138FAE7D9F8046116EB10
:1020A000080074D2D9F8004101A849464246334697
:1020B00000F084F89DF804000B286BD1DDE90201E3
:1020C0000022914205D0964242D0A35C8354013253
:1020D000F7E7D9E9431201A8FEF73CFCD9F8FC1058
:1020E00009F1A400DDF80CA0D9F80C6101EB410165
:1020F000890051B350F8082CAA4209D850F8043C82
:102100001A44934504D8026802F01A02022A02D047
:102110000C390C30EDE72846682103F0E7FF0AEBA5
:1021200006024FF080700832E86142F001024FF081
:10213000FF316FF01200C5E90512C9F81480C9E932
:10214000085007B0BDE8000FF0BD194803F0C8FD06
:10215000164A30463146FEF760FD0121002002910B
:102160000E4901910590049004200D4908E00121D9
:102170000020029109490191059004900420094929
:10218000039001A8FEF735FD0B4803F0A9FD0948AF
:1021900003F0A6FD044803F0A3FD00BFF8690008A2
:1021A000986A0008386A0008686A0008886A0008A7
:1021B000786A0008586A0008486A0008F0B503AF5A
:1021C0004DF804BD044608461D46164611461A46FB
:1021D000022300F00DF810B10B20314603E001217D
:1021E000002035466170C4E90115207003F092BDEE
:1021F00042B3F0B503AF4DF804BD00F1A404D0F82C
:10220000FC0002EB010C00EB40008500002D28468D
:1022100018BF012013D054F8086C8E420CD854F823
:10222000042C3244944507D8266806EA03029A42F1
:1022300008BF16F0180202D00C3D0C34E6E75DF83A
:1022400004BBF0BD01207047F0B503AF2DE9000FCE
:1022500000F19C01D0F8FC0000224FF0805C4FF0B0
:102260003C0E00EB40004FEA80081D4881461D48A7
:102270008346B8F1000F31D070C906F00800CA4695
:10228000144344F01004C9F80040F407A8F10C0806
:102290004FF0007408BF4FF08074B3070CEA8663F8
:1022A00048BF4FF0407443EA00432344F4064FF420
:1022B000802458BF4FF44034002818BF4FF48034B6
:1022C00018195B4680EA0B00B5FA85F30132AEEBD4
:1022D000430318430130C9F80400CAE703F017BDEF
:1022E0009CED00E00000081080B56F461E49FF24F9
:1022F0001E4B4FF4F076CA6842F4E022CA60002216
:102300000A704A708A70CC718C72CC72D3F8105DEE
:1023100045F01005C3F8105D1D6806EA4515203527
:1023200095420ED0B2F5F87F04D09E18013286F89F
:10233000FC43F5E70E4A4FF4F8704FF4F871FEF7DE
:102340006CFC0C4A1A6100225A61DA6842F00702FA
:10235000DA600522CA6708490860016A81F30988C2
:1023600090E8F00FFFDFFEDE18ED00E004E000E093
:10237000A86A00087F3801001C14002070466FF026
:102380000C0120EA010008281BD041F21C40C2F2D7
:10239000000001680A00EFF3098CA2E8F05F82EC0C
:1023A000108A5FEA0B0001F0EFFC41F21C40C2F220
:1023B00000000068B0E8F05F90EC108A8CF30988A8
:1023C0007047012080F314886FF0120E7047FEDE14
:1023D000D0B502AF0C4C0121D4E84F0FC4E8421F26
:1023E000002AF9D1BFF35F8F60B9012000F010F827
:1023F00018B106484FF0805101600020BFF35F8F95
:102400002070D0BD00F008F90000002004ED00E0CD
:10241000F0B503AF2DE9F80F60B173498A68D1F8C0
:102420000C90131809D309F1010900258D60C1F83A
:102430000C9004E04FF0000EBBE015188D6000F02A
:10244000F3F806466A4B4FF4947B4FF000084FF0C8
:10245000000AD646B04542D26D4800EB8800D0F85D
:1024600090400F2C00F2AA8004FB0B3008F1010809
:102470005FEACA7110D1D0E9461211430CD0D0E9FD
:10248000481247F2305C691A69EB0202BCEB0101A9
:102490004FF0000191411FD3D0E920121143D9D050
:1024A000D0E92212691A79EB0201D3D30021CDF8C9
:1024B00000E0C0E92011D0F8901000F0C5F8024605
:1024C000002818BF0222DDE90001234600F0F0F8E1
:1024D000474B86460191BDE74FF0010AB9E70199E4
:1024E0005FEACA7065D040F2FF309A46CDF800E04E
:1024F00000F042F900285AD00F2966D84FF49470A2
:1025000001FB00A0D0E94301FEF7D8F98046394825
:1025100040F2FF3100F05EF9404600F02DF9D0B3F3
:1025200089460F2953D84FF4947009FB00A000F599
:102530008675D0E94301FEF748FA86B20DF1080B23
:102540000024A0B2B04210D2D5E900012246FEF725
:1025500049FA02460B4611465846424600F0EEF94B
:102560009DF8080070BB0134EBE74FF4947009FB51
:1025700000A4204600F030FAD4E94301FEF718FA2F
:1025800010B1204603F0E0FB03F018FC10B3102953
:1025900006D31A4A25E003F011FCF0B110291FD22E
:1025A0004FF4947001FB00A0012100F04DF8DDE92B
:1025B00000E1704605B0BDE8000FF0BD154A2046A9
:1025C00003F092FB0F4803F08BFB084A09E00A4A2C
:1025D0004846F5E70A4803F083FB0C4803F080FB0C
:1025E000094A0846ECE700BF1C1400206873000885
:1025F000080000205C130020B873000888730008EE
:1026000078730008C8730008A8730008987300085E
:1026100088120020B86F000880B56F460148FFF7A8
:1026200078F900BF986D00080548D0F8D00011284F
:1026300038BF704780B56F46024A1021FEF7ABFCE9
:102640008812002000720008D0B502AF0446D0F80E
:1026500008010843C4F80801B4F86C00062809D141
:10266000204630F86E1F012904D839B10F49FEF712
:1026700001FA18B9D4E94601084314D0204600F005
:1026800032F802460020012A0CD14FF6FF72C4E94D
:102690000210C4E900020321C4E90400204600F04E
:1026A00041F80120D0BD0020D0BD00BF706E0008F1
:1026B000904204D102280CD1994202D103E00228B1
:1026C00003D1022A08D002207047022A02D1022038
:1026D00019467047012801D101207047501EB0FAF9
:1026E00080F040097047B0B502AFD0E9025104460E
:1026F000B1F1FF3F0ADC012001224FF6FF7300F029
:1027000027F818B9D4E94601084309D0D4F80801DC
:1027100010EA050104D04840C4F808010120B0BD0A
:102720000020B0BDC0F86E100622B0F86C10A0F802
:102730006C20062908BF704780B56F4600F000F88E
:1027400080B56F460148FFF7E4F800BFA86F0008A6
:10275000D0B502AF0446104380B2B0FA80F0400911
:10276000240408D012041FBF98B289B2081AB0FA24
:1027700080F018BF4009D0BDB0B502AF00F00F0126
:1027800082B213480B46102B0BD030F833501C4646
:102790000133002DF7D000EBC40464889442F2D1D9
:1027A0000DE00023994210D030F833501C4601331D
:1027B000002DF7D000EBC40464889442F2D1591E76
:1027C00000EBC10041680120B0BD0020B0BD00BFDA
:1027D00088120020F0B503AF2DE9000F93B0054635
:1027E00008468846FFF7C8FF002870D00F2971D827
:1027F0004FF49470444A01FB0024EDB1D4E9430145
:10280000FEF7E3F8DFF804B10DF1280900261FFAFE
:1028100080FAB0B250450FD2D4E943013246FEF7F8
:10282000E1F802464846294600F010F90A98594650
:1028300001F0FBF80136ECE7D4F80C110AAC2046A5
:1028400000F0A6F9324A03A8214600F0EBF931481E
:10285000049E00F11005304A06F17843A7F14A00C2
:102860002946FFF7CBF917F8440CA8B317F8430C27
:10287000A8B937F8481C37F84A0C37F8463CCDE978
:102880000001012117F8422C0AAC2046FFF708F995
:1028900003F04CFA50BB2846FFF762FB40BB4046B2
:1028A00000F010F9D8B910291CD21E480024164A8D
:1028B000084480F880404FF4947001FB002500F03C
:1028C00037F9C5E94344A5F86840C5F8FC4013B0A2
:1028D00003F01DBA0B4A06E0174803F001FA0F484F
:1028E00003F0FEF90E4A084603F0FEF9114800E035
:1028F0000D480090A7F11D020C482B210C4BFEF750
:1029000064FF00BFA072000808000020B072000839
:102910007C6C00081C1400203D2C0008D0720008BC
:10292000F07100088812002034690008A8690008C6
:102930009869000824690008C0720008F0B503AF68
:102940002DE9800F924601F00F020D46834602EBFF
:10295000420120489846A2F1110300EB81010133A6
:102960000ED20E882EB301F10C064988ACB2A142FA
:102970003146F4D10C3E304600F044F8304611E0C8
:10298000511C01391CD00288A2B100F10C02408810
:10299000ABB298421046F4D1A2F10C09484600F0BF
:1029A00031F8484603F001FA01208BF801000020BD
:1029B0000BE0084603F0F9F900208BF8010004E071
:1029C0000120CBF80880ABF804A08BF80000BDE82C
:1029D000080FF0BD5C1300200021094AC0E9201156
:1029E000C0E94611C0F80811C0F89010A0F8141101
:1029F000D0F89810C2660131C0F89810FFF728BBD4
:102A000006000200018811B100210180704780B5E5
:102A10006F4602482421024AFEF7F8FD8C71000837
:102A2000B0710008D0B502AF04882CB941800121F3
:102A3000836082800180D0BD02482421024AFEF7D3
:102A4000E5FD00BF207100087C710008F0B503AF00
:102A50004DF8048D02F00F03804603EB430001EBB9
:102A60008000851C90B2A3F1110201320BD22E46D8
:102A70000C3536F8024C002CF7D034888442F4D15F
:102A8000A5F10E000EE05A1C0231013A14D00B469B
:102A90000C3133F8025C002DF7D01B888342F4D14F
:102AA000A1F10E0085888668FFF7ACFF0020C8F80A
:102AB0000860A8F8045000E00120C8F800005DF8A4
:102AC000048BF0BDF0B503AF4DF804BD00F00F016D
:102AD000164A80B202EBC1039C1C61F00F0363B184
:102AE0002546013335F8026C0834002EF7D02D88C6
:102AF0008542F4D1A4F10A000DE0023281B11346FF
:102B0000013933F8024C0832002CF7D01B8883427D
:102B1000F4D1A2F10A00446800F02AF8002000E095
:102B2000012021465DF804BBF0BD00BF88120020E3
:102B3000D0B502AF0C4900220020102A0ED0134657
:102B40000A4492F880405A1C002CF6D00F2808D86E
:102B500001EB80040130C4F89030EEE7C1F8D000FA
:102B6000D0BD024A03F0C0F888120020C0710008EE
:102B7000018811B100210180704780B56F4602487D
:102B80002421024AFEF742FD8C710008B071000852
:102B9000F0B503AF2DE9F80F80461F48204CA7F190
:102BA000260901EB000BA1F1200001904FF4204514
:102BB0001A484FF4801A00F11006B5F5801F18D29C
:102BC0004846314622462B46FFF718F817F8200CE6
:102BD00060B117F81F0C48B937F8220C5D4500F0BA
:102BE0001F002AFA00F008D00544E6E705F5006565
:102BF000E3E70320A8F800000AE017F81E1C88F895
:102C00000C1057F8261CC8F800100199C8E90110EB
:102C100005B003F07CB800BFE0FFFFF71C140020F4
:102C20003D2C0008B0B502AF0B88032B1EBF91E806
:102C30003C003CC0B0BD104603F052F8B1F1006F4B
:102C40003CBF01207047BCB504AF0C4619440D0DC4
:102C5000802D05D8C06828B1A04203D3884201D88E
:102C60000120BCBD0448194600901046224603F0DE
:102C700027F80020BCBD00BFD469000841F21C4009
:102C8000C2F200000168EFF3098CA1E8F05F81EC6B
:102C9000108A00F00DF841F21C40C2F200000068FA
:102CA000B0E8F05F90EC108A8CF309887047FEDE84
:102CB000F0B503AF4DF804BD86B01E4D286820B3B3
:102CC000B0F8680001221C4ED6E84F1FC6E8432F1B
:102CD000002BF9D1BFF35F8F21BBFFF74DFD18B378
:102CE000084600F035F8102821D24FF494721449A8
:102CF00000FB021403F041F82C600020BFF35F8F4B
:102D0000307006B05DF804BBF0BD012100200191D8
:102D10000D4900910D4904900390042002906846EB
:102D2000FDF767FFFFF778FC064802F0D9FF034A7A
:102D300002F0DAFF1C14002000000020D86A00080E
:102D400008000020C86A0008F8690008B86A00088E
:102D5000F0B503AF2DE9E00F8346FFF765FCDFF820
:102D600094A00025DFF894900646E84604460095B6
:102D7000AE4213D00AEB8500D0F89010594508BF39
:102D80002C46B44208D20F292AD84FF494704246F8
:102D900001FB009000F03CF80135E9E700254FF415
:102DA000947BE846AC420ED0AE4212D00AEB8500CE
:102DB000D0F89010102911D201FB0B90424600F080
:102DC00027F80135EEE7009870B10198BDE80E0FC5
:102DD000F0BD0C4A30463146FDF71FFF084A00E0BF
:102DE000054A084602F080FF07481121074AFEF70E
:102DF00074FD00BF881200201C700008080000202D
:102E00000C700008FC6F0008D86F0008EC6F000819
:102E1000F0B503AF4DF804BD0D460A4906466C30C7
:102E2000144600F011F850B12168B6F86A0011B1EB
:102E30002189884203D220810120C4E9000502F0E3
:102E400069BF00BF8C670008B0B502AF05460088B7
:102E50000C46811F18BF01212288063AB2FA82F27D
:102E6000520991422ED0062815D02879217988421E
:102E700028D10A2823D8DFE800F0061406222222EF
:102E8000141E22171A0005F1080004F1080100F0D1
:102E900053F880B916E0A81CA11CBDE8B04000F0B2
:102EA00013B8A068A96808E0E088E98805E0E08830
:102EB000E988814206D160796979814202D1284648
:102EC0002146EAE70020B0BDF0B503AF4DF804BDE0
:102ED000B0F800C00426ACF1020293B2042B28BF64
:102EE00033460A88951EACB2042C38BF2646B3423E
:102EF00008D1042B11D0032B06D0022B18D1022DA0
:102F000004D015E0002014E0032D11D14988408839
:102F1000401AB0FA80F040090BE0032D08D94B8825
:102F2000418860465DF804BBBDE8F040FFF710BC87
:102F300001205DF804BBF0BDD0B502AF04680246C5
:102F40000B6843EA040080F0010034B12BB14868FB
:102F50005168081AB0FA80F04009D0BDF0B503AF4F
:102F60004DF804BD8AB0EFF3058002466FF35F228F
:102F70000092022A5FD00C2A67D00F2A70D900F085
:102F80000F014848103A019201EB410392B200EB65
:102F900083039C1C4B1E0F2B06D002F0E7FEFAD0D9
:102FA0002D889542F7D10AE0841C0023994236D03F
:102FB00002F0DCFEFAD02D889542F7D1013B03EBFD
:102FC0004301394E00EB8100012184688588D6E8F1
:102FD0004F0FC6E8421F002AF9D10028BFF35F8FC8
:102FE00047D1019800F070F82846FFF7C5FB00288C
:102FF00041D0102944D22E484FF4947201FB0200B4
:103000002146FFF721FB0021BFF35F8F317018B11C
:1030100028484FF0805101600AB002F07BBE0020CA
:10302000274902F089FE1D48099001A8254908900A
:1030300002A8FDF7DEFD0121002003911449029151
:10304000069005900420134908E001210020039117
:103050000D4902910690059004200C490490E7E781
:1030600000200D4902F068FE0C48099068460C49A2
:10307000DDE7FFF7D1FA10481521104AFEF72DFCC5
:103080000A4A084602F030FE046B00080C6B000888
:10309000EC6A0008F46A0008306B0008590C00085C
:1030A000386B00085C13002000000020986B0008BB
:1030B0000800002004ED00E0706B0008886B000839
:1030C000586B0008606B0008014640090022B2EB13
:1030D000512F01BF01F01F01012202FA01F1064A3E
:1030E00004BF42F82010704780B56F46014A02F0D5
:1030F000FBFD00BFA86B000880E100E0014640092D
:103100000022B2EB512F01BF01F01F01012202FA90
:1031100001F1064A04BF42F82010704780B56F469F
:10312000014A02F0E1FD00BFB86B000800E100E0D9
:1031300041F21C40C2F200000068EFF3098C024625
:10314000A2E8F05FEFF3058101F00F0100F010F845
:1031500041F21C40C2F200000068B0E8F05F90EC61
:10316000108A8CF309887047FEDEFFF7E1BFFEDEB0
:10317000F0B503AF2DE90007B4B00D46774990468E
:103180000C688A46D0E90896D0E94301FDF796FB22
:1031900027F8E20C72482040310778D5042D05D07D
:1031A000052D0CD1210416D4002117E0E1061DD411
:1031B000E10729D1210629D40021002225E0CAF8FF
:1031C00000000990E0034FF0050058BF0620A10160
:1031D00048BF032015E0DAF810200121CAF80000EA
:1031E0000220CDE90912ADF820001CE0CAF8000069
:1031F000DAF80C0220F00100CAF80C020120CDF828
:1032000024908DF820000EE0042103E0DAF80C3061
:1032100001220021CAF800000020CDE909238DF821
:1032200021008DF820104F4D012188EC108AD5E83F
:103230004F0FC5E8421F002AF9D10028BFF35F8F66
:1032400070D137F8E20CFFF797FA00286CD00C46E3
:1032500008A9204600F09EF8022803D02046FFF778
:1032600077FD0146A14262D0102973D24FF49472C7
:103270003E4801FB020402F080FD3D48046000204E
:10328000BFF35F8F287034B0BDE80007F0BDCDE913
:1032900010500A23DAF80C00002412900225394954
:1032A000DAF810000F9113AACDE90D1212AACDE998
:1032B0000B1211A90A9120223349099110A90891F2
:1032C0000C21139003208DF8CC00CDE931018DF84D
:1032D000AC002A91229101218DF88C008DF86C00B0
:1032E000042030922F932E942C95CDE92825CDE9FA
:1032F00026432495CDE92021CDE91E431C951A943F
:10330000CDE91824CDE916531495079014A9069118
:103310001E490390029108A9CDE9041002A81C4996
:10332000FDF767FCFFF778F9154802F0D9FC00209B
:1033300012491890022015900E4814900120179001
:1033400002A816900C480390A7F1E200029014A87E
:10335000FDF74FFC044A084602F0C6FC28ED00E0E9
:10336000BBBF0F0300000020246C000808000020F1
:103370001C1400205C6C0008151800086C6C000818
:10338000146C00084D190008590C0008E46B000883
:10339000046C0008F0B503AF4DF804BD0F2830D819
:1033A0000C464FF494711B4D00FB0156D6E94301C6
:1033B000FDF784FAB6F86C006C21062808BF6E2170
:1033C0007058F06606F1700094E80E000EC0002000
:1033D000FFF7D2F90C4601280DD10F2C13D84FF46A
:1033E0009470012104FB00500125FFF72DF90028FE
:1033F00018BF022500E00125284621465DF804BBE0
:10340000F0BD034A01E0044A204602F06DFC00BF13
:103410002C700008080000203C700008B0B502AF16
:10342000044608780D460B2801D1002003E0104621
:103430002946FFF7AFFF15F80C2F0B2A01D102F038
:1034400086BC95E8070007C4B0BDB0B502AF0D4615
:10345000044611F80C0F0B2801D1002002E01046A1
:10346000FFF798FF2A780B2A01D102F070BC95E88B
:10347000070007C4B0BDD0B502AF86B0044603A8AC
:1034800000F029F89DF80C000B2810D1DDE90401AB
:1034900000228DE8070003A86946FEF74CFD03985B
:1034A000072811D104980221C4E9001011E09DF809
:1034B0000F10E171BDF80D10A4F80510DDE904123C
:1034C000C4E90212207102E040F20770A0800120DE
:1034D000206006B0D0BDF0B503AF4DF804BD044682
:1034E0000846164611461A461D4600F055F810B11A
:1034F0000B20314603E00121002035466170C4E90C
:103500000115207002F006BCF0B503AF2DE90007ED
:103510004FF494721D4C00FB02401FFA81FA4FF0E9
:1035200000090025D0F89880194860F39F181948C1
:1035300000F18006B5F5945F25D03078F8B16019B8
:10354000B0F86C1006291AD1B0F86E20911E89B21D
:10355000042928BF042104290FD0032918BF0229F8
:103560000DD1B0F87010514509D1032144F8058000
:10357000C0F80490FFF7D6F801E0012AF1D005F574
:1035800094750136D6E7BDE80007F0BD08000020BD
:10359000FCFFFF03881200200123FEF729BED4D4CC
:1035A000F0B503AF2DE9000FADB006460888D1E9AC
:1035B000011990460491012801F128046FF01F01C0
:1035C000059408BF6FF0270101EB0900894A0690B6
:1035D00007A805A9FDF78AFA079D002D00F0F980DC
:1035E000DDF820A0B8F1000F4AD009A802F07FFB57
:1035F0009DF82400002840F0EC80CDE901940422DD
:10360000DDF82B900024DDF8498003960026A145C3
:1036100019D9A9EB040BBBF1040F28BF9346002076
:1036200044450DD0DAF80CC02146099009AA284675
:103630000423E047C0B2082840F0CA800998042259
:103640005C444640E3E709A802F051FB9DF82400E2
:10365000002840F0BD800020DDF84910DAF80C4069
:103660000423099009AA2846A047C0B2082840F0C0
:10367000AF800998DDE90194B042039E40F0A98033
:10368000CDE902460726049C0B96616A206ACDE9C3
:1036900009010020584900F0C8F95849022021903A
:1036A00000200E96CDF80490CDE90C4900F0BDF94C
:1036B00022A802F01CFB02F07DFB40F0978004F191
:1036C00020000090BDF89D004FF00208049022AC4D
:1036D0004FF000094FF0000B0498584540D02046A9
:1036E00002F005FB02F066FB7AD1BDF89D00834530
:1036F00076D2204602F0FBFA02F05CFB70D1BDF8F6
:103700009B000021DAF80C60224624910C23CDE9BD
:10371000221109EB00012846B047C0B208285FD14A
:10372000B8F1070F13D822AA08EB480307CA09AE5D
:1037300002F01F0246F8230006EB8300C0E90112E5
:10374000219800F101080020CDF8848000E00120DC
:103750002D4900F06AF90BF1010B09F10C09BBE7E7
:1037600022A829465246FDF71EFA02F023FB3AD161
:10377000DDF8958022A829465246FDF714FA9DF8F7
:103780008800029E78BBDDF8954054B122A802F073
:10379000AEFA02F00FFB26D1DDF88F00001B051FEB
:1037A00000E00025039C09A9642204F1080002F04E
:1037B000A1FC08EB0600B8F1000F08BF454608BFA2
:1037C0000120C4E91B05DDE90010C4E9001004E094
:1037D000039E0020F066022030702DB002F097BAF0
:1037E000084802F07DFA094802F07AFA044802F02B
:1037F00077FA00BF3072000840720008507200086B
:1038000060720008807200089072000870720008F0
:10381000F0B503AF2DE9000F8FB0834638691E461F
:1038200092468946FEF7A8FFB8B10C46102980F0F1
:10383000DF8072484FF4947104FB010548465146FD
:10384000FDF77DF88046D5E94301FDF778F880451E
:103850001DD96B483969FEF7BDFFD7F80C800021F0
:10386000684810290ED045180C46013195F8802083
:10387000002AF6D1396907A8224600F0DDF89DF844
:103880001C0060B140F20140ABF8000004E00020F1
:10389000CBF804408BF800000FB002F038BA0120DA
:1038A000CDF800B085F88000FFF742F907A8494637
:1038B0005246FDF74FF84FF49471504804FB010B4A
:1038C000BDF81C005146ABF86A004846FDF770F899
:1038D0000621ABF86C100321002808BF0221ABF8C9
:1038E0006E1048465146FCF7E9FFABF868004046C9
:1038F000B9684FF00008CBE940100BF5847080E800
:10390000000758466821CBF89880CBF8FC8002F07D
:10391000F3FB0BF19C000190306EDFF8ECA0CBE9DB
:10392000468800EB4000CBE92088ABF814814FEAD1
:103930008009CBF89080B9F1000F1BD0B8F1070FC8
:1039400010D808EB4800019901EB8000314691E85E
:103950002C002CC0DBF8FC0000F101080020CBF8A3
:10396000FC8000E0012051460C3600F05EF8A9F121
:103970000C09E0E7DBE94301FDF727F83D690DF1AC
:10398000100A00261FFA80F8B0B2404515D2DBE9D4
:1039900043013246FDF726F80246CDE902010B4607
:1039A000114650462A46FEF7C9FF9DF8100048B957
:1039B0009DF8110058B90136E6E70099002008701B
:1039C0004C6069E7009940F20130088064E700200C
:1039D0000E490B900120079108900A900DA80990BC
:1039E0000B480E9002A80B490D9007A8FDF701F9AE
:1039F000014A204602F078F9E07200080800002031
:103A00005C13002088120020986F0008F0720008F4
:103A1000590C0008F8720008000604BF08467047F9
:103A200080B56F46104602F05BF900B9704780B56B
:103A30006F46084602F054F9F0B503AF2DE90007D0
:103A400081468A4601F00F001B49904660F00F0244
:103A500001EBC003FAB11D461B8813B36E88013217
:103A600005F108031FFA8AF4A642F3D12846FFF7AE
:103A70007FF802F085F9012089F80100002015E0A7
:103A80000D46098869B16B88013805F108011FFAF4
:103A90008AF29342EAD00028F2D10120C9F80480CA
:103AA00004E002F06DF9002089F8010089F80000B7
:103AB000BDE80007F0BD00BF88120020038823B9CD
:103AC0004180012142600180704780B56F46024805
:103AD0002421024AFDF79AFD207100087C7100083C
:103AE00080B56F46ADF50A7D944A9548506095487B
:103AF0004169B1F1FF3F0CDC9349816093498160DA
:103B00004169B1F1FF3F04DC9D482F219D4AFDF73B
:103B10007DFD4FF0FF31DFF838B2C2E904014FF00C
:103B200002098C4800254FF0010A002682F82090F7
:103B30008046C2E90615B6F5945F1BD00BEB060470
:103B40006A21204602F0D8FA04F582701221C4E9F5
:103B50002055C4E93F5AC4F89850C4F89050A4F8CE
:103B60006E90C4F86A8002F0C1FAC4E9465506F5C1
:103B70009476E0E76AA900200022802A04D08B18FE
:103B8000885008325860F8E70DF1180B50210BF1FE
:103B9000800002F0ABFA6AA95846802202F0AAFA25
:103BA0006D4C5946D022204602F0A4FA0020002293
:103BB000C4F8D0003AA9C02A05D08B1888500C321E
:103BC000C3E90100F7E765483AA9C02202F092FA7A
:103BD0000BF10800059059484FF4204A654D002428
:103BE00000F110094FF48016CDF81090B4EB1A5F75
:103BF00061D1584649462A465346D046FDF7FEFF56
:103C00009DF81E0000284DD09DF81F00002849D1C6
:103C1000BDF81C009DF8201000F01F00002926FAB6
:103C200000F000EB080AE1D0BDF81820012ADDD130
:103C30006C9048F00060BDF81A206B900120ADF840
:103C4000AA210122ADF8A80158468DF8B4116AAE38
:103C50003146FFF7A5FC219C002C69D00599304620
:103C60006422A946069E079D02F044FA3046294682
:103C7000DDF88880FCF722FECDE900482A46029054
:103C80004D46DDF810906AAB314658464FF4801629
:103C90000024FFF7BDFD07999DF81800364AFFF78D
:103CA000BBFEA3E7BDF81C0000F01F0026FA00F0E1
:103CB00000EB080A9AE7DFF8A09009F19005FEF7FB
:103CC000B3FCDFF88C8004464FF494764CB128683E
:103CD0000F2826D800FB0680FEF7BAF9013C043510
:103CE000F4E76FF07F00F0B100F108014844B0F84C
:103CF000800000280846F6D009EB0100C06FFFF7EE
:103D000027F80F2817D84FF4947100FB018402F0B4
:103D100034F815480021BFF35F8F01702046FEF78D
:103D2000E3FA0F4A08E011481321114AFDF7D5FDC7
:103D3000124801F0D5FF0B4A01F0D6FF1C140020F9
:103D4000803801000020024023016745AB89EFCD98
:103D500008000020FF000600881200205C130020ED
:103D6000886D0008786D000800000020206D0008B4
:103D7000686D00083D2C00082072000810720008D1
:103D800038680008A4680008F0B503AF2DE9000FFB
:103D9000D3B0B1F868600446DFF8DC8E0121D8E8C2
:103DA0004F0FC8E8421F002AF9D10028BFF35F8FE8
:103DB00041F0AF823046FEF7DFFC002801F0AB8215
:103DC0008B460C2C00F2B881DFE814F00D00840162
:103DD00021014D019700A001BA016C0110020201FE
:103DE000E4016200D700BBF10F0F01F2C2824FF471
:103DF0009475DFF8889E0BFB05F059F800404FF6EC
:103E0000FF70210C814200F06B8218A801F086FB44
:103E1000DDE918A6BAF1020F40F04083102E81F0C0
:103E2000CE824846C14601460BFB05084FF494700C
:103E300006FB001030F86C1F062940F0AB8330F809
:103E4000021F012900F2A68391B1B8F8682001256C
:103E5000B8F89810ADF860506FF39F2242EA8121C4
:103E6000ADF8621018A9FCF705FE002800F0938356
:103E70000AA85946324601F087FB9DF828000C2815
:103E800040F063864FF0020A1696CDF854A08DE3F9
:103E9000BBF10F0F01F26F824FF49470DFF8DC4D2D
:103EA0000BFB00460BFB00F0D6F80490215818A835
:103EB00001F034FBDDE918A5BAF1020F40F0A18151
:103EC000102D81F071824FF49470C24605FB0048BA
:103ED00049464046FEF7B8FB00240028C6E90044E6
:103EE00000F0A582B8F86A00D046B6F86A10884299
:103EF0003CBF1695022400F04ABEBBF10F0F01F241
:103F00003C824FF49471DFF8740D0BFB0106D6E987
:103F10000354601980F009813168D6E9019835A809
:103F200001F0FCFADDE935A2BAF1020F40F0BB81E5
:103F3000CDF8008035A801F033FFDDE935A0DDE9DB
:103F40003723BAF1020F40F0C183DFF82C8DC00790
:103F500000F0A281CDE900B5029418A8099C214681
:103F600001F0D0FB9DF860000C2840F0E88419981F
:103F70000021C6E9001000F0F8BBBBF10F0F01F201
:103F8000FE814FF49470DFF8F46C0BFB0060456821
:103F9000062D80F03C810168C146B0F89880B0F8E9
:103FA000684018A801F0BAFA1898002800F03F837A
:103FB000012840F043839DF86420DDE91A010B2AB3
:103FC00000F03783BDF86640C8469DF8653020E1B3
:103FD000BBF1100F81F0D5814FF49470DFF89C4C49
:103FE0000BFB00F1DFF8982C0BFB00409368D268C4
:103FF000635000F180067ACE0B4304BF1D461C4679
:10400000C0E901210C3070C0002400F0C0BDBBF13C
:104010000F0F01F2B8815A464FF49470DFF85C4CF0
:104020000BFB004109925043D1E90169D1F80CB072
:10403000B1F898A0B1F86850215835A801F06EFA8F
:104040003598002800F0D081012840F0F5819DF8D6
:10405000D800DDE9379B0B2800F00B82BDF8DA2091
:104060009DF8D9101EE3BBF1100F81F08E814FF443
:104070009472DFF8081C0BFB0210DFF8043C0BFB0A
:1040800002F29D68DE688958002900F01E81D0E99F
:1040900001230024C168AD1A76EB030580F0F78197
:1040A000012515E1BBF10F0F01F271814FF49472FC
:1040B000DFF8C81B0BFB02100BFB02F240688C58A8
:1040C000002800F09481012840F0D881C246DFF832
:1040D000B48B8FE1BBF10F0F01F25B814FF4947051
:1040E000DFF8981B0BFB00142046FEF7FCFA0128B2
:1040F00040F09A8000204FF6FF72C4E90002C4E944
:1041000002100021C4E9040000F03EBDBBF10F0F16
:1041100001F241814FF49471DFF8600B0BFB010455
:10412000D4E90365A819C0F09B8040F20710ADF8F0
:1041300054004FF0010AAAE2012014900020A0E1EF
:10414000BBF10F0F01F229814FF49471DFF82C0BB2
:104150000BFB01060BFB01F17568415818A801F033
:10416000DDF9DDE918A2BAF1020F40F0A5800024C4
:104170005946009418A82B4601F0B2FBDDE918A1BE
:104180001B98BAF1020F40F0FF81C6E90041B06010
:1041900000F0FDBCBBF10F0F01F201814FF49475EB
:1041A000DFF8D84A0BFB05F020586FF39F20FEF78D
:1041B000E3FA002800F014810F2901F2F3804FF494
:1041C00094720BFB054001FB024100241594B1F8E9
:1041D0009820B1F8681002F03F026FF39F2141EA86
:1041E000822101600220149000F0D1BC08208DF8DB
:1041F000600018A95846FFF7CDF80446169100F064
:10420000C6BCDDE91A011791CDE9155059E0082324
:1042100007228DF855304FF0010A8DF854200C22FA
:104220000823ADF856402FE2B4F868102246B4F8DF
:1042300098004FF6FF73D5686FF39F21069241EA0D
:104240008024E80F29460122ADF840400490FEF793
:104250007FFA0028059500F02781002400F086BC35
:104260002168D4E9019835A801F058F9DDE935A2B3
:10427000BAF1020F17D1CDF8008035A801F090FDFA
:10428000DDE935A2DDE93701BAF1020F0DD1DFF822
:10429000E889920700F155824FF0000A0120CDF81D
:1042A00058A01590F3E13798389917911690159208
:1042B000CDF850A000F011BCDDE91A011791CDE94D
:1042C0001520CDF850A000F00FBCC16800250024D7
:1042D000C0E92054C0E92223C0F8901000F057BC78
:1042E0003046FEF749FA002801F061808A460F291E
:1042F000CDF824B001F25E804FF494710AFB019472
:104300000AFB01F1D4E9028E6FEA08002546D4F8D1
:1043100010B055F8042F39F801106FEA0B0C4B1E42
:104320000B2B00F24781DFE813F00C00B00297027C
:10433000630263026302630263026302DE026902D4
:104340000103824298BFE64500F2BD8318A82146CA
:10435000434676462546FFF78EF8DDE918A0BAF108
:10436000020F40F07B84FEF707FA002800F03C863D
:10437000102981F051804FF49470324601FB009077
:104380005B46D0E91D1908912946B0F87260B0F873
:104390006EA0B0F86C40B0F8708018A8FDF70EFF62
:1043A00001F0F3FC40F05586DDE91901062CCDE95A
:1043B0001001079440F09186002900F0D287002177
:1043C000424601700120129014A810AB5146FDF72F
:1043D000D1FC1498072800F0B787159900F0BBBFEF
:1043E0000120149002204CE0DDE9379B41E0C246F9
:1043F000DFF89488DFF894980025002005EB45014C
:1044000009EB81010C390F2D0ED831F80C2F013535
:10441000002AF8D08A88B24204BF8A68A242EDD14D
:104420004888C0470120E9E7C00702D00024D046F1
:10443000ADE30120D04622E00896369E0F2E00F212
:10444000BC876FF39F2545EA8A20ADF8D800EA487B
:1044500035904FF4947006FB004835A908F16C00C4
:1044600001F048F9002800F015814FF00009DFF84D
:1044700008884FF0020A082004211DE10120149051
:1044800006208DF8550007208DF854002FE3C0E971
:104490002044C0F89010FEF7D7F878E3DDE91A0160
:1044A0001791CDE91560F2E0002D00F11281DFF8DF
:1044B000E0470DF128084FF4947500200790CDF8DF
:1044C00024B0FEF7B1F8814600200026CA460A90C3
:1044D000B14515D004EB8600D0F89010594508BFBF
:1044E000B246CA450AD20F2900F20F87DFF88C07BF
:1044F00010AA01FB0500434601F0C2FA0136E7E7C6
:1045000004F19006DFF874474D464FF4947BBAF1FE
:10451000000F11D0002D00F059863168102980F06D
:104520005A8601FB0B4010AA434601F0A9FAAAF1F2
:10453000010A013D0436EAE70A98012840F0188193
:10454000DDF82CB018AC099A4FF494752046594602
:1045500001F01AF89DF860000C2800F01181404627
:1045600021465A46FEF75AFF9DF828000B2840F0D6
:104570001081DDE90B23DDE90701FEF799F8CDE9AC
:104580000701DFF80C479CE71A9ACDE914A1CDE9A1
:104590001620A9E20125042060F30F0440462146BD
:1045A000FEF7C0F8CDE915564FF0020ACDF850A03D
:1045B000C84694E2142900F0E681152900F00E8225
:1045C0001F2900F07B82202900F0B182242940F0CD
:1045D0000F81824200F27782042E40F0C78318A830
:1045E00001F0BAFB01F0D1FB40F0C9841A98DDF864
:1045F00024B0DFF88486012840F2E184199801880C
:10460000DFF87C061030FDF7B1FC04461920FDF7F9
:10461000FFFE01F070FB18BF032118BF0322022820
:1046200008BF0A46002C18BF0022159257E2DDE9A8
:104630001A014FF0020A0822042324E06FF39F249A
:1046400044EA8828199C0F2C00F2BC866A4818900E
:104650004FF4947004FB0060ADF8648018A96C30CE
:1046600001F048F850B90A208DF861508DF86000CB
:104670002046ADF8628018A9FEF78CFE4FF0020AC2
:10468000082200200423C84614ACE050A150CDF805
:1046900050A024E26FEA0B00814543D90720012195
:1046A000DFF8988D8DF855104FF0010A8DF8540001
:1046B0000C200821ADF8562014AA42F8019042F8C7
:1046C00000B0CDF850A0DDF824B008E215A90DC166
:1046D000EEE50AA8294600F021FFDDE90AA8BAF1B3
:1046E000020F5FD1B8F1100F80F06F864FF4947015
:1046F000DFF8501D08FB001021466C30FCF7CDF9A7
:10470000002800F0308235A841465A4600F03CFFB0
:104710009DF8D4000C2840F08D8200200021DFF8A5
:104720001C8D31E2D8E9031042184BD340F2071038
:10473000ADF8D40035A93046FEF72CFE81468B46F5
:1047400095E6DDF82490324602915946CDE9009075
:1047500018A82B4600F0D6FF9DF860000C2840F00A
:10476000F48019980021C4E90010159100F003BCF1
:104770000798DDF824B00238B0FA80F04409F3E17C
:104780000798DDF824B0C1B220F0FF00DFF8AC8C50
:10479000F9E101F0FEFADDF824B042EA0141DDE979
:1047A0000B3205E0DDE90C324FEA18215FFA88F0A0
:1047B00040EA0120DFF8848CCDF850A0CDE9163214
:1047C000159091E1CDE900614A46029018A8099937
:1047D0005B4600F097FF9DF860000C2840F0F981DF
:1047E00019980899C8E90010404601F0ADFA3CE676
:1047F00040F2077069E100BF06000500DDF824B053
:104800000025DFF8388C40F2FF3086424FF0000080
:1048100040F0AE83D4E943012646FCF74FF8FDF79C
:10482000ABFF002800F061820F2900F2E9854FF408
:104830009470344601FB009090F81411002900F0A8
:104840009683B0F89810B0F8680001F03F016FF35C
:104850009F2040EA81208BE3824200F2348118A835
:1048600001F07FFADDE918A0BAF1020F40F0F681FD
:10487000DDF824B00104DFF8C48B1CBF81B28E4286
:1048800040F0828340F2073051E4824200F21B8103
:1048900018A821464346FEF71EFE01F076FA40F0C6
:1048A000F981DDE9190135AB0022A24607C318A83A
:1048B00035A9FDF740FB1898DDF824B0DFF87C8BB4
:1048C00007280DD1DDF8649018A835A9FDF722FB63
:1048D0001898072804D19DF86440022C40F0878383
:1048E00040F20771E4E1824200F2ED8018A801F085
:1048F00033FA01F04AFA40F0EA81DDE9190135AAFC
:10490000002413C218A835A9FDF704FB1898DDF898
:1049100024B0DFF8288B072840F01D839DF8640041
:10492000C5E9004485F81401159424E3002094F8A7
:104930001511C4E9001015904FF0020AC9E035A81E
:1049400018A92246FEF76AFD04E035A818A94A46D0
:10495000FEF77BFD9DF8D4000B2807D136984FF069
:10496000000A37991690012017919AE49DF8D71004
:104970008DF85710BDF8D510ADF85510379917912F
:1049800036991691EFE2002340F2FF30864240F064
:104990002C81D4E943010595FBF790FFD4E943014D
:1049A0002546FBF78BFF0890FDF7E6FE80460028C2
:1049B00000F0DF810F2900F225854FF4947001FB90
:1049C00000900899B0F89840B0F868600020FDF7B2
:1049D00001FF6FF39F2646EA8426CAE1824272D81D
:1049E00018A801F0BEF9DDE918A1BAF1020F40F0F4
:1049F000738110A8FEF7CCF8BDF84000DDF824B0B4
:104A0000DFF8388A032800F07381DFF8982A14A8A9
:104A100010A9FEF707F9BDF85000012840F06881A1
:104A200018AC14A900222046FEF7BAFD339E002ED2
:104A300000F05E81079504F10801DDE9188535A8CD
:104A4000642201F057FB40462946DDF8D090FBF781
:104A500035FFFDF791FE002800F07F831029CDE996
:104A600004960695CDF8208080F0D8844FF4947099
:104A7000DFF8D02901FB0024D4E94301FBF7A5FFAF
:104A8000DFF8E4B90025DFF8246A1FFA80F9A8B23C
:104A9000484580F0FA82D4E943012A46FBF7A2FF99
:104AA0008046FEF711FB4EA859464246FDF7CEFF61
:104AB0004E983146FEF7B9FF0135E8E7824298BFCC
:104AC000E64540F21F8140F20710ADF854004FF068
:104AD000010ACDF850A0DDF824B0DFF86089BAF102
:104AE000020F01D1159C52E0BAF1000F0CD014A8AE
:104AF00018A904300A4690E83800584638C2FEF734
:104B000049FC0446084643E0BBF1100F80F02F84B7
:104B10004FF49471DFF82C390BFB01F2DDE91554E9
:104B200017980BFB01319D5000224A6030E0042EA3
:104B300064D1DFF82C091030FDF712FA00214FF094
:104B4000020AC4E9000115915EE018A80AA93246DC
:104B5000FEF77BFC01F019F95BD1DDE91956022D56
:104B600018BF012517E50024DFF8D088DDE904101F
:104B700041EA00410698FDF7D5FD002C4FF00101F8
:104B800018BF02210020089A169241EA00041698E4
:104B9000BCB1012C07D15846FEF7DAF8102805D32E
:104BA000DFF87029B3E3102880F0BB834FF49472D0
:104BB000DFF8901800FB021401F0DFF8DFF8A0081E
:104BC00004600020BFF35F8F88F8000053B001F04D
:104BD0009EB835A818A93246FEF737FC9DF8D400D8
:104BE0000B2841D1DDE9369B41E404222546002013
:104BF0000021DDF824B0DFF84488A7E140F2073057
:104C00004FF0010AADF85400DDF824B0DFF82C882D
:104C10003DE59DF863104FF0010A8DF85710BDF87F
:104C20006110ADF855101A991791199916918DF8D0
:104C30005400BBE40AA835A94246FEF7EFFB9DF8F5
:104C400028000B285BD1DDE90B01089100280FBF7C
:104C500000240238B0FA80F0440985E71B9A1A99BB
:104C600017921691159034E7DDE9369BBDF8D620F2
:104C70009DF8D51014E500BF0000002008000020BA
:104C80001C140020FD300008C93000085C1300200F
:104C9000881200209DF86310BDF86120DDF824B073
:104CA00042EA0141DFF8948740EA0121DDE9190277
:104CB00015914FF0010A010E8DF85800000A179265
:104CC000CDF850A08DF85B10ADF8590007E701F062
:104CD00024F8DFF8688740E1DDF824B0DFF85C876E
:104CE000DDE91A02CDE9160206E0002034463FE174
:104CF00001240021C5E90041CDE914A1EFE601F04E
:104D000048F84AE5042E31D118A8164621467246C5
:104D10005B462546FEF7AFFBDDE918A4BAF1020FAA
:104D200040F05C81284631464246FEF735FC0028BB
:104D300000F0A181DFF828072146324643461030B3
:104D4000FDF740F904465020B8FBF0F0FDF760FB9A
:104D500000F0D1FF18BF032118BF0322022808BFAB
:104D60000A46002C18BF00221592B4E640F2073024
:104D7000ABE640F2FF30FDF7FFFC012840F02D8349
:104D800040F2FF300C46FDF79DFE002840F02883DE
:104D900018A808992246FEF74FFE9DF860000028EB
:104DA00040F02183D5E94301FBF788FD0121002470
:104DB000C5E9464401EB96210496B8F1000FCDF801
:104DC000188018BF01F03F08A5F868004FF49470F0
:104DD0000AFB0090C5F89880079500F58679D0E920
:104DE0004301FBF7F2FDDFF880861FFA80FBA0B2DB
:104DF000584533D2D9E900012246FBF7F3FD81B2D1
:104E000000F00F00421E00EB400308EB83039E1CE2
:104E10000F2A0AD033460C3633F8025C0132002DDB
:104E2000F6D01B888B42F3D110E008F10203002278
:104E3000904200F073821E460C3336F8025C013259
:104E4000002DF5D035888D42F2D1013A02EB4200B7
:104E50000899013408EB80008180C8E70698D0B13A
:104E600004995046FEF750FB00F0A8FFDDF824B08F
:104E70000028DDF81C9000F0C7820F2900F2C782DD
:104E80004FF49470DFF8BC2501FB00200121FDF7F1
:104E9000DBFB804605E04FF00008DDF824B0DDF8CC
:104EA0001C90D9F80C1118A8FDF772FEBDF860002F
:104EB000032800F08F82DFF8A805199E00F1100585
:104EC000DFF8182606F1784335A82946FCF796FE48
:104ED0009DF8DA00002800F07D829DF8DB000028B4
:104EE00040F078829DF8DC00002840F07382BDF825
:104EF000D6100122BDF8D400BDF8D830CDE90001AC
:104F000018AC00212046FCF7CBFD00F00FFF002875
:104F100040F06C822846FDF723F8002840F06882B4
:104F2000B8F1000F08D000F049FFDFF81085002825
:104F300000F06F82022002E00120DFF800850022ED
:104F4000059DC9F8002014AC002308222B60606086
:104F500014A881500FE007210720CDE91643ADF8D2
:104F600056208DF855108DF85400FFF7E2B8002058
:104F7000C4E9000515954FF0020AFFF788BB00F061
:104F8000CCFEDFF8B8841CE0FDF7F6FB00286ED0FD
:104F9000B5F868200923B5F898008DF860306FF3F4
:104FA0009F2242EA8020ADF8620018AA0846114606
:104FB000FEF7F0F90020C5E900001590DBE70721B6
:104FC00007204FF0010A40EA0120CDE91643ADF871
:104FD0005620CDF850A0ADF8540080E5DDE91A0167
:104FE0001791CDE9154074E540F207206DE548467C
:104FF000FDF7C2FB002800F091808846102980F060
:1050000018824FF49470DFF83C1408FB001BBBF8C7
:10501000980008905846BBF86850FDF7DDFC0898EA
:105020006FF39F25E40745EA802502D0584600F03B
:105030008BFE40462946FEF767FA1FFA89F0864242
:1050400040F07480002C40F074804FF0020A012080
:1050500072E09DF86310BDF8612042EA014140EA28
:105060000120DDE919211791CDE915022FE540F264
:105070000720FFF75CB84FF0010A4FF480701796D5
:10508000CDF858A0ADF8540023E594F81401002899
:1050900056D001204FF0004184F815012046FDF75D
:1050A000D3FAB4F86C00DDF82080069D0628DDE90F
:1050B000049652D1B4F86E00023880B2042828BF9A
:1050C000042000F00600022847D10020C049C4E9AE
:1050D0000010204600F038FE3FE0002900F041813A
:1050E00001214FEA182401705FFA88F01291DFE87D
:1050F00010F00B009F007B00B5007400D100DA00B7
:10510000BB00EB009800F5001198012840F2F880F0
:10511000109800214170022012906DE040F20720AB
:105120004FF0010AADF85400FFF7CBBA0020CAE9EE
:1051300000004FF0020A0020CDF850A01590CAE4FC
:105140000020DDF82080A4F87200092084F87000A7
:105150000320E066069DDDE9049640F2FF30CDE9CC
:10516000006902904EA835AB41462A46FEF750FB37
:105170009DF83811DDE94E0421B1000600F05081A0
:1051800001241DE0DFF834232146FEF745FC102CF6
:1051900080F051814FF49470AA4904FB001040F252
:1051A000FF3100240123A0F86810AD49C0F89840F1
:1051B0008A68C968C0E94634C0E94821FCF748FF5D
:1051C000DDF824B0DFF87482079D92E5B04A4846C6
:1051D0004946FBF722FDAD4A98E011980228C0F03D
:1051E0007180109804215AE01198012840F28880BB
:1051F000109802214170129118A810A9089A4B46E4
:10520000FCF779FD1898072823D111991298884244
:1052100080F07880002C18BF012410990C540130C4
:105220003FE035A810A909223346FCF750FD47E0BE
:105230001198012864D91098012141700220129020
:1052400018A810AA0899FCF771FD1898072800F013
:1052500070801A9A19993792369154E01198022861
:1052600030D3109803211AE0119802285DD31099C9
:1052700007224A7002211291DFE804F005050505B6
:10528000050505055500119802284ED9109884701F
:10529000032020E01198022814D3109805214170B2
:1052A0000220129045E0119802280BD31098062195
:1052B00041700220129035A810AA0899FCF736FD1B
:1052C000359834E0002041E0119802282DD3109841
:1052D0000821417002201290072027E01198012830
:1052E0000ED910980A214170119803280AD91098F4
:1052F00046801198042805D9109804710520D0E73C
:1053000010A836900020359020E05F4A084600F053
:10531000EBFCFDF781F9804800F0E2FC764800F0F4
:10532000DFFC7B4AF3E70228B0D100203590072844
:105330000CD118A810AB07995246FCF71BFD189822
:10534000072806D10720149012990BE01490369983
:1053500001E01999149020B1072803D040F207709A
:1053600081E610210020C5E90001FFF7E4BA664A92
:1053700016E0494A14E0354A12E03E4A10E0304A4D
:105380000EE0364A0CE03D4A0AE03B4A08E0354A66
:1053900006E03C4A04E0364A02E0344A00E02D4A86
:1053A0005846B4E72C4AB1E7294A2846AFE75748A0
:1053B00000F096FC3A4A5046A9E7314A00E0374AE5
:1053C0003046A4E7204A2046A1E7324A40469EE7FD
:1053D0000000FFFF474800F083FC3B4800F080FCE2
:1053E0003A4800F07DFC3A4800F07AFC404800E082
:1053F0003C48009014AA3C482B213C4BFCF7E5F9B3
:105400003E4A83E72F4A81E7334800F069FC314A7E
:105410007CE7334800F064FC3A4A77E7224A75E7B4
:1054200023482E2100902348234B529452AAFCF784
:10543000CCF9334ACAE7224AC5E700BF0000002082
:10544000446F000808000020546F0008246F000813
:10545000346F0008046F0008146F0008206E000805
:105460001C140020F46E00085C130020C46E0008B9
:10547000B46E0008A46E0008106E0008846E000868
:10548000946E0008606E00081C7000080C70000824
:10549000FC6F0008746E0008406E0008506E000833
:1054A000D06C0008087300081873000858730008CF
:1054B00028730008686900085869000838730008F4
:1054C00048730008D8730008E8730008D07100081A
:1054D000E071000808740008F87300083D2C00080B
:1054E000106D000804690008A869000898690008A0
:1054F000F46800081874000828740008006D00089B
:10550000F06C0008E06C0008306E0008C06C000809
:10551000006E0008F06D0008E06D0008B0B502AF45
:10552000044608466FF39F200D46FDF725F990B11C
:1055300010291ED212484FF4947201FB0200ABB244
:10554000D0F8980000F03F02B2EB932F09D102206F
:10555000C4E90001B0BD40F20720A0800120206016
:10556000B0BD084A0021A16062F39F10C4E9001099
:10557000B0BD024A084600F0B7FB00BFC86F000884
:1055800008000020FCFFFF03F0B503AF2DE9000F7A
:105590008FB00F2900F2A6804FF49478544E01FB8F
:1055A000086581460792D5E904BA05F1040EB5F8FD
:1055B00098000690B5F8680005905FEA8A7001FBD4
:1055C00008F0AC6908949EE80C406FEA030C305A6E
:1055D000049002D04FF000080AE00C204FF00008C1
:1055E000A4FB006020B9F043824598BF4FF001084A
:1055F000624503D90B20C9E9012306E06FEA0B00DD
:1056000086450BD90B20C9E901EB89F80C0040F263
:105610000710A9F800000FB000F079BBB8F1000F37
:1056200015D007984FF49474314E00FB046844433E
:10563000D8F804C034591CEB0406089E0ED340F27F
:105640000711C9E9014CA9F80C100B2047E00B2009
:1056500089F80C000898C9E901A0D8E78DE8111075
:1056600009AC204600F04EF89DF824000C2823D108
:10567000059900220698C8F814606FF39F2141EA4B
:1056800080200A9980B2C8E9002008F10802049835
:1056900082E80308B8F86810B8F898006FF39F2103
:1056A00041EA80200004411D2846FDF73BF84046B2
:1056B00000F04AFB0C2012E09DF8271009F10802C7
:1056C00089F80310BDF82510A9F8011004F10801AC
:1056D000DDF828C091E8780078C2C9F804C089F8DC
:1056E000000098E7014A084600F0FEFAE46E000860
:1056F0000800002080B56F46FDF7A6FB80F0010092
:1057000080BDD4D4F0B503AF2DE9000F8FB0D7F82A
:1057100010801C46D7F808909246434538BF9846FB
:105720000E46834649451DD2CDF808B006F1010B5F
:10573000654A0BA8594600F077F90C99B14240F23E
:10574000A4800E99A9EB0B00884280F0A4800B99ED
:105750004FF494730D9A00FB0325DDF808B006FBA7
:1057600003111AE0B14580F0948009F10105534A14
:105770000BA8294600F058F90E99701B884280F05A
:105780008D800C99494540F28C800B994FF49473AD
:105790000D9A09FB031500FB032103A8524623467B
:1057A000FE68FDF798FE3B690021581E41F100019B
:1057B00044B139B104EB0A010139B14224BF30448C
:1057C000504552D20BA829463246FCF7F7FC9DF80B
:1057D0000C409DF82C50DDE90C960B2CBDF82D00EB
:1057E000ADF818009DF82F008DF81A0008BF0B2D9A
:1057F00026D00B2C05D003A80B22411C07A800F0D3
:1058000077FC0B2D1FBF9DF81A008DF82A00BDF8FC
:105810001800ADF828008BF800400BF1010007A933
:105820000B2200F065FCBDF82800ABF80D009DF8D8
:105830002A008BF80C50CBE904968BF80F0011E08E
:10584000B04532D80599884534D8049A4146214854
:1058500043460090484600F033FA0C20CBF8048011
:105860008BF800000FB000F052BA4FF001099DF81C
:105870000C409DF82F0000258DF82D908DF81A0012
:10588000BDF82D00ADF81800B3E7104A3046FBF71D
:10589000C4F900F0EDF80E4AFBF7BFF9084AFBF730
:1058A000BCF9084A4846FBF7B8F90C4A404631466D
:1058B000FBF771FB084A4046FBF76DFBC070000820
:1058C000D0700008E0700008F07000080071000857
:1058D00010710008A0700008907000088070000827
:1058E000F0B503AF2DE9FF0B15460F2A00F29280A9
:1058F00081464FF494704A4E01FB0061984605FBC7
:105900000064484B0193B1F89820B1F8681004F195
:105910006C006FF39F2141EA8221ADF8081001A9C4
:10592000FFF7E8FE30B100200121C9E90001C9F804
:10593000080018E06069810707D1D4F818C00C226C
:10594000ACFB02320AB91A1811D340F20710ADF8B5
:10595000040001A92846FDF71DFD01220023C9E925
:105960000032C9E9020108B0BDE8000BF0BDBCF18E
:10597000000F2BD04FF49472D4F8FC4005FB026268
:10598000034404EB4404A432A40084B152F8086C2C
:10599000864209D852F8041C31448B4204D811685D
:1059A00001F01901012911D00C3C0C32EDE70790F0
:1059B00001244FF480700694ADF8140005A9284620
:1059C000FDF7E8FC0022C9E90024CAE7C44516D95E
:1059D00008EB4802B968002400EB8200D0E90123FB
:1059E000551844F100048B420CD35CB900685B1A73
:1059F00002241144C9E90213C9E90040B3E740F2A7
:105A0000074001E040F20750A9F804000120C9F85E
:105A10000000A8E7014A284600F066F9D46E0008A5
:105A20000800002006000500D0B502AF86B011299D
:105A30003FBF0E4AC1F110034FF4947401FB0424DC
:105A40003FBFC0E90021C0E9024306B0D0BD00203D
:105A50000121019104490490039004200091114612
:105A600002906846FBF7C5F850690008080000205E
:105A700080B56F460148FBF74CFF00BFB0700008CF
:105A8000F0B503AF4DF804BD0D46118806466C30E5
:105A90001C46FBF702F850B12168B6F86A0011B154
:105AA0002189884203D220810120C4E9000500F049
:105AB00031B9D4D4F0B503AF4DF8048D8CB0D1E931
:105AC00005540C22E6681F49D0F800802846B047EC
:105AD00008BBD8F818001C4900F10C020591CDE96B
