S009000068756272697369
S3FF08000000001A0020AD0100085D3A00080F740008A33C0008A33C0008A33C000800000000000000000000000000000000252E00085D3A00080000000075370008A12E00085D3A00085D3A00085D3A00085D3A00085D3A00085D3A00085D3A00085D3A00085D3A00085D3A00085D3A00085D3A00085D3A00085D3A00085D3A00085D3A00085D3A00085D3A00085D3A00085D3A00085D3A00085D3A00085D3A00085D3A00085D3A00085D3A00085D3A00085D3A00085D3A00085D3A00085D3A00085D3A00085D3A00085D3A00085D3A00085D3A00085D3A00085D3A00085D3A00085D3A00085D3A00085D3A00085D3A00085D3A00085D3A00085D3A00085D3A7B
S3B7080000FA00085D3A00085D3A00085D3A00085D3A00085D3A00085D3A00085D3A00085D3A00085D3A00085D3A00085D3A00085D3A00085D3A00085D3A00085D3A00085D3A00085D3A00085D3A00085D3A00085D3A00085D3A00085D3A00085D3A00085D3A00085D3A00085D3A00085D3A00085D3A00085D3A00085D3A00085D3A00085D3A00085D3A00085D3A00085D3A00085D3A00085D3A00085D3A00085D3A00085D3A00085D3A00085D3A00085D3A00085D3A0008EA
S3FF080001AC80B56F460B480C494FF6FF72CFF6FF72814201D004C0FBE702F03AF802F044F80348016841F47001016002F04DF800BF88ED00E044140020001A002070477047F0B503AF2DE9000F93B0CE4A1368DB070AD1136843F0690323F09403136013689B0701D400BFFAE7936813F00C0F07D000239360936813F00C0F01D000BFF9E791F82B304BB991F828B04FF00009BBF1020F12D091F829307BB9D2F8943043F00103C2F89430D2F894309B0701D400BFF9E791F828B04FF00109BBF1020F23D0936D43F080539365AF4B1C6844F480741C601923BBF1000F08BF0523D2F890402343C2F89030D2F890309B07FBD591F829304BB9D2F8903043F00A
S3FF080002A62003C2F89030936943F40073936191F82530022B0FD091F824409D4D002C08BF05F5802515601468A403FCD51BB9146844F40024146091F830A0BAF10C0F32D191F82AC0BCF1000F0BD0D2F8984044F00104C2F89840D2F89840A40701D400BFF9E7BAF10C0F08D0BAF10B0F02BFD2F8884044F04064C2F8884091F82C40854EDFE804F002382233BAF10C0F3FD1012100200E91DFF8A4140D91119010900420DFF89C141DE00D24BBF1020F08BF0924156844EA0A1425F0F9052C4314601468A407BDD400BFFAE7022B1CD1012100200E91DFF858140D91119010900420DFF850140F900DA800F0A4FC022B0BD1BAF10C0F0CD140F263131360D4
S3FF080003A013685B05FCD50123B04608E0D1F82080022304E0DFF8243453F82A8000230A9391F82D405E4D042C0C9423460ED18B699BB1B8F1000F00F0EB81CB695B00B3FBF8F31B020B9300230C9303E0CB8D0B938B6913B101F11C0309E0BAF10C0F02D1504B013307E0DFF8D43303EB8A031B68AB4280F09C810C6894B14C68002C00F0BE81B3FBF4F4012C0BD0022C0BD0002C00F0C181E51E032D28D20925042404E00124002501E00825022409958D68B3FBF4FEA5B1CD68002D00F0A481BEFBF5F5012D0CD0022D0DD0002D00F0A9813446EE1E032E11D205250795042517E00024012501E004240225079411E0A51F062D80F032810A250824D7E704
S3FF0800049A063D0726062D4FF0100538BF0626079638BF08252646BEFBF5F408959C4200F23F810D69CDF818C0CDF8048095B14969002900F06D81BEFBF1F101290AD002290BD0002900F07481CD1E032D08D2052504210EE0002501210BE00425022108E00639072506294FF0100138BF062538BF0821BEFBF1F8984500F2178106F1010C0595E6450493029111D2534649464FF4C06624E000BF0010024000700040630001000024F40001B4C404FF083D00B34DAE4504D25346494640F201660FE0B04D53464946AE4502D240F2026607E0AD4D40F204660235AE4538BF40F20366AA4D4FF0020A03942E600C9CDFE804F01B03161906004FF0040A14E06A
S3FF08000594059C9C46E502079C0C2B45EA0425099C08BF4FF0060C002645EA04150A9C67E04FF0060A01E04FF0080A0B9CD946C4F3072BBBF1070F40F2C580BBF1570F80F0C6800B9C012555FA84F5019CB4FBF5F5804CA54240F2C080654580F0C28005FB0BF58A4EB54240F2C180944EB54280F0C280794CB5FBFAF5A54280F0C1800B9C9C461668E5B226F0807616600A9C1668B60101D500BFFAE7D6688D4B33400C9E760665F306160BF07F05CB4646EA052525442B440133D360136843F080731360D36843F08073D36013689B0101D400BFFAE7936843F6F3750326AB43059D43EAC523079D43EA0523099D43EA0513DD1C9560089D9368C3F381035E
S3FF0800068EB34201D000BFF8E7BCF10C0F02BF136823F00503136041770499C1600C99069A029E0429039B71460277C0F800E080F81AC046760576C0F80880436008BF0324BBF10202C47618BF0122012E827718BF4FEA48014161012D18BF4FEA430EC0F810E013B0BDE8000FF0BDA4F10C051C2D02D20B251024A1E6A4F12805382D02D20C2540249AE6A4F16005602D02D20D25802493E6C03C0F25C02C4FF4007438BF0E25099538BF4FF4807488E64D4821214D4A00F0D6FF48482121484A00F0D1FF29482621294A00F0CCFF33482021334A00F0C7FF33482121334A00F0C2FF32482A21324A00F0BDFF32482B21324A00F0B8FF31482321314A00F010
S3FF08000788B3FF32482421324A00F0AEFF31482C21314A00F0A9FF194801F072F8194801F06FF81A4801F06CF80F4801F069F811482821114A00F098FF0E482821104A00F093FF0C482821104A00F08EFFA4740008AC740008C87700085074000868740008FF083D0001B4C404BC740008CC740008F47400081C770008447700080C770008647700085477000884770008747700080148E801016CDC02FF8FD003002002406C750008AC750008BC750008E0750008F07500081C7600082C76000858760008687600088C760008816FE8139C760008C0760008D0760008FC7600088C80FFF9387500085C75000804750008287500081A48AA220223016841F02A
S3FF08000882060101601848416862F30F2141600168552221F0F00101601448D0F8001462F30F21C0F800140168012262F301010160416821F001014160816863F301018160016862F38F310160416821F080014160816863F38F318160054805490161704700BF4C10024004080048000400481C14002094770008044900F00F000A6822F0F00242EA00100860704714080048024801210160BFF34F8F70471804004803484FF480310160BFF34F8F704700BF18040048024880210160BFF34F8F70471804004803484FF400010160BFF34F8F704700BF1804004880B56F4600F000F880B56F4696B006208DF854004FF08060CDF84E0002208DF84C008DF89A
S3FF0800097C49000848109001200F9000200D900B90099001A809A9FFF72BFCFFF76FFF04F0C7F800BF00B4C40480B56F468AB00A460146684600F004F8BDF80A000AB080BDB0B502AF8EB00446029201F10800104A019003A801A901F033FDDDE903010D4A00F01CF803AD02460B46114628461A4601F05EFD9DF80C0030B9691C2046282206F001FD0EB0B0BD034806F0DBFA00BFF8770008387800084878000800B1704780B56F46104606F0CDFA80B56F468AB00A4601466846FFF7C3FF03980AB080BDD0B502AF86B0044601A80A46214600F005F803982044083006B0D0BDB0B502AF88B0044601F10800019269460F4A009002A801F0E5FCDDE9020107
S3FF08000A760D4AFFF7CEFF02AD02460B46114628461A4601F034FD9DF8080030B9691C2046142206F0B3FC08B0B0BD034806F08DFA00BFF87700085878000868780008FEB506AF0A46014601A8FFF7CBFFBDF8060000F0010006B080BD80B56F468AB00A4601466846FFF76FFFBDF818000AB080BDD4D4F0B503AF4DF804BD8EB0154608301D4A01916946009002A801F09CFCDDE90201194AFFF785FF04460E4602A82146324601F0C8FC9DF8080008BBBDF82100ADB2A8421CD902A82146324601F0BBFC9DF80800A0B9BDF81F000021CDE90211082300EBC501F56802AA2046A847C0B2082801BFDDE902010EB05DF804BBF0BD034806F02AFAF87700082C
S3FF08000B707878000888780008D0B502AF048802460B8843EA0400B0FA80F0400934B12BB148885188081AB0FA80F04009D0BD038802460020062B01BF5388042B88B2918802BF081AB0FA80F040097047F0B503AF4DF8048D0568E8070ED1A8071ED468072CD428073BD4E8064AD415F1200F5DD3D1E90540C56854E0D1E905480422D8F80C6031492046B047002856D1A8070DD52E4920460322B04710B14EE006F008FA2B4920460522B047002846D168070CD5264920460322B04710B13EE006F0F8F9244920460722B047B8BB28070ED5D8F80C6020461D490322B04710B12DE006F0E7F91D4920460622B04730BBE8060ED5D8F80C60204615490322C1
S3FF08000C6AB04710B11CE006F0D6F9154920460322B047A8B915F1210F16D9D8F80C5020460C490322A84758B9104920460822A84705E0D1E905010722CB680A49984718B101205DF8048BF0BD0020FAE700BFDC78000898780008F4780008F97800080079000806790008D4780008CC78000880B56F4688B090E87441EC466346012083E87441ADF81C006046069106F034F980B56F4600F09AF980B56F468CB0CDE9000100200690022047F65C110390059008A8C0F60001049040F63F500291C0F600006946CDE9090111460B9001A8089002A8FFF7CDFFF0B503AF2DE9000F8DB0046842F210700D464FF69C7E844247F6D610C0F600003CD341F2597874
S3FF08000D644EF2FF02A7F1430B0021CDF2B7184DF6F00941F27B4AC0F2F5520295A4FB08350BEB010C043994424FEA553303FB09451C46AEB24FEA960606FB0AF64FEA564606FB0E5530F81660ACF82360ADB230F81550ACF82550E1D8029D27311C46632C0CD822460A2A1AD330F812000239A7F14302505219E02721632CF2D9A2B241F27B43920802395A43A7F14306520C02FB0E439BB230F8133073520A2AE4D2013942F03000A7F143025054C1F127000090A7F14300002243182846012100F004F80DB0BDE8000FF0BDF0B503AF2DE9000F85B00C46C169D7F80880934611F001024FF02B0A02EB080508BF4FF4881A99464A0701D4002418E0BBF14B
S3FF08000E5E000F12D01BF0030311D094F90060002216F1410FC8BF0122012B08D094F9013013F1410FC8BF013201E00022FFE715440268B2B1CDF81090D0F80490A94520D90907CDF80C8032D490F82010A9EB05090294DFE801F06602600249464FF000095FE0D0E90556524631462346CDF800B0284600F08DF8002872D1F368284649460EE0D0E90556524631462346CDF800B0284600F07DF8002862D1F36828460499424605B0BDE8000FBDE8F040184701692346D0E905865246019130210161012190F8204080F82010314602904046CDF800B000F05DF801460120002941D1DDF810A0A9EB0500A346441C013C06D032694046302190470028F7D090
S3FF08000F5831E0F3684046039A5146984758BB0298019980F820B00161002025E009F101024FEA59014FEA5209D0E904654C1CD0F81880013C07D0D8F810202846314690470028F6D00FE0CDF800B02846029B4146524600F020F830B9D8F80C302846DDE90321984720B1012005B0BDE8000FF0BD0024A14509D0D8F8102028463146904701340028F5D0611E00E049460020494538BF0120E8E7F0B503AF4DF8048DD7F808801C460E46B2F5881F0AD033691146054698470146284619B101205DF8048BF0BD3CB1F368214642465DF8048BBDE8F040184700205DF8048BF0BD80B56F468CB08021CDE90001002047F6D42106900220C0F600010390059085
S3FF0800105208A8029101A9049040F63F50C0F60000CDE9090147F6C4110B906846089002A8C0F60001FFF72FFE80B56F4600F000F880B56F468CB0CDE90001002047F6543106900220C0F600010390059008A8029101A9049040F63F50C0F60000CDE9090111460B906846089002A8FFF70CFEF0B503AF2DE9000F87B08846D0F800C081685CEA010302D1D0E90501D0E2B1B3C66808EB020E82464FF00009C6B10025414608E0F0292CBF211DE11C0B1B01359944AE420DD0714526D00C4611F9013BB3F1FF3FF2DCD9B2E029EBD2A11CEDE741467145504612D091F90010B1F1FF3FDCBFC9B2E029B9F1000F14D0914511D218F9091011F1410F0DDC002128
S3FF0800114C0CE09146BCF1000F10D190E291465046BCF1000F0AD18AE2F1D1414600290CBF91468846BCF1000F00F081824668B9F1100F0BD2B9F1000F20D009F00301B9F1040F1ED24FF0000E002543E008F10301CDE9006021F00306CDF80890B6EB080EA9EB0E0000F0030B01D100218DE0A8EB060111F1040F4ED900216EE04FF0000E45E209F00C05B246A8F1040684464FF0000E2B4616F9040F96F9032010F1410FC8BF0EF1010E96F9010096F9024010F1410FC8BF0EF1010E14F1410FC8BF0EF1010E12F1410FC8BF0EF1010E043BE1D160465646002900F01A8218F9052012F1410FC8BF0EF1010E012900F0108208EB050393F9012012F1410FE5
S3FF08001246C8BF0EF1010E022900F0048293F9021011F1410FC8BF0EF1010EFBE108F1010A00216FF003020AEB0203043293F9034093F9065093F905C014F1410F93F90430C8BF013113F1410FC8BF01311CF1410FC8BF013115F1410FC8BF0131131DE2D198F9002012F1410FC8BF0131BEF1010F0ED098F9012012F1410FC8BF0131BEF1020F05D098F9022012F1410FC8BF01314FEA90090024BBF1000FCDF80C801AD020F00302324492F9005015F1410FC8BF0124BBF1010F0ED092F9015015F1410FC8BF0134BBF1020F05D092F9022012F1410FC8BF013404EB010E4FF0010B12E04FF0000C3FFA8CF03FFA9CF21044A9EB040903EB840614F003015E
S3FF0800134000EB00400EEB104E40F05681B9F1000F00F04F81B9F1C00F4C4628BFC0243346B9F1040FDFD36FF00F0000EB840130290BEB111007D24FF0000C1E4610F0030840F0B880D1E720F0030B4FF0000C1E46CDE90404069396E81205BBF1040B32696FEA0100B5694FEAD01040EA91106FEA04014FEAD11120F0FE3041EA9411604421F0FE34716920446FEA08044FEAD413B46B43EA9813D6F83CC023F0FE3318446FEA0A034FEAD31343EA9A1323F0FE3318446FEA02034FEAD31343EA921222F0FE32F36910446FEA01024FEAD21242EA911121F0FE31326A08446FEA05014FEAD11141EA9511756A21F0FE3108446FEA03014FEAD11141EA93113C
S3FF0800143AB36A21F0FE3108446FEA02014FEAD11141EA9211F26A21F0FE3108446FEA05014FEAD11141EA9511356B21F0FE3108446FEA03014FEAD11141EA9311736B21F0FE3106F1400608446FEA02014FEAD11141EA921121F0FE3108446FEA05014FEAD11141EA951121F0FE3108446FEA03014FEAD11141EA931121F0FE3108446FEA04014FEAD11141EA941121F0FE3108446FEA0C014FEAD11141EA9C1121F0FE3101EB000C7FF45AAF069B4FF0010BDDE9040410F003083FF41BAFD6E90002A246B168B8F1010FF4686FEA00054FEAD51545EA90106FEA020520F0FE304FEAD51545EA9212604422F0FE3210446FEA01024FEAD21242EA911222F001
S3FF08001534FE3210446FEA04024FEAD21242EA9412544622F0FE3202EB000C3FF4ECAED6E90402B8F1020FD6E906146FEA00054FEAD51545EA90106FEA020520F0FE304FEAD51545EA9212604422F0FE3210446FEA01024FEAD21242EA911222F0FE3210446FEA04024FEAD21242EA9412544622F0FE3202EB000C3FF4BEAE06F1200527CDCE43F60946EA9111C44321F0FE31E40944EA901020F0FE30544660440844D143C90941EA921121F0FE310844E943C90941EA951121F0FE3101EB000C9BE6DDE902982EE004F0FC06DDE90298012953F826006FEA00024FEAD21242EA901020F0FE3515D003EB8606022970686FEA00024FEAD21242EA901020F005
S3FF0800162EFE30054407D0B068C143C90941EA901020F0FE3005443FFA85F03FFA95F1084400EB00400EEB104EDDE9006076450DD990F82020CB46A6EB0E090021DFE802F01702111749464FF0000910E0D0E905014A46CB68414607B0BDE8000FBDE8F040184709F101024FEA59014FEA5209D0E904A44E1C8569013E06D02A692046514690470028F7D005E0EB68204641465A46984708B1012010E00026B14508D02A6920465146904701360028F6D0711E00E049460020494538BF012007B0BDE8000FF0BD80B56F4688B094460122019206AA0023CDE906010092042268466146049303930292FFF7E1FA0B46D0E900121846FFF7CFBCD0E90002D26836
S3FF080017281047F0B503AF2DE9000F8DB0032316698DF83030202308930023002ECDE90A130990069304935DD05069002800F08080D2F800A04101D2F808B0013820F078404FF000084FF0000901300292039101900AEB09014A6832B1DDE909030968DB689847002875D106EB0800036906EB8900D0E90221057F846908938DF830500B9442B1012A03D10BEBC1014A680AB1002201E00968012256F80830CDE90421022B06D04168012B06D10BEBC1014A680AB1002201E0096801224369079106920BEBC3015BF833004B6804A99847002840D1039808F1200809F108094045B8D1DDE901B227E0D06818B3C600013820F060409468D2F8009000F1010B74
S3FF080018220DF110089246002509EBC5014A682AB1DDE909030968DB689847E8B904EBC50154F835004A6841469047A8B90135083EEAD1524601E04FF0000B506883450DD212685E46DDE90901CB6852F83B1002EBCB025268984708B1012000E000200DB0BDE8000FF0BD80B56F4686B00146002001220490019247F6D83203900420C0F60002029068460092FFF715FAF0B503AF2DE900078EB003460668007A08B1012061E05C689846E069430719D40D4647F69B11914647F6A512D4E90503C0F60001C0F60002002E08BF1146DB684FF0020208BF01229847D0BB28462146C84741E076B98946D4E90501CB6847F6A6111546C0F600010222984748BB79
S3FF0800191CE0692A464946012347F6801507F83D3CA7F13D03039301ABC0F600050C900A93D4E90230D4E9009ACDE9073005ABD4F810C0084694F820E019460B956569A4698DF834E0CDF824C0CDE90154CDE9059A904708B1012008E0DDE90A010222CB6847F6A011C0F6000198474346711C1872196018460EB0BDE80007F0BDF0B503AF2DE9000F87B09146026804924FF0000B42684FF0000A80680590481C0090C9F100000290481E03920691019014E00198005D0A38B0FA80F04009039BA4EB0A02059D0699DB68287051440498984750EA0601C24640F0CE80CB4500F296800698A9EB0B0EBEF1070F584422D8D94500F08B80029900225944835CE5
S3FF08001A160A2B00F0A8808B185E1C00F08080861875780A2D00F093809D1C78D0B5780A2D00F08F80033372D0F3780A2B00F08B8004328B18E3D16AE0C11C21F0030CBCEB000120D08D1EA1F103084C1E0022835C0A2B00F08080944210D083185E780A2E6DD095420AD09E780A2E6AD0904505D0DB780A2B67D004329142E8D1AEF10802914202D91AE0AEF10802042303EB0C0656E9013583F00A34A4F1013424EA030385F00A34A4F1013424EA05052B4313F0803F03D1083108369142E9D9714526D0009B01EB0B02029E134402EB060CA9EB0102A2EB0B080022A8F1010E9E1816F8014C0A2C36D0964511D09C5C0A2C2CD00CEB0204A51C0AD0757835
S3FF08001B100A2D27D0033405D0B4780A2C24D004329045E6D1CB46CA452FD00126D0464C460598007848B1039847F6F001C0F600010422C3680498984708BB54457FF43DAF002040E7013209E0023207E0033205E0013202E0023200E003320A4402EB0B0101F1010B4945BFF43DAF805C0A287FF439AF0026D8465C46D2E7002000E0012007B0BDE8000FF0BDF0B503AF4DF8048D8568D0E90086287878B147F6F002F368C0F600020C461146404604229847214618B101205DF8048BF0BDA1F10A003269B0FA80F04009287040465DF8048BBDE8F04010470A4647F68011C0F60001FFF79CBDF0B503AF2DE9000F8FB09846034600794FF0010900284FF05E
S3FF08001C0A01007BD11D689A46CDF80480D7F80880E8695B7946072DD40C4647F69B11934647F69812D5E90506C0F60001C0F60002002B08BF1146F3684FF0020208BF03229847002858D1D5E905015A46CB6821469847002850D1D5E905010222CB6847F66C11C0F600019847002845D101982946C04742E073B90C46D5E90501CB6847F69D111646C0F6000103229847A0BBE869324621460D9047F68010C0F60000A7F141060C900123A86904966C69039002A8D5E9026807F8413CD5E900E395F820B0029408ACD5F810C00B908DF838B084E84011CDE906E3FFF75AFE68B947F66C1102A8C0F600010222FFF751FE20B9019806A9BA68904748B1012045
S3FF08001D0453461871184683F805900FB0BDE8000FF0BDDDE90B010222CB6847F6A011C0F600019847ECE780B56F468EB08DE80F00002047F67011089002200590C0F6000107900AA8069041F22370C0F60000D7F808C00D9002A80C9041F21770C0F6000004910B9068460A9004A86146FEF7B2FF80B56F468CB0008842F20F728C46904223D9020940F247335A434DF6F003CFF6FF7341F27B41D20C12FB030083B29B0859436FF06303490C11FB030047F6D613C0F6000333F8111027F8041C80B233F81000232327F8020C22E047F6D6126328C0F6000218D9810841F27B4359436FF06303490C11FB0300252380B232F8100027F8020C08460A2809D302
S3FF08001DFE023B32F81000A7F12701C85209E027230A28F5D20246013BA7F1270142F03000C854C3F127000090A7F127000121034460460022FEF7FBFF0CB080BD80B56F468AB0CDE90001002006900120039047F6B401059008A8049041F21770C0F60000C0F6000109906846089002A802911146FEF733FF80B56F4688B00146002004900120019047F6B402039006A8029041F21770C0F60000C0F60002079047F64010C0F60000009206906846FEF716FFF0B503AF4DF8048DA2B000680DF1080C00244FF0570E00F00F03224603F157050A2B644402F1800838BF03F13005102884F87F502AD3C5B2A02D0EEB15164FEA151338BF03F13006050A84F82B
S3FF08001EF87E6020D005F00F0303F157050A2B38BF03F1300584F87D50050B19D005F00F0303F157050A2B38BF03F1300584F87C50141F000CC9D102F17C00A8F103080BE0A8F1010008E0A8F10200A8F1010803E0A8F10300A8F10208812811D2C8F18102009247F6D4120CEB0003C0F60002084611460222FEF75EFF22B05DF8048BF0BDFEF7BEFEB0B502AF84B01C460546D0E90503DB6898478DF80C0044F2B5300021C0F600008DF80D1047F65651009002A8C0F60001072223460295FFF71EFE42F65901BB68C0F600010622009147F65D51C0F60001FFF711FE9DF80D109DF80C0019B138B1012004B0B0BD002818BF012004B0B0BD0298017F49074E
S3FF08001FF208D4D0E905010222CB6847F6A311C0F6000107E0D0E905010122CB6847F6A211C0F60001984704B0B0BDB0B502AF84B01C460546D0E90503DB689847BA6800218DF80C0001A88DF80D10019121460295FFF734FC01999DF80C0019B138B1012004B0B0BD002818BF012004B0B0BD029C012913D19DF80D0080B1207F40070DD4D4E905010122CB6847F6A811C0F6000198470146012009B104B0B0BDD4E905010122CB6847F60911C0F60001984704B0B0BD80B56F468CB0CDE90001002006900320039047F6A430C0F60000694602900220059008A8049040F63F50C0F60000CDE9090111460B9001A8089002A8FEF7FAFDF0B503AF4DF8048DB8
S3FF080020ECA2B00DF1080C00244FF0370E00F00F03224603F137050A2B644402F1800838BF03F13005102884F87F502AD3C5B2A02D0EEB15164FEA151338BF03F13006050A84F87E6020D005F00F0303F137050A2B38BF03F1300584F87D50050B19D005F00F0303F137050A2B38BF03F1300584F87C50141F000CC9D102F17C00A8F103080BE0A8F1010008E0A8F10200A8F1010803E0A8F10300A8F10208812811D2C8F18102009247F6D4120CEB0003C0F60002084611460222FEF743FE22B05DF8048BF0BDFEF7A3FDF0B503AF4DF804BDEAB3CB0706D00368DB07FCD011F8013B013A037001F00303022B08D1022A27D30368DB07FCD031F8023B023AFF
S3FF080021E6038032B3930800240D469C4206D00668F607FCD040CD01340660F6E722F0030302F003021944022A06D30368DB07FCD031F8023B023A0380012A0AD10268D207FCD004E0012A04D10268D207FCD00978017004F0EFBE034800220349884228BF704704C0FAE7080000204414002004480549054A904228BF704708C908C0F9E700BF00000020A48D00080400002080B56F46FEF76EFBFEE77047F0B503AF4DF804BDA2B0CA690068D30608D492061BD422B05DF804BBBDE8F040FFF768BD058805F00F0000F157020A2838BF00F130028DF88720C5F3032202F157000A2A38BF02F13000572313E0058805F00F0000F137020A2838BF00F13002CD
S3FF080022E08DF88720C5F3032202F137000A2A38BF02F1300037232C0B03EB15320A2C38BF04F13002ECB2260903EB1413A02C38BF06F13003102D02D27F2401260CE07D240326B5F5807F38BF7E2438BF0226B5F5805F24BF7C2404268DF88420084A8DF885008DF88630009602A80319084611460222FEF76BFD22B05DF804BBF0BD00BFD4790008F0B503AF2DE9000F89B001AD92460C46804628461C21FF2299464FF0FF0B04F0A7FE154E284600210122B047284608212246B047284610215246B0473889ADF8209028B1012805D1FF204FF0FE0B06E0FF2004E0D7F80CB01FFA8BF0000A8DF8230040468DF822B001A9202205F017F809B0BDE8000F22
S3FF080023DAF0BDE1230008D0B502AF4318013A0024082C05D008191F2803D81A550134F7E7D0BD014A2021FEF77EFCE07B0008B0B502AF44688C4209D900684BB1A14209D2455C013B02F8015B0131F6E70020B0BD0820B0BD024A08462146FEF764FC287C0008F0B503AF2DE9000B8CB0D568914604464FF000080E4608466A4600210423CDF80080A847C1B2082910D11048009981420BD1A7F1410031464A4600F019F817F8410C50B117F8400C00E00120C4F8008020710CB0BDE8000BF0BD37F83C0C012802D1C4E90069F4E70220EFE77F484246F0B503AF4DF8048D8AB0E8460E46044640462821154604F09CFFED683046002142462823A847014657
S3FF080024D4C2B2601C082A05D16946282204F08FFF002001E00170012020700AB004F0E3BDF0B503AF4DF8048D86B00DF104080E46044614214046154604F077FFED683046282142461423A8470146C2B2601C082A05D101A9142204F06AFF002001E001700120207006B004F0BEBDD1E901329A4209D2531C8B600968895C01298EBF01210171072100E00021016070478BB20022B2EB532F07D1DA02C0F6000102F10062C0E90121012202607047F0B503AF4DF8048D00F1040C04464FF000089CE80610DCE9005682EA060081EA050318434FF000001DD051EA020003D005EA0600013015D12568686940F0010068612846CCE9001200F012F8696921F0C0
S3FF080025CE01016961C1B2022901D1002003E000F0010020740120C4F80C805DF8048BF0BD0169C903FCD40169016111F0300FC1F3001008BF02207047D4D4084602490222FEF757BD00BF617E0008F0B503AF2DE9000B8CB00DF108090E460446202148461D46904604F0EAFE05F1006130464A462023C04770BBBDF826004FF6FE710222608088424FF6FF7108BF0122401A18BF10462080DDE906100840B0F1FF3018BF0120207202AB0FCB1A40B2F1FF3218BF01220840B0F1FF31E27118BF01210130BDF82400A17108BF0920A0800CB0BDE8000BF0BD0448A7F1190200902B210248034BFFF73BFB147D0008287F0008D87E0008F0B503AF4DF804BD0A
S3FF080026C89468002314F1030F9FBF5668A51CB54213689EBF19539560072303605DF804BBF0BDB0B502AF0C46D1E90151A94209D225686A540131A16019462246BDE8B040FFF7DABF00210160B0BDB0B502AF0C4672B1D4E9012191420FD22268012555540131A16019462246BDE8B04000F008B82146BDE8B04000F018B800210160B0BDF0B503AF4DF804BD9468002314F1050F9FBF5668251DB54213689EBF19519560072303605DF804BBF0BDD0B502AFD1E901430022A34204D20C68E2545A1C8A6007220260D0BDD4D4F0B503AF4DF804BD14468A1E92B2042A28BF0422DFE802F00334282B0C00D3E901420021A24237D21C68A154511C2FE0D3E951
S3FF080027C20162B2422ED2D3F800C004250CF80250551C09049D6029D0B54223D201210CF80510911C1A46996021465DF804BBBDE8F040FFF764BF1946022201E01946032223465DF804BBBDE8F040FFF76DBFD3E90121914206D21A680124545401319960072100E00021016004F0F6BB19465DF804BBBDE8F040FFF79BBFCA690068D30648BFFFF732BB920658BFFEF777BA0068FFF747BCD4D40068084A084B0078002808BF13464FF0060208BF0422D1E90501D1F80CC01946604700BFEC780008FE7D0008CA69D30648BFFFF70FBB920658BFFEF754BA0068FFF724BC006800F001B8D4D4E0B502AF0A46019004480549009001AB10460622FFF7B0FBA0
S3FF080028BC8CBD00BF81220008447D0008D0B502AF0068054A007852F82040044A04F0E4FBBDE8D040184700BF508D00082C8D0008D0B502AF0068054A007852F82040044A04F0D2FBBDE8D040184700BF8C8D0008748D00080068FFF72FBAD4D4DCB504AF044600208029019003D28DF80410012032E002200A4660F39F12B1F5006F07D28DF80520C02242EA91118DF8041023E0B1F5803F0DD28DF80620E02242EA1132890960F39F118DF804208DF80510032012E08DF807208A0960F39F128DF806200A0B60F39F12880C1E218DF8052061F3DF008DF804000420064B01A9042200F00BF802460B46114620461A4600F011F80020DCBDB47E0008D0B516
S3FF080029B602AF044690429EBF08462146D0BD114620461A46FEF756FB80B56F460068FFF7EDFB002080BD0A46496801290149FEF7A1BE547F00088B68002213F1050F0DD8B0B502AF4D681C1DAC429FBF8C600968C958416098BF0722BDE8B04002607047C16809B1FFF7B0BD00207047D4D4BFB506AF044601A80D46FFF797FD0198E0B1022040F6FA7265F3CA0025686969914308446861686940F4803068612846FFF7CBFD6969074A11406961C1B2022901D1002003E000F001002074012004B0B0BD00BFFDFFFEFFF0B503AF2DE9E00F00F1040B044600259A46CDE90112AB422DD00298465D019800EB0509E06829F0070838B1404505D02046FFF73E
S3FF08002AB066FD00BBE068534618B9D8E90001CBE9000109F007001BF80010FF2918BF002E0CD107280BF80060C4F80C8004D12046FFF74DFD534638B90135D2E7B142F0D002E01D4600E0534600209D4238BF0120BDE80E0FF0BDD4D4F0B503AF2DE9FE0F6821824604F079FCDAF80C01016840680844A0F1080B5FEA4B706AD1BBF1670F71D9DAF8FC0000287AD0DAE92790ABF16805AB214A4618B102F8011B0138FAE7DAF8046116EB09006DD2DAF8004101A851464A46334600F07DF89DF804000B2864D1DDE902010022914205D096423BD0A35C83540132F7E7DAE94301FDF756FFDAF8FC1080460AF1A40001EB4101890039B350F8082CAA4209D848
S3FF08002BAA50F8043C1A44934504D8026802F01A02022A02D00C390C30EDE72846682104F019FC4FF0807048F001014FF0FF32E8616FF01200C5E90521CAF81490CAE9085007B0BDE8000FF0BD194804F0E4F9164A30463146FEF77FF80121002002910E4901910590049004200D4908E0012100200291094901910590049004200949039001A8FEF754F80B4804F0C5F9094804F0C2F9044804F0BFF900BF907F000830800008D07F0008008000082080000810800008F07F0008E07F0008F0B503AF4DF804BD044608461D46164611461A46022300F00DF810B10B20314603E00121002035466170C4E90115207004F0C1B942B3F0B503AF4DF804BD00F1E0
S3FF08002CA4A404D0F8FC0002EB010C00EB40008500002D284618BF012013D054F8086C8E420CD854F8042C3244944507D8266806EA03029A4208BF16F0180202D00C3D0C34E6E75DF804BBF0BD01207047F0B503AF2DE9000F00F19C01D0F8FC0000224FF0805C4FF03C0E00EB40004FEA80081D4881461D488346B8F1000F31D070C906F00800CA46144344F01004C9F80040F407A8F10C084FF0007408BF4FF08074B3070CEA866348BF4FF0407443EA00432344F4064FF4802458BF4FF44034002818BF4FF4803418195B4680EA0B00B5FA85F30132AEEB430318430130C9F80400CAE704F035B99CED00E00000081080B56F461E49FF241E4B4FF4F0762E
S3FF08002D9ECA6842F4E022CA6000220A704A708A70CC718C72CC72D3F8105D45F01005C3F8105D1D6806EA4515203595420ED0B2F5F87F04D09E18013286F8FC43F5E70E4A4FF4F8704FF4F871FDF78BFF0C4A1A6100225A61DA6842F00702DA600522CA6708490860016A81F3098890E8F00FFFDFFEDE18ED00E004E000E0408000087F3801001C14002070466FF00C0120EA010008281BD041F21C40C2F2000001680A00EFF3098CA2E8F05F82EC108A5FEA0B0002F091F841F21C40C2F200000068B0E8F05F90EC108A8CF309887047012080F314886FF0120E7047FEDE07490860B0F86800096941B1054900F00F000A6822F0F00242EA001008607047FC
S3FF08002E981C14002014080048B0B502AF0E4C01210E4D2069D5E84F0FC5E8421F002AF9D1BFF35F8F68B9012000F014F818B108484FF0805101600020BFF35F8F28702069B0BD00F013F900BF1C1400200000002004ED00E0F0B503AF2DE9F80F60B176498A68D1F80C90131809D309F1010900258D60C1F80C9004E04FF0000EC1E015188D6000F0FBF806466E4B4FF4947B4FF000084FF0000AD646B04542D2714800EB8800D0F890400F2C00F2B08004FB0B3008F101085FEACA7110D1D0E9461211430CD0D0E9481247F2305C691A69EB0202BCEB01014FF0000191411FD3D0E920121143D9D0D0E92212691A79EB0201D3D30021CDF800E0C0E92011E9
S3FF08002F92D0F8901000F0CDF80246002818BF0222DDE90001234600F0F8F84B4B86460191BDE74FF0010AB9E701995FEACA706BD044494FF060401D229A46CDF800E0FFF7EFF840F2FF3000F044F900285AD00F2966D84FF4947001FB00A0D0E94301FDF7D8FC80463A4840F2FF3100F060F9404600F02FF9D0B389460F2953D84FF4947009FB00A000F58675D0E94301FDF756FD86B20DF1080B0024A0B2B04210D2D5E900012246FDF757FD02460B4611465846424600F0F0F99DF8080070BB0134EBE74FF4947009FB00A4204600F032FAD4E94301FDF726FD10B1204603F0D2FF04F026F810B3102906D31B4A25E004F01FF8F0B110291FD24FF49470B3
S3FF0800308C01FB00A0012100F04FF8DDE900E1704605B0BDE8000FF0BD164A204603F08EFF104803F087FF094A09E00B4A4846F5E70B4803F07FFF0D4803F07CFF0A4A0846ECE700BF1C140020748A0008948A0008080000205C130020E48A0008B48A0008A48A0008F48A0008D48A0008C48A000888120020E485000880B56F460148FEF7B2FE00BF8C8300080548D0F8D000112838BF704780B56F46024A1021FDF7A7FF8812002068880008D0B502AF0446D0F808010843C4F80801B4F86C00062809D1204630F86E1F012904D839B10F49FDF70DFD18B9D4E94601084314D0204600F032F802460020012A0CD14FF6FF72C4E90210C4E900020321C4E97D
S3FF080031860400204600F041F80120D0BD0020D0BD00BFE0780008904204D102280CD1994202D103E0022803D1022A08D002207047022A02D1022019467047012801D101207047501EB0FA80F040097047B0B502AFD0E902510446B1F1FF3F0ADC012001224FF6FF7300F027F818B9D4E94601084309D0D4F8080110EA050104D04840C4F808010120B0BD0020B0BDC0F86E100622B0F86C10A0F86C20062908BF704780B56F4600F000F880B56F460148FEF71EFE00BFD4850008D0B502AF0446104380B2B0FA80F04009240408D012041FBF98B289B2081AB0FA80F018BF4009D0BDB0B502AF00F00F0182B213480B46102B0BD030F833501C460133002D75
S3FF08003280F7D000EBC40464889442F2D10DE00023994210D030F833501C460133002DF7D000EBC40464889442F2D1591E00EBC10041680120B0BD0020B0BD00BF88120020F0B503AF2DE9000F93B0054608468846FFF7C8FF002870D00F2971D84FF49470444A01FB0024EDB1D4E94301FDF7EFFBDFF804B10DF1280900261FFA80FAB0B250450FD2D4E943013246FDF7EDFB02464846294600F010F90A98594600F047F90136ECE7D4F80C110AAC204600F0ACF9324A03A8214600F0F1F93148049E00F11405304A06F17843A7F14A002946FFF763F917F8440CA8B317F8430CA8B937F8481C37F84A0C37F8463CCDE90001012117F8422C0AAC2046FEF778
S3FF0800337AF4FF03F055FE50BB2846FFF747FB40BB404600F016F9D8B910291CD21E480024164A084480F880404FF4947001FB002500F03DF9C5E94344A5F86840C5F8FC4013B003F019BE0B4A06E0174803F0FBFD0F4803F0F8FD0E4A084603F0F8FD114800E00D480090A7F11D020C482B210C4BFEF79EFC00BF5C890008080000206C8900081C8200081C140020353700088C8900085888000888120020347D0008287F0008D87E0008247D00087C890008F0B503AF2DE9800F924601F00F020D46834602EB420120489846A2F1110300EB810101330ED20E882EB301F10C064988ACB2A1423146F4D10C3E304600F044F8304611E0511C01391CD0028841
S3FF08003474A2B100F10C024088ABB298421046F4D1A2F10C09484600F031F8484603F0E6FD01208BF8010000200BE0084603F0DEFD00208BF8010004E00120CBF80880ABF804A08BF80000BDE8080FF0BD5C1300200021094AC0E92011C0E94611C0F80811C0F89010A0F81411D0F89810C2660131C0F89810FFF70EBB06000200018811B100210180704780B56F4602482421024AFEF7F4F8F487000818880008D0B502AF04882CB941800121836082800180D0BD02482421024AFEF7E1F800BF88870008E4870008F0B503AF4DF8048D02F00F03804603EB430001EB8000851C90B2A3F1110201320BD22E460C3536F8024C002CF7D034888442F4D1A5F177
S3FF0800356E0E000EE05A1C0231013A14D00B460C3133F8025C002DF7D01B888342F4D1A1F10E0085888668FFF7ACFF0020C8F80860A8F8045000E00120C8F8000003F086BD00B9704780B56F46084603F002FDF0B503AF4DF804BD00F00F01164A80B202EBC1039C1C61F00F0363B12546013335F8026C0834002EF7D02D888542F4D1A4F10A000DE0023281B11346013933F8024C0832002CF7D01B888342F4D1A2F10A00446800F02AF8002000E0012021465DF804BBF0BD00BF88120020D0B502AF0C4900220020102A0ED013460A4492F880405A1C002CF6D00F2808D801EB80040130C4F89030EEE7C1F8D000D0BD024A03F0B4FC8812002028880008A2
S3FF08003668018811B100210180704780B56F4602482421024AFEF738F8F487000818880008F0B503AF2DE9F80F80461F48204CA7F1260901EB000BA1F1200001904FF420451A484FF4801A00F11406B5F5801F18D24846314622462B46FEF7AAFF17F8200C60B117F81F0C48B937F8220C5D4500F01F002AFA00F008D00544E6E705F50065E3E70320A8F800000AE017F81E1C88F80C1057F8261CC8F800100199C8E9011005B003F072BC00BFE0FFFFF71C14002035370008B0B502AF0B88032B1EBF91E83C003CC0B0BD104603F046FCB1F1006F3CBF01207047BCB504AF0C4619440D0D802D05D8C06828B1A04203D3884201D80120BCBD044819460090CC
S3FF080037621046224603F01BFC0020BCBD00BF6C7F000841F21C40C2F200000168EFF3098CA1E8F05F81EC108A00F00DF841F21C40C2F200000068B0E8F05F90EC108A8CF309887047FEDEF0B503AF4DF804BD86B0204D2869286838B3B0F8680001221D4ED6E84F1FC6E8432F002BF9D1BFF35F8F39BBFFF746FD30B3084600F038F8102824D24FF49472154900FB021403F03CFC2046FFF740FB0020BFF35F8F3070286906B05DF804BBF0BD0121002001910D4900910D4904900390042002906846FDF75AFAFFF76EFC064803F0C9FB034A03F0CAFB1C14002000000020708000080800002060800008907F000850800008F0B503AF2DE9E00F8346FFF721
S3FF0800385C5BFCDFF894A00025DFF894900646E84604460095AE4213D00AEB8500D0F89010594508BF2C46B44208D20F292AD84FF49470424601FB009000F03CF80135E9E700254FF4947BE846AC420ED0AE4212D00AEB8500D0F89010102911D201FB0B90424600F027F80135EEE7009870B10198BDE80E0FF0BD0C4A30463146FDF712FA084A00E0054A084603F070FB07481121074AFEF7A4FA00BF88120020488600080800002038860008288600080486000818860008F0B503AF4DF804BD0D460A4906466C30144600F011F850B12168B6F86A0011B12189884203D220810120C4E9000503F06CBB00BF447B0008B0B502AF054600880C46811F18BF82
S3FF0800395601212288063AB2FA82F2520991422ED0062815D028792179884228D10A2823D8DFE800F0061406222222141E22171A0005F1080004F1080100F053F880B916E0A81CA11CBDE8B04000F013B8A068A96808E0E088E98805E0E088E988814206D160796979814202D128462146EAE70020B0BDF0B503AF4DF804BDB0F800C00426ACF1020293B2042B28BF33460A88951EACB2042C38BF2646B34208D1042B11D0032B06D0022B18D1022D04D015E0002014E0032D11D149884088401AB0FA80F040090BE0032D08D94B88418860465DF804BBBDE8F040FFF706BC01205DF804BBF0BDD0B502AF046802460B6843EA040080F0010034B12BB14868ED
S3FF08003A505168081AB0FA80F04009D0BDF0B503AF4DF8048D8AB0DFF8F080D8F81000EFF305806FF35F200090022837D00C283FD00F2848D91038019000F086F800284BD0446801210588384ED6E84F0FC6E8421F002AF9D10028BFF35F8F49D1019800F0A7F82846FFF7D6FB002843D0102946D22F484FF4947201FB02002146FFF732FB0021BFF35F8F317018B12A484FF080510160D8F810000AB003F0E7BA0121002003911C4902910690059004201A4908E0012100200391154902910690059004201349049011E00020144903F094FA144809906846134907E00020194903F08BFA0F48099001A81749089002A8FDF7CCF8FFF7E0FA10481521104AB0
S3FF08003B4AFEF776F90B4A084603F039FA00BF1C1400209C800008A4800008848000088C800008C88000083F0D0008D080000800000020308100080800002004ED00E00881000820810008F0800008F8800008F0B503AF4DF804BD00F00F01154A80B201EB410302EB83039C1CA1F1110301330BD225460C3435F8026C002EF7D02D888542F4D1A4F10E000EE00232013101390CD013460C3233F8024C002CF7D01B888342F4D1A2F10E00043000E000205DF804BBF0BD5C130020014640090022B2EB512F01BF01F01F01012202FA01F1064A04BF42F82010704780B56F46014A03F0CFF900BF4081000880E100E0014640090022B2EB512F01BF01F01F01AB
S3FF08003C44012202FA01F1064A04BF42F82010704780B56F46014A03F0B5F900BF5081000800E100E041F21C40C2F200000068EFF3098C0246A2E8F05FEFF3058101F00F0100F010F841F21C40C2F200000068B0E8F05F90EC108A8CF309887047FEDEFFF7E1BFFEDEF0B503AF2DE9000FB3B006467C488A467C4990460722834604684FF06040FEF774FAD6E94301D6E90895FCF767FE27F8E60C7548204029077BD5BAF1040F06D0BAF1050F0CD1210416D4002117E0E1061DD4E10729D1210629D40021002225E0CBF800000890E0034FF0050058BF0620A10148BF032015E0DBF810200121CBF800000220CDE90812ADF81C001CE0CBF80000DBF80C020C
S3FF08003D3E20F00100CBF80C020120CDF820908DF81C000EE0042103E0DBF80C3001220021CBF800000020CDE908238DF81D008DF81C10504D012188EC108AD5E84F0FC5E8421F002AF9D10028BFF35F8F71D137F8E60CFFF768FA00286DD00C4607A9204600F09FF8022803D02046FFF752FD0146A14263D0102974D24FF49472404801FB020403F053F92046FFF757F80020BFF35F8F287033B0BDE8000FF0BDCDE90FA00A23DBF80C000024119002253949DBF810000E9112AACDE90C1211AACDE90A1210A909912022334908910FA907910C21129003208DF8C800CDE930018DF8A8002991219101218DF888008DF8680004202F922E932D942B95CDE936
S3FF08003E382725CDE925432395CDE91F21CDE91D431B951994CDE91724CDE915531395069013A905911E490290019107A9CDE9031001A81C49FCF734FFFFF748F9154803F0A3F8002012491790022014900E4813900120169001A815900C480290A7F1E600019013A8FCF71CFF054A084603F090F828ED00E060810008BBBF0F0300000020C481000808000020FC810008751D00080C820008B4810008AD1E00083F0D000884810008A4810008F0B503AF4DF804BD8EB00F2852D80C464FF494712B4E00FB0165B5F86800ADF83400D5E94301FCF74DFD27F8120CA7F112012548CDE90B4024480A90CDE908010DA8079004200290214801900320049007A8C6
S3FF08003F3203900020059001A800F02BF9284600F032F9B5F86C006C21062808BF6E216858E86605F1700094E80E000EC00020FFF780F90C4601280DD10F2C14D84FF49470012104FB00600125FFF7DBF8002818BF022500E00125284621460EB05DF804BBF0BD024A01E0064A204603F014F85886000808000020B93F0008751D000884860008A4860008B0B502AF86B0054600780C46DFE800F006361D280F5D632E90157100681C6E49039003A82B1D009020460C2215E0D4E905010B22CB6861497FE0A81C039057480822009003AB56494CE0681C039003A800902B1D5B4920460822FDF7B3FF44E0D4E905010C22CB68554966E0681C03904D480C229A
S3FF0800402C009003AB4C4933E0281D0290D4E905010D22CB684F49984700218DF810008DF81110072245484C490394009003A802ABFDF7C9FD9DF811009DF81040002846D0D4BB0398017F49075CD4D0E905010222CB6843495BE0D4E905011222CB68394931E0281D0390354810223549009003AB2046FDF7BDFF0446204606B0B0BD681C0290D4E905010A22CB68224998478DF814000020204AA91C04948DF81500039003A8FDF7EEFB1D4A02A9FDF7EAFB03989DF8144058B174B10124DDE7D4E905010522CB681A4906B0BDE8B0401847002C18BF0124D0E7049D01280ED19DF8150058B1287F400708D4D5E905010122CB6801240B4998470028BED105
S3FF08004126D5E90501CB68084903E0D0E90501CB68144901229847B1E700BFAA7D0008A5280008ED280008A8790008097900089D280008C4780008A57D0008C9280008997D00083D280008F47A0008877D00087C7D0008707D0008BC780008637D0008567D0008A2790008A37900084A7D0008E0B502AF01464FF06040019001A8FEF71BFC8CBDF0B503AF2DE9000F97B08246B0F86800BAF8981027F8660C6FF39F2040EA8120ADF81400DAE94301CDE90101FCF7E6FBADF83400674814900DA9CDE9120105A9CDE91001A7F166000F9000200B90042008906148079003200A900FA8099007A8FFF7C4FF5D494FF060400B22FDF7CDFFDAF8FC000AF19C081D
S3FF08004220DFF86CB14FF0010A4FF00209002600EB4000800090B3039053480E905348CDF830A00FAC0B94CDF820900790CDF828A00DA802F0D9FECDE91460202013900A20CDF83480CDE91160CDF83C9007AD2846D84748480F904848089008F1040002F0BBFE46480F904648089008F1080002F0B3FE039808F10C080C38CBE741494FF060400E22FDF785FFDDE90101FCF70FFC05A94FF0000B1FFA80F902240126002504310391A8B2484533D2DDE901012A46FCF70AFCCDE905010DF13C0A33480DF11C080F902C48CDF84CB010941296CDF84480089005A807905046FFF74BFF22480E9003980D902A48CDE90BA6089407900A960DA802F078FECDE9E0
S3FF0800431A14B0202013900A20CDE911B040460F94FFF733FF0135C8E7DDE90101FCF781FB059012480E9005A80D9001200C900FA90B910221164A0792202208910A900DA802F055FE1590002013920A221490CDE911020F9107A8FFF710FF17B0BDE8000FF0BD751D0008908B0008B08B0008AD1E0008248C000895410008408C00083F0D00085C8C0008BD0B0008BB8B0008DC8B0008EC8B0008088C000802686AB1E0B502AF0430094A01900748009001AB084611460422FDF725FE8CBDD1E905010422CB68024918473D280008E4780008E8780008B0B502AF044608780D460B2801D1002003E010462946FFF76DFD15F80C2F0B2A01D102F02FBE95E82B
S3FF08004414070007C4B0BDB0B502AF0D46044611F80C0F0B2801D1002002E01046FFF756FD2A780B2A01D102F019BE95E8070007C4B0BDD0B502AF86B0044603A800F029F89DF80C000B2810D1DDE9040100228DE8070003A86946FEF7BFFA0398072811D104980221C4E9001011E09DF80F10E171BDF80D10A4F80510DDE90412C4E90212207102E040F20770A0800120206006B0D0BDF0B503AF4DF804BD04460846164611461A461D4600F055F810B10B20314603E00121002035466170C4E90115207002F0A1BDF0B503AF2DE900074FF494721D4C00FB02401FFA81FA4FF000090025D0F89880194860F39F18194800F18006B5F5945F25D03078F8B136
S3FF0800450E6019B0F86C1006291AD1B0F86E20911E89B2042928BF042104290FD0032918BF02290DD1B0F87010514509D1032144F80580C0F80490FEF764FE01E0012AF1D005F594750136D6E7BDE80007F0BD08000020FCFFFF03881200200123FEF795BBD4D4F0B503AF2DE9000FB1B082460888D1E9016B6FF01F019146012806F12804069408BF6FF0270101EB0B00A74A079008A806A9FDF74BFF089D06F12008C5B3CDE904A6B9F1000FDDF824A067D00DAE294652463046FDF772FF9DF83400002840F00981CDE901B40422DDF83BB00026DDF859900024CDF80C80A34530D9ABEB0408B8F1040F28BF904600204C450DD0DAF80CC021460D900DAA45
S3FF0800460828460423E047C0B2082840F0E4800D98042244444640E3E78C480B900CA80A900120CDF830802B900DA92A910221884A26922022279129900AA802F0C4FC26A8FFF7A4FDE1E00DA802F0CBFC9DF83400002840F0C0800020DDF85910DAF80C4004230D900DAA2846A047C0B2082840F0B2800D98DDF80C80DDE901B4B0420DAE40F0AC80CDE902480726059C0F96616A206ACDE90D0100206649FEF784FF66490220259000201296CDF804B0CDE9104BFEF779FF26A802F094FC02F0F6FC40F0B380BDF8AD004FF00209059026AC4FF000084FF0000B0598584543D0204602F080FC02F0E2FC40F09980BDF8AD00834580F09480204602F074FC00
S3FF0800470202F0D6FC40F08D80BDF8AB000021DAF80C60224628910C23CDE9261108EB00012846B047C0B208287BD1B9F1070F13D826AA09EB490307CA0DAE02F01F0246F8230006EB8300C0E90112259800F101090020CDF8949000E001203B49FEF726FF0BF1010B08F10C08B8E726A829465246FDF7BFFE02F09CFC56D1DDF8A58026A829465246FDF7B5FE9DF89800049EDDE902B9002848D1DDF8A54054B126A802F023FC02F085FC3FD1DDF89F00001B051F00E0002506F108000DA9642202F022FE08EB0B00B8F1000F08BF454608BF0120C6E91B050198C6E900901FE0DDF80C800DAE1B4802210B900CA80A900120194A26922022CDF83080CDE93E
S3FF080047FC2A60279129900AA802F0E3FB26A8FFF7C3FCDDF810A00020CAF86C0002208AF8000031B002F0E7BB084802F0CBFB094802F0C8FB044802F0C5FB00BFC8880008FC8800080C8900081C8900083C8900084C8900082C890008AD1E0008EC880008F0B503AF2DE9000F8FB03D698146984692468B4627F8525C2846FEF7F5FC60B30C46102980F0DE8071484FF4947104FB010658465146FCF7C8F80546D6E94301FCF7C3F8854230D900200B90022008906A48079001200A9004A8099066480590A7F15200049007A8FFF766FC37F8521C6348FEF7F7FC37F8525C6248002110290ED046180C46013196F88020002AF6D107A82946224600F0C7F878
S3FF080048F69DF81C00E8B140F20140A9F8000015E00220002508905048079001200B950A9004A809904E480590A7F15200049007A8FFF735FC89F80050C9F804400FB002F05DBB0120CDF8009086F88000FEF771FE07A859465246FCF784F84FF494713D4804FB0109BDF81C005146A9F86A005846FCF7A5F80621A9F86C100321002808BF0221A9F86E1058465146FCF710F8A9F8680009F58271B8680026C9F80001F868C9F8986081E8410848466821C9F810A102F030FD09F19C0041466422C9E94666C9E92066A9F81461C9F8906002F020FD58465146FCF780F80DF110081FFA80FAB0B2504516D2D9E943013246FCF781F837F8522C0546CDE90201E7
S3FF080049F00B4640462946FEF717FD9DF8100048B99DF8110058B90136E5E70099002008704C608EE7009940F20130088089E7002010490B900120079108900A900DA809900D480E9002A80D490D9007A8FCF74CF9014A204602F0C0FA9C89000808000020C4890008751D0008EC8900085C13002088120020FC8900083F0D0008048A0008000604BF0846704780B56F46104602F09FFAD4D4F0B503AF2DE9000781468A4601F00F001B49904660F00F0201EBC003FAB11D461B8813B36E88013205F108031FFA8AF4A642F3D12846FEF7D5FD02F0DCFA012089F80100002015E00D46098869B16B88013805F108011FFA8AF29342EAD00028F2D10120C9F8DF
S3FF08004AEA048004E002F0C4FA002089F8010089F80000BDE80007F0BD00BF88120020038823B94180012142600180704780B56F4602482421024AFCF7E6FD88870008E487000880B56F46ADF5167DDFF8D823DB485060DB484169B1F1FF3F0EDCDA498160DA4981604169B1F1FF3F06DCDFF814042F21DFF81024FCF7C6FD4FF0FF31DFF8A8B3C2E905014FF00209D04800254FF0010A002682F824908046C2E90715B6F5945F1BD00BEB06046A21204602F038FC04F582701221C4E92055C4E93F5AC4F89850C4F89050A4F86E90C4F86A8002F021FCC4E9465506F59476E0E776A900200022802A04D08B18885008325860F8E705AD502105F1800002F01C
S3FF08004BE40CFC76A92846802202F00BFCC94C2946D022AA46204602F004FC00200022C4F8D00039A9C02A05D08B1888500C32C3E90100F7E7C04839A9C02202F0F2FBBF494FF060401922FDF7C2FA0AF108000390B6484FF42049002514300490C44E4FF480144FF0010BB5EB195F6ED10499504632464B46C846FDF7DDFC9DF81A0090B19DF81B0078B9BDF818009DF81C1000F01F0024FA00F000EB080969B1BDF81420012AE0D11CE0BDF8180000F01F0024FA00F000EB0809D6E7022009950690AF480590CDF820B076A80790AD48779070A87690AC48404470905046FFF769FAC2E7ADF8D8B10DF5EC7BBDF8162048F000638DF8E4115946CDE97730ED
S3FF08004CDE5046ADF8DA210122FFF743FC209C002C00F0D780039958466422DDE9056502F083FB30462946DDF88480FBF74CFE02902A46504631465B46CDE900480025FFF79EFD06999DF814008C4AFFF7A2FE88E77D494FF060402222FDF73CFADFF8D8810DF5EC79754B00200021159080290ED001F10802595A00291146F7D0991851F8041C4AF82010114615980130EDE705A94846442202F048FB869800254FF494768400AC4209D059F8050010286ED200FB0680FFF70AFA0435F3E7604B002000210D90C0290FD001F10C02595A00291146F7D0991831F80A1C05AC24F8101011460D980130ECE705A94846242202F01AFB7E9800264FF003094FF039
S3FF08004DD8020B45004FF020084FF00A0A0024A54241D076A8204469900088FEF7D1FE00284FD04C4975914C4973914C49719169A97290043074900C201B90012070918DF87090CDE9198BCDE9176ACDF854B08DF850901396CDE91180CDE90FBACDF834B08DF830900B96CDE90986CDE907BACDF814B0CDF8BC9105A86E9004206B9038486A9070A8CDE96C096AA8FFF797F90234BDE72F4A4EE0DFF8A89009F19005FEF74DF9DFF8988004464FF49476D4B128680F2837D800FB0680FDF73AFE013C0435F4E7284802F090F82E4802F08DF800BF803801000020024023016745AB89EFCDFF0006006FF07F00F0B100F108014844B0F8800000280846F6D0BD
S3FF08004ED209EB0100C06FFEF7BAFC0F2814D84FF4947100FB018402F0BFF816480021BFF35F8F01702046FDF74AFF104A05E012481321124AFCF798FF0E4A02F05CF81C14002008000020881200205C130020D8820008F1820008F08C0008AD1E0008751D000811290008D08C0008A08C00087C8300086C83000800000020138300085C83000835370008B8880008A8880008988800083F0D000820000008387C0008A47C0008F0B503AF2DE9000FBDB0DFF8C0BA0446DFF8BC9ADBF81000B1F868600121D9E84F0FC9E8421F002AF9D10028BFF35F8F41F065833046FEF75BF9002801F0618388460C2C00F2BC81DFE814F00D008901270152019800A40131
S3FF08004FCCBE01710112020901E7016100DC00B8F10F0F01F27E834FF49475DFF8B01E08FB05F00C584FF6FF70210C814200F0878217A801F049FCDDE917A6BAF1020F40F06483102E81F08B834FF49470DFF87C1E06FB0010C14608FB051830F86C1F062940F0D38330F8021F012900F2CE8391B1B8F868200125B8F89810ADF85C506FF39F2242EA8121ADF85E1017A9FBF78EFD002800F0BB8309A84946324601F04AFC9DF824000C2840F0EC864FF0020A1596CDF850A0B5E3B8F10F0F01F22C834FF49470DFF8084E08FB004608FB00F0D6F80490215817A801F0F7FBDDE917A5BAF1020F40F0A381102D81F02E834FF49470C24605FB004849464046DA
S3FF080050C6FEF735F800240028C6E9004400F04084B8F86A00D046B6F86A10DFF8B09D88423CBF1595022400F02ABCB8F10F0F01F2F7824FF49471DFF8980D08FB0106D6E90354601980F00C813168CDF82080D6E9019B34A801F0BBFBDDE934A8BAF1020F40F0D281CDF800B034A801F0B3FFDDE934A0DDE93623BAF1020F40F00284DFF848BDC007DFF8489D00F0B68108984146CDE90005029417A801F08DFC9DF85C000C2840F0848518980021C6E9001000F03EBCB8F10F0F01F2B5824FF49470DFF8106D08FB00604568062D80F03B810168C146B0F89880B0F8684017A801F077FB1798002800F07483012840F078839DF86020DDE919010B2A00F0A5
S3FF080051C06C83C846BDF862409DF86130DFF8C49C1DE1B8F1100F81F08A824FF49470DFF8B84C08FB00F1DBF80820DBF80C3008FB0040625000F1800676CE0A4304BF15461446C0E901310C3070C000249AE3B8F10F0F01F26E824FF49470DFF87C4C08FB004108FB00F001F1040BB1F898A0B1F8685021589BE8400A34A801F02BFB3498002800F0EA81012840F012829DF8D400DDE9369B0B2800F02982BDF8D6209DF8D51055E3B8F1100F81F045824FF49472DFF8241C08FB0210DBF80850DBF80C6008FB02F28958002900F03581D0E901230024C168AD1A76EB030580F0158201252CE1B8F10F0F01F228824FF49472DFF8E81B08FB021008FB02F21F
S3FF080052BA40688C58002800F0AE81012840F0F681DFF8D03BC246A9E1B8F10F0F01F212824FF49470DFF8B81B08FB00142046FDF773FF012840F0998000204FF6FF72C4E90002C4E902100021C4E90400B5E0B8F10F0F01F2F9814FF49471DFF8800B08FB0104D4E90365A819C0F0AB8040F20710ADF850004FF0010AE2E2012013900020BFE1B8F10F0F01F2E1814FF49471DFF84C0B08FB010608FB01F17568415817A801F09BFADDE917A2BAF1020F40F0BF8000244146009417A82B4601F070FCDDE917A11A98BAF1020F40F02282C6E90041B060DAE2B8F10F0F01F2BA814FF49475DFF8FC4A08FB05F020586FF39F20FDF75CFF002800F030810F29A2
S3FF080053B401F2AC814FF4947208FB054001FB024100241494B1F89820B1F8681002F03F026FF39F2141EA8221016002201390AFE208208DF85C0017A94046FEF777FD04461591A5E2DDE91901CDE91501CDE913A5DFF88C9A2DE3082307228DF851304FF0010A8DF850200C220823ADF8524067E2B4F868102246B4F898004FF6FF73D5686FF39F21059241EA8024E80F29460122ADF83C400390FDF7F7FE0028049500F046810024DDE9031041EA00410598FDF7D5FE002C4FF0010118BF02210020079A159241EA000463E22168CDF82080D4E9019B34A801F004FADDE934A8BAF1020F1BD1CDF800B034A801F0FDFDDDE934A2DDE93601BAF1020F40F0FA
S3FF080054AE4F82DFF8DCB99207DFF8DC9900F189824FF0000A0120CDF854A0149000F0FBBB3799369816911590CDF85080CDF84CA0DFF8B0B9DDF8208026E2DDE91901CDE91501CDE913A2B7E2C16800250024C0E92054C0E92223C0F890101CE23046FDF7AAFE002801F002818A460F29CDF8208001F2FF804FF49471DFF870390AFB01340AFB01F1D4E9028E6FEA08002546D4F810B055F8042F595A6FEA0B0C4B1E0B2B00F25281DFE813F00C0034031703E402E402E402E402E402E4026403E7028703824298BFE64500F24F8417A82146434675460694FEF760FFDDE917A0BAF1020F40F0C984FDF767FE002800F09286069E102981F0ED804FF49470C0
S3FF080055A8DFF8EC3801FB00302A46D0E91D130791314605935B46B0F87250B0F86EA0B0F86C40B0F8708017A8FDF748FB01F056FD40F0A786DDE91801062CCDE90F0140F0F886002901F06B800021424601700120119013A80FAB5146FDF7C6F81398072801F04E80149901F052B801201390022050E0DDE9369B45E0C246DFF87C38DFF87C880025002005EB450108EB81010C390F2D11D831F80C2F0135002AF8D08A88B24204BF8A68A242EDD10893488808998847089B0120E6E7C00702D00024D0466CE10120D04623E0CDE90768359E0F2E01F255806FF39F2545EA8A20ADF8D400EB4834904FF4947006FB004834A908F16C0001F0E7F9002800F0BB
S3FF080056A22E814FF00009DDF820804FF0020A0820042136E10120139006208DF8510007208DF85000D1E1C0E92044C0F89010FDF730FD36E1DDE919011691CDE914600BE1002DCDF8208000F13981DFF8B8470DF12408DDF820B04FF4947500200690FDF708FD814600200026CA460990B14515D004EB8600D0F89010594508BFB246CA450AD20F2900F2A087DFF86C070FAA01FB0500434601F05FFB0136E7E704F19006DFF854474D464FF4947BBAF1000F11D0002D00F0EA863168102980F0EB8601FB0B400FAA434601F046FBAAF1010A013D0436EAE70998012840F03F81DDF828B017AC089A4FF494752046594601F0B7F89DF85C00DFF8FC960C28CA
S3FF0800579C00F03A81404621465A46FEF721FE9DF824000B2840F03981DDE90A23DDE90601FDF7EEFCCDE90601DFF8E0469AE7199ACDE913A1CDE9152047E10125042060F30F0440462146FDF715FDCDE914564FF0020AC846CDF84CA09FE0142900F06782152900F09A821F2900F00283202900F01183242940F08581824200F2FE82042E40F0048417A801F018FC01F02DFC40F010851998DFF85CB6DDF82080012840F22B8518987E4D0188DBF8100018B180202860BFF34F8F0BF11400FDF7E5F80446DBF8100020B14FF400002860BFF34F8F1920FDF73DFB00221591C6E9004201F0DCFB18BF032118BF0322022808BF0A46002C18BF0022149251E088
S3FF08005896DDE919014FF0020A0822042324E06FF39F2444EA8828189C0F2C00F23E87604817904FF4947004FB0060ADF8608017A96C3001F0D0F850B90A208DF85D508DF85C002046ADF85E8017A9FEF7FEFA4FF0020A082200200423C846DFF8A09513ACE050A150CDF84CA01CE06FEA0B00814553D907200121DDF820808DF851104FF0010A8DF850000C200821ADF8522013AA42F8019042F800B0CDF84CA0DFF85CB5DFF85C95BAF1020F40F09280149C1598B0E014A90DC1C5E51691CDE91420C1E5D046DFF83895F2E709A8294600F097FFDDE909A8BAF1020F6BD1B8F1100F80F0DF864FF49470DFF8301E08FB001021466C30FBF709F9002800F091
S3FF080059906C8234A8089A414600F0B2FF9DF8D0000C2840F0A88200200021DDF8208061E5D8E903104218C0F09C8040F20710ADF8D00034A93046FEF78BFA81468B466BE6CDE900803246029117A808992B4601F04DF89DF85C000C2840F04A8118980021C4E900104FF0020A149163E10698DFF8A4BD0238DDF82080DFF89C9DB0FA80F0440921E50698DFF88CBDC1B220F0FF00DDF8208025E501F031FBDFF878BD42EA0141DDE90A320DE006000500180400481C14002000000020DDE90B324FEA18215FFA88F040EA0120DDF82080CDF84CA0CDE915321490BAF1000F0CD013A817A904300A4690E83800404638C2FEF730FA0446084611E0B8F1100F41
S3FF08005A8A80F026864FF49471DFF81C3D08FB01F2DDE91454169808FB01319D5000224A60C4B1012C08D14046FDF7CDFE102806D3DFF8D02D00F0D6BD102880F0DD854FF49472DFF8E01C00FB021401F0C9FA2046FDF7CDF90020BFF35F8F89F80000DBF810003DB001F080BACDE900614A46029017A808995B4600F0BCFF9DF85C000C2840F0B38118980799C8E90010404601F07CFAC2E540F207707AE1DFF87CBC0025DDF8208040F2FF3086424FF0000040F08283D4E943012646FAF72FFFFDF78DFB002800F024820F2900F208864FF49470DFF8542C01FB0020344690F81411002900F06883B0F89810B0F8680001F03F016FF39F2040EA81205DE3D4
S3FF08005B84824200F2468117A8214643462546FEF758FCDDE917A0BAF1020F40F0C181DFF800BC0104DDF820801CBF81B28E4240F0538340F20730FFF7B6BB824200F2298117A821464346A246FEF76BFC01F058FA40F0B381DDE9180134AB002207C317A834A9FCF701FF1798DFF8B4BBDDF8208007280DD1DDF8609017A834A9FCF79DFC1798072804D19DF86040022C40F0598340F20771DFF88C9B9DE1824200F2F98017A801F016FA01F02BFA40F0A381DDE9180134AA002413C217A834A9FCF77DFC1798DFF85CBBDDF82080072840F0E9829DF86000C6E9004486F814011494F0E2002094F81511C4E900104FF0020A5BE134A817A94246FEF7B7FB25
S3FF08005C7E04E034A817A94246FEF7C8FB9DF8D0000B2808D135984FF0000A3699159001201691FFF712BC9DF8D3104FF0010A8DF85310BDF8D110ADF8511036991691359915918DF85000CDF84CA0AFE0002340F2FF30864240F0EB80DFF8601B4FF0604018220495FCF766FAD4E94301FAF75BFED4E943010694FAF756FE0790FDF7B3FADFF8A45A8046002800F092810F2900F22D854FF49470DFF8982A01FB00200799B0F89840B0F868600020FDF7CAFA6FF39F2646EA84267BE182426DD817A8214643460694FEF780FBDDE917A1BAF1020F40F01A810FA8FDF798FCBDF83C00DFF844BADDF82080032800F01A81DFF8A02A13A80FA9FDF7D3FCBDF80B
S3FF08005D784C00012840F00F8117AD13A900222846FEF7F2FB32980790002800F00481DDE917863146DDF8CC904046FAF7FFFDFDF75DFA002800F06F831029CDE90396CDF8148080F0E2844FF49470DFF8EC2901FB0024D4E94301FAF77EFEDFF8FC9986B2DFF8448A0025A8B2B04280F0BE82D4E943012A46FAF77CFE8346FDF705FF34A849465A46FDF79CFB34984146FDF7D3FB0135E8E7824298BFE64540F2CF8040F20710ADF850004FF0010ACDF84CA0DFF87CB9DDF8208084E5042E44D1DFF86CB90BF11400FCF7EBFD00214FF0020AC4E9000114913FE017A809A93246FEF7E1FA01F014F93AD1DDE91856022D18BF0125B6E40024DDF82080FFF7BB
S3FF08005E72F2BA34A817A93246FEF7CEFA9DF8D0000B2854D1DDE9359BFFF70DBC00BF1C1400200000002008000020353C0008013C00085C130020881200200422254600200021DFF8ECB8DDF82080AEE1DFF8E4B840F207304FF0010AADF85000DDF8208012E59DF85F104FF0010A8DF85310BDF85D10ADF8511019991691189915918DF850007BE409A834A94246FEF776FA9DF824000B2852D1DDE90A01DDF82080079100280FBF00240238B0FA80F04409FFF79ABA1A9A199916921591149078E7DDE9359BBDF8D2209DF8D110E6E49DF85F10BDF85D20DFF85CB842EA0141DDF8208040EA0121DDE9180214914FF0010A010E8DF85400000A1692CDF802
S3FF08005F6C4CA08DF85710ADF85500E0E401F0A5F8DFF824B8DDF8208051E1DFF81CB8DDF82080DDE91902CDE9150207E00020344650E1012506980021C0E90051CDE913A1C5E401F06DF83CE5042E37D117A81646214672465B462546FEF73FFADDE917A4BAF1020F40F07081284631464246FEF7C5FA002800F0B581DFF8BC372146324603F114009B464346FCF742FD04465020B8FBF0F0FCF774FF00221591C5E9004201F013F818BF032118BF0322022808BF0A46002C18BF0022149200E740F20730F5E640F2FF30FDF717F9012840F0828340F2FF300C46FDF7BBFA002840F07D8317A807992246FEF717FD9DF85C00002840F07683069CD4E943013D
S3FF08006066FAF79DFC00210396C4E94611012101EB9621B8F1000FCDF8148018BF01F03F08C4F89880A4F86800286928B1E8484FF480310160BFF34F8F4FF49470DFF80C170AFB001000F58679D0E94301FAF70CFDDFF8188700241FFA80FBA0B2584533D2D9E900012246FAF70CFD81B200F00F00421E00EB400308EB83039E1C0F2A0AD033460C3633F8025C0132002DF6D01B888B42F3D110E008F102030022904200F0BA821E460C3336F8025C0132002DF5D035888D42F2D1013A02EB42000799013408EB80008180C8E70598D0B103995046FEF7CFF900F0C1FFDFF864B60028DFF8609600F011830F2900F211834FF49470DFF8582601FB00200121B0
S3FF08006160FCF7E8FF804605E04FF00008DFF834B6DFF834960698D0F80C1117A8FDF784FABDF85C00032800F0D882189E0BF11405DFF8C02634A806F178432946FCF73CFA9DF8D600002800F0C8829DF8D700002840F0C3829DF8D800002840F0BE82BDF8D2100122BDF8D000BDF8D430CDE9000117AC00212046FCF7C5F800F026FF002840F0B7822846FCF716FC002840F0B382B8F1000F08D000F063FFDDF82080002800F0BA82022002E00120DDF82080069C0022049D0023226013AC08222B60606013A881500FE007210720CDE91543ADF852208DF851108DF85000FFF778B80020C4E9000514954FF0020AFFF756BB00F03AFFDFF850B5DDF820805D
S3FF0800625A1DE0FDF702F8002870D0B5F868200923B5F898002C468DF85C306FF39F2242EA8020ADF85E0017AA08461146FDF72BFE0020C5E900001490D8E7072107204FF0010A40EA0120CDE91543ADF85220CDF84CA0ADF85000FFF743BBDDE919011691CDE91440B0E540F20720A9E54846FCF7CCFF002800F0A6808846102980F05F824FF49470DFF8D01408FB001BBBF8980007905846BBF86850FDF7E7F807986FF39F25E40745EA802502D0584600F085FE40462946FEF7E3F81FFA89F0864240F09080002C40F090804FF0020A01208EE09DF85F10BDF85D2042EA014140EA0120DDE918211691CDE914026BE540F20720FEF7EEBF4FF0010A4FF465
S3FF0800635480701696CDF854A0ADF850005FE594F8141104F16800002900F0718000210125389102213591DFF89814349137953BA93691DFF89014CDE93B0134A8FDF700FF20464FF0004184F81551FCF7C9FEB4F86C0017ADDDF81480DDE9039606286CD1B4F86E00023880B2042828BF042000F00600022861D100201A49C4E90010204600F01EFE59E0002900F073810121A14601705FFA88F011914FEA1824DFE810F00B00CE00AA00E400A30000010901EA001A01C70024011098012840F227810F9800214170022011909CE040F207204FF0010AADF85000CDF84CA0FFF758B800BF180400480000FFFF0020CAE900004FF0020A0020CDF84CA014907A
S3FF0800644EFFF746B8022100253591DFF8C01334910121389537913BA93691DFF8AC13CDE93B0134A8FDF78FFE0920A4F8725084F870000320E06617ADDDF81480DDE9039640F2FF300799CDE9001905F10803029034A841463246FEF7DAF99DF8D010DDE9340431B1000600F06781DFF8E8B2012530E0DFF86C232146FEF7D3FA0F2C00F266814FF49470B64904FB0014B248006920B1AF4801210160BFF34F8FDFF8B8B2002540F2FF30C4F89850A4F868000122DBF80800DBF80C10C4E94625C4E9480120460221FCF77DFE2046FCF7F6FA204600F079FDDDF82080DFF8809239E5B24A48464946FAF7E5FBAF4A98E010980228C0F071800F9804215AE046
S3FF080065481098012840F288800F9802214170119117A80FA9079A059BFCF7D7F81798072823D110991198884280F07880002C18BF01240F990C5401303FE034A80FA909222B46FCF7AEF847E01098012864D90F98012141700220119017A80FAA0799FCF7CFF81798072800F07080199A18993692359154E01098022830D30F9803211AE0109802285DD30F9907224A7002211191DFE804F005050505050505055500109802284ED90F988470032020E01098022814D30F98052141700220119045E0109802280BD30F98062141700220119034A80FAA0799FCF794F8349834E0002041E0109802282DD30F980821417002201190072027E0109801280ED925
S3FF080066420F980A214170109803280AD90F9845801098042805D90F9804710520D0E70FA835900020349020E0614A084600F0ABFCFCF747FD864800F0A2FC7C4800F09FFC814AF3E70228B0D10020349007280CD117A80FAB49465246FCF779F81798072806D10720139011990DE01390359901E01899139030B1072805D040F20770DFF8E4903BE61021069A002014904FF0020AC2E90001FEF700BF694A16E0484A14E0354A12E03D4A10E0304A0EE0364A0CE03C4A0AE03A4A08E0344A06E03B4A04E0354A02E0334A00E02D4A4046AEE72C4AABE7294A2846A9E75A4800F050FC394A5046A3E7304A00E0364A30469EE7204A20469BE7314AE8E74C4812
S3FF0800673C00F040FC3F4800F03DFC3F4800F03AFC3E4800F037FC454800E04148009013AA40482B21404BFBF7E2FA434A80E7344A7EE7384800F026FC354A79E7374800F021FC3F4A74E7234A72E727482E2100902648274B3B943BAAFBF7C9FA374AB7E7254AC8E7180400481C140020000000203485000808000020448500081485000824850008F48400080485000814840008E48400085C130020B4840008A4840008948400080484000874840008848400085484000848860008388600082886000864840008348400084484000870820008148A0008248A000890850008751D000864850008648A0008348A0008E87E0008187F0008448A0008548A74
S3FF080068360008B0820008048B0008148B00083888000848880008348B0008248B000835370008C8820008047D0008287F0008D87E0008F47C0008448B0008548B0008A082000890820008808200082484000860820008F4830008E4830008D4830008B0B502AF044608466FF39F200D46FCF7DFFC90B110291ED212484FF4947201FB0200ABB2D0F8980000F03F02B2EB932F09D10220C4E90001B0BD40F20720A08001202060B0BD084A0021A16062F39F10C4E90010B0BD024A084600F06BFB00BFF485000808000020FCFFFF03F0B503AF2DE9000F8FB00F2900F2A6804FF49478544E01FB086581460792D5E904BA05F1040EB5F898000690B5F86800DF
S3FF0800693005905FEA8A7001FB08F0AC6908949EE80C406FEA030C305A049002D04FF000080AE00C204FF00008A4FB006020B9F043824598BF4FF00108624503D90B20C9E9012306E06FEA0B0086450BD90B20C9E901EB89F80C0040F20710A9F800000FB000F02FBBB8F1000F15D007984FF49474314E00FB04684443D8F804C034591CEB0406089E0ED340F20711C9E9014CA9F80C100B2047E00B2089F80C000898C9E901A0D8E78DE8111009AC204600F04EF89DF824000C2823D1059900220698C8F814606FF39F2141EA80200A9980B2C8E9002008F10802049882E80308B8F86810B8F898006FF39F2141EA80200004411D2846FCF7F5FB404600F057
S3FF08006A2AF4FA0C2012E09DF8271009F1080289F80310BDF82510A9F8011004F10801DDF828C091E8780078C2C9F804C089F8000098E7014A084600F0B2FAD48400080800002080B56F46FCF76AFF80F0010080BDD4D4F0B503AF2DE9000F8FB0D7F810801C46D7F808909246434538BF98460E46834649451DD2CDF808B006F1010B654A0BA8594600F077F90C99B14240F2A7800E99A9EB0B00884280F0A7800B994FF494730D9A00FB0325DDF808B006FB03111AE0B14580F0978009F10105534A0BA8294600F058F90E99701B884280F090800C99494540F28F800B994FF494730D9A09FB031500FB032103A852462346FE68FDF7C4FC3B690021581ED7
S3FF08006B2441F1000144B139B104EB0A010139B14224BF3044504555D20BA829463246FCF78FF89DF80C409DF82C50DDE90C960B2CBDF82D00ADF818009DF82F008DF81A0008BF0B2D26D00B2C05D003A80B22411C07A800F044FC0B2D1FBF9DF81A008DF82A00BDF81800ADF828008BF800400BF1010007A90B2200F032FCBDF82800ABF80D009DF82A008BF80C50CBE904968BF80F0014E0244B404649463246DDE904A5FBF7F6FEA8452DD8204A43460092524600F0E4F90C20CBF804808BF800000FB000F005BA4FF001099DF80C409DF82F0000258DF82D908DF81A00BDF82D00ADF81800B0E70E4A3046FAF778F800F0EAF80C4AFAF773F8074AFAF7E9
S3FF08006C1E70F8064A4846FAF76CF80A4A40462946FAF724FA00BF288700083887000848870008588700086887000878870008E886000808870008F8860008F0B503AF2DE9FF0B15460F2A00F2928081464FF494704A4E01FB0061984605FB0064484B0193B1F89820B1F8681004F16C006FF39F2141EA8221ADF8081001A9FFF7E8FE30B100200121C9E90001C9F8080018E06069810707D1D4F818C00C22ACFB02320AB91A1811D340F20710ADF8040001A92846FDF707F901220023C9E90032C9E9020108B0BDE8000BF0BDBCF1000F2BD04FF49472D4F8FC4005FB0262034404EB4404A432A40084B152F8086C864209D852F8041C31448B4204D8116825
S3FF08006D1801F01901012911D00C3C0C32EDE7079001244FF480700694ADF8140005A92846FDF7D2F80022C9E90024CAE7C44516D908EB4802B968002400EB8200D0E90123551844F100048B420CD35CB900685B1A02241144C9E90213C9E90040B3E740F2074001E040F20750A9F804000120C9F80000A8E7014A284600F01AF9C48400080800002006000500D0B502AF86B011293FBF0E4AC1F110034FF4947401FB04243FBFC0E90021C0E9024306B0D0BD00200121019104490490039004200091114602906846F9F77CFFD07E00080800002080B56F460148FBF740F800BF18870008F0B503AF4DF804BD0D46118806466C301C46F9F7C8FE50B12168F4
S3FF08006E12B6F86A0011B12189884203D220810120C4E9000500F0F8B8D4D4F0B503AF4DF8048D8CB0D1E905540C22E6681F49D0F800802846B04708BBD8F818001C4900F10C020591CDE9031200F1080102911849CDE9000100200A90032069460990CDE9070121461448069006AA2846FAF754FC20B9114928460222B04720B101200CB05DF8048BF0BD08F10806D8F81400D8E900C14CCE0B9008A84CC02846CDE906C106AA2146FAF738FCE9E7247900083F0D0008171700080C79000830790008E0B502AF00228029019203D28DF80410012230E002220B4662F39F13B1F5006F05D28DF80530C02343EA911121E0B1F5803F0DD28DF80630E02343EA56
S3FF08006F0C1133890962F39F118DF804308DF80510032212E08DF807308B0962F39F138DF806300B0B890C62F39F131E2262F3DF0104228DF805308DF8041001A9FBF741FD00208CBD0A46496801290149FAF7E7BB008D000880B56F468AB00090002072B6059002200290094801900120049007A8039007480890684607904FF06040099009A801A9FFF7DEFFFEE700BF1C8D00082D6E0008D0B502AF0C46994201BF11462246BDE8D04000F026BABA6820461946FBF772F880B56F46FAF755FF1021F9F799BE289003208DF850000C201390002011920A221290CDE90F020D91704729465246FBF75DBABDE8000FF0BD079020461396CDF84090CDE9115A74
S3FF080070065847099003208DF858000C2070470321FCF7FBB85DF804BBF0BDD1E90548D8F80C6070472846314622462023FBF723BD4FF0020A02210122CDF84CA0002C70470690012002910390059008A804907047214643462646FDF723BA294652464346FCF753BA2046FBF740BEC4E901010B202070B0BD284651464246FDF742BD9DF85C000B2870479DF827104FF0010ABDF825207047089942464B46FFF7DABD52F82020D1E90501CB68214670479DF89800002870475DF8048BF0BD0420FCF7CFB8DDE91843BDF85E209DF85D10704700F05AB800F09FB8042A18D3B0B502AFA2F1040E012303EB9E0313F0030414D08C4603465CF8045B012C43F8C4
S3FF08007100045B15D1184661467246BEF10C0F21D208E08C46034618466146FFF7DDBFBEF10C0F17D2BDE8B04018466146FFF7D4BF4B68022C436003D1083A0831083004E08B680C3A83600C310C3003468C46BEF10C0FE7D30B68103A0360032A4B6843608B688360CB6801F11001C36000F11000F0D88C460346BDE8B04018466146FFF7ABBF0B4611461A4600F0EBB8D2B2042938BFFFF7F6BFD0B502AF4FF00133A1F1040E5343012404EB9E0414F003040AD08446012C4CF8043B0DD160467146BEF10C0F19D202E0BEF10C0F15D2BDE8D0406046FFF7D6BF022C436006D1083908308446BEF10C0F07D2F0E783600C390C308446BEF10C0FE9D31039D4
S3FF080071FAC0E90033C0E9023310300329F7D88446BDE8D0406046FFF7B7BF0022FFF7B9BFF0B503AF2DE90007102A63D3434213F0030400EB040C16D003460E46357803F8015B63450FD2757803F8015B63453EBFB57803F8015B634505D2F578043603F8015B6345EAD3A2EB040E01EB04092EF003080CEB08035FEA89713ED0B8F1010F54DB182129F0030201EAC90A4FEAC90102F108054942126801F0180655F8041C22FA0AF201FA06F422434CF8042B9C453CD22A6821FA0AF102FA06F421434CF8041B9C453FBF696822FA0AF201FA06F422433CBF4CF8042B9C4527D2AA6821FA0AF1103502FA06F421434CF8041B9C45D4D31BE00346F2B933E0BE
S3FF080072F4B8F1010F15DB4C4621684CF8041B9C450FD261684CF8041B9C453EBFA1684CF8041B9C4505D2E16810344CF8041B9C45EAD309EB08010EF00302AAB11A440E7803F8016B93420FD24E7803F8016B93423EBF8E7803F8016B934205D2CE78043103F8016B9342EAD3BDE80007F0BDD0B502AF102A35D3434213F0030E00EB0E0C0FD0034603F8011B63453FBF03F8011B634503F8011B634503D203F8011B6345F0D3A2EB0E0E2EF003020CEB0203012A13DBCAB24FF0013462434CF8042B9C450BD24CF8042B9C453CBF4CF8042B9C4503D24CF8042B9C45EFD30EF0030212B912E0034682B11A4403F8011B93420BD203F8011B93423CBF03F862
S33B080073EE011B934203D203F8011B9342EFD3D0BDFFF709BFFFF769BEFFF769BEFFF703BF70460421084202D1EFF3088002E0EFF30980FFE7FEE730
S3FF080074244D53492073656C656374656420617320504C4C20736F757263652C20627574206E6F7420656E61626C656400247400082B0000007372632F636C6F636B732E7273000000587400080D0000004A010000190000004853452073656C656374656420617320504C4C20736F757263652C20627574206E6F7420656E61626C656400787400082B000000587400080D0000004201000019000000587400080D000000680100001C000000617373657274696F6E206661696C65643A20737973636C6B203C3D2038305F3030305F3030300000587400080D0000007801000009000000617373657274696F6E206661696C65643A2070636C6B31203C3DCD
S3FF0800751E20737973636C6B000000587400080D0000009E01000009000000617373657274696F6E206661696C65643A2070636C6B32203C3D20737973636C6B000000587400080D000000B901000009000000617373657274696F6E206661696C65643A20706C6C636F6E662E6E203E3D2038696E646578206F7574206F6620626F756E64733A20746865206C656E20697320587400080D000000D60100000D000000617373657274696F6E206661696C65643A20706C6C636F6E662E6E203C3D203836000000587400080D000000D70100000D000000617373657274696F6E206661696C65643A20636C6F636B5F7370656564203E3D20345F3030305F308D
S3FF0800761830300000587400080D000000D80100000D000000617373657274696F6E206661696C65643A20636C6F636B5F7370656564203C3D2031365F3030305F30303000587400080D000000D90100000D000000617373657274696F6E206661696C65643A2076636F203E3D2036345F3030305F30303000587400080D000000DA0100000D000000617373657274696F6E206661696C65643A2076636F203C3D203333345F3030305F303030587400080D000000DB0100000D000000617373657274696F6E206661696C65643A206F75747075745F636C6F636B203C3D2038305F3030305F303030587400080D000000DC0100000D000000587400080D0007
S3FF0800771200007C0100001F000000696E7465726E616C206572726F723A20656E746572656420756E726561636861626C6520636F6465587400080D0000007E01000016000000587400080D0000009101000020000000587400080D0000009301000016000000587400080D000000A201000020000000587400080D000000A401000016000000EB010008E9010008E9010008E9010008E9010008E9010008E9010008E9010008F908000811090008210900083509000845090008A0860100400D0300801A060000350C0040420F0080841E0000093D0000127A000024F40000366E010048E801006CDC02000000000800000004000000092400082F686F6D6E
S3FF0800780C652F727573686E616E2D7265617A2F636F6E636570742D6F732F7379732F6162692F7372632F6C69622E727308780008300000009A0000004100000008780008300000009B0000001B0000000878000830000000A6000000410000000878000830000000A70000001B0000000878000830000000B2000000410000000878000830000000B30000002A000000207C200020202D4952513A2044656275674D6F6E2C204D4D4641523D01000000000000004275734572726F72496E6A6563746564524553455256454428656D7074792900524541440100FFFF536F6D654E6F6E65557365722020202057524954454558454355544544455649434542
