:020000040800F2
:10000000001A0020AD010008413900089371000872
:10001000773B0008773B0008773B000800000000B2
:10002000000000000000000000000000412D00085A
:10003000413900080000000061360008952D0008D5
:1000400041390008413900084139000841390008A8
:100050004139000841390008413900084139000898
:100060004139000841390008413900084139000888
:100070004139000841390008413900084139000878
:100080004139000841390008413900084139000868
:100090004139000841390008413900084139000858
:1000A0004139000841390008413900084139000848
:1000B0004139000841390008413900084139000838
:1000C0004139000841390008413900084139000828
:1000D0004139000841390008413900084139000818
:1000E0004139000841390008413900084139000808
:1000F00041390008413900084139000841390008F8
:1001000041390008413900084139000841390008E7
:1001100041390008413900084139000841390008D7
:1001200041390008413900084139000841390008C7
:1001300041390008413900084139000841390008B7
:1001400041390008413900084139000841390008A7
:100150004139000841390008413900084139000897
:100160004139000841390008413900084139000887
:100170004139000841390008413900084139000877
:100180004139000841390008413900084139000867
:100190004139000841390008413900084139000857
:1001A00041390008413900084139000880B56F46DF
:1001B0000B480C494FF6FF72CFF6FF72814201D017
:1001C00004C0FBE701F0C6FF01F0D0FF034801685F
:1001D00041F47001016001F0D9FF00BF88ED00E03B
:1001E00040140020001A0020F0B503AF2DE9000FE5
:1001F00093B0CE4A1368DB070AD1136843F0690352
:1002000023F09403136013689B0701D400BFFAE73F
:10021000936813F00C0F07D000239360936813F0DA
:100220000C0F01D000BFF9E791F82B304BB991F8D2
:1002300028B04FF00009BBF1020F12D091F829301D
:100240007BB9D2F8943043F00103C2F89430D2F86D
:1002500094309B0701D400BFF9E791F828B04FF024
:100260000109BBF1020F23D0936D43F080539365D6
:10027000AF4B1C6844F480741C601923BBF1000F61
:1002800008BF0523D2F890402343C2F89030D2F83B
:1002900090309B07FBD591F829304BB9D2F89030BC
:1002A00043F02003C2F89030936943F400739361E4
:1002B00091F82530022B0FD091F824409D4D002C51
:1002C00008BF05F5802515601468A403FCD51BB98B
:1002D000146844F40024146091F830A0BAF10C0FB3
:1002E00032D191F82AC0BCF1000F0BD0D2F898405F
:1002F00044F00104C2F89840D2F89840A40701D411
:1003000000BFF9E7BAF10C0F08D0BAF10B0F02BF2A
:10031000D2F8884044F04064C2F8884091F82C40FC
:10032000854EDFE804F002382233BAF10C0F3FD1DA
:10033000012100200E91DFF8A4140D91119010906E
:100340000420DFF89C141DE00D24BBF1020F08BF50
:100350000924156844EA0A1425F0F9052C431460B1
:100360001468A407BDD400BFFAE7022B1CD10121F9
:1003700000200E91DFF858140D9111901090042078
:10038000DFF850140F900DA800F032FC022B0BD1B7
:10039000BAF10C0F0CD140F26313136013685B05C4
:1003A000FCD50123B04608E0D1F82080022304E008
:1003B000DFF8243453F82A8000230A9391F82D4063
:1003C0005E4D042C0C9423460ED18B699BB1B8F181
:1003D000000F00F0EB81CB695B00B3FBF8F31B026D
:1003E0000B9300230C9303E0CB8D0B938B6913B11C
:1003F00001F11C0309E0BAF10C0F02D1504B01339B
:1004000007E0DFF8D43303EB8A031B68AB4280F0CC
:100410009C810C6894B14C68002C00F0BE81B3FB49
:10042000F4F4012C0BD0022C0BD0002C00F0C18175
:10043000E51E032D28D20925042404E0012400250B
:1004400001E00825022409958D68B3FBF4FEA5B1EF
:10045000CD68002D00F0A481BEFBF5F5012D0CD078
:10046000022D0DD0002D00F0A9813446EE1E032E82
:1004700011D205250795042517E00024012501E088
:1004800004240225079411E0A51F062D80F0328177
:100490000A250824D7E7063D0726062D4FF010054C
:1004A00038BF0626079638BF08252646BEFBF5F45A
:1004B00008959C4200F23F810D69CDF818C0CDF837
:1004C000048095B14969002900F06D81BEFBF1F10E
:1004D00001290AD002290BD0002900F07481CD1E19
:1004E000032D08D2052504210EE0002501210BE093
:1004F0000425022108E00639072506294FF01001DE
:1005000038BF062538BF0821BEFBF1F8984500F238
:10051000178106F1010C0595E6450493029111D26D
:10052000534649464FF4C06624E000BF0010024025
:1005300000700040630001000024F40001B4C40412
:10054000FF083D00B34DAE4504D25346494640F244
:1005500001660FE0B04D53464946AE4502D240F227
:10056000026607E0AD4D40F204660235AE4538BF85
:1005700040F20366AA4D4FF0020A03942E600C9CD1
:10058000DFE804F01B03161906004FF0040A14E01C
:10059000059C9C46E502079C0C2B45EA0425099C1A
:1005A00008BF4FF0060C002645EA04150A9C67E0D8
:1005B0004FF0060A01E04FF0080A0B9CD946C4F33D
:1005C000072BBBF1070F40F2C580BBF1570F80F03E
:1005D000C6800B9C012555FA84F5019CB4FBF5F50A
:1005E000804CA54240F2C080654580F0C28005FB8A
:1005F0000BF58A4EB54240F2C180944EB54280F070
:10060000C280794CB5FBFAF5A54280F0C1800B9C05
:100610009C461668E5B226F0807616600A9C16683D
:10062000B60101D500BFFAE7D6688D4B33400C9E6A
:10063000760665F306160BF07F05CB4646EA0525E0
:1006400025442B440133D360136843F08073136057
:10065000D36843F08073D36013689B0101D400BF5B
:10066000FAE7936843F6F3750326AB43059D43EA27
:10067000C523079D43EA0523099D43EA0513DD1CB5
:100680009560089D9368C3F38103B34201D000BF16
:10069000F8E7BCF10C0F02BF136823F005031360E9
:1006A00041770499C1600C99069A029E0429039B24
:1006B00071460277C0F800E080F81AC046760576E9
:1006C000C0F80880436008BF0324BBF10202C4766F
:1006D00018BF0122012E827718BF4FEA48014161FD
:1006E000012D18BF4FEA430EC0F810E013B0BDE86B
:1006F000000FF0BDA4F10C051C2D02D20B25102417
:10070000A1E6A4F12805382D02D20C2540249AE652
:10071000A4F16005602D02D20D25802493E6C03C33
:100720000F25C02C4FF4007438BF0E25099538BF33
:100730004FF4807488E64D4821214D4A00F064FF53
:1007400048482121484A00F05FFF29482621294ACC
:1007500000F05AFF33482021334A00F055FF334858
:100760002121334A00F050FF32482A21324A00F05A
:100770004BFF32482B21324A00F046FF31482321FB
:10078000314A00F041FF32482421324A00F03CFF58
:1007900031482C21314A00F037FF194801F000F8A8
:1007A000194800F0FDFF1A4800F0FAFF0F4800F06A
:1007B000F7FF11482821114A00F026FF0E48282192
:1007C000104A00F021FF0C482821104A00F01CFFBD
:1007D000287200083072000818750008D4710008EB
:1007E000EC710008FF083D0001B4C4044072000829
:1007F0005072000878720008A0740008C8740008DD
:1008000090740008E8740008D8740008087500089F
:10081000F87400080148E801016CDC02FF8FD00386
:1008200000200240F0720008307300084073000896
:100830006473000874730008A0730008B0730008A4
:10084000DC730008EC73000810740008816FE81373
:100850002074000844740008547400088074000870
:100860008C80FFF9BC720008E072000888720008F2
:10087000AC72000880B56F4600F000F880B56F4696
:1008800096B006208DF854004FF08060CDF84E00F1
:1008900002208DF84C008DF8490007481090012087
:1008A0000F9000200D900B90099001A809A9FFF767
:1008B0009BFC04F0A9F800BF00B4C40480B56F46E7
:1008C0008AB00A460146684600F004F8BDF80A00FE
:1008D0000AB080BDB0B502AF8EB00446029201F1FD
:1008E0000800104A019003A801A901F033FDDDE9D9
:1008F00003010D4A00F01CF803AD02460B461146F9
:1009000028461A4601F05EFD9DF80C0030B9691CBE
:100910002046282206F037FC0EB0B0BD034806F092
:1009200009FA00BF48750008887500089875000826
:1009300000B1704780B56F46104606F0FBF980B5F0
:100940006F468AB00A4601466846FFF7C3FF039820
:100950000AB080BDD0B502AF86B0044601A80A46F1
:10096000214600F005F803982044083006B0D0BDB9
:10097000B0B502AF88B0044601F1080001926946A3
:100980000F4A009002A801F0E5FCDDE902010D4AE2
:10099000FFF7CEFF02AD02460B46114628461A4627
:1009A00001F035FD9DF8080030B9691C204614227D
:1009B00006F0E9FB08B0B0BD034806F0BBF900BF84
:1009C00048750008A8750008B8750008FEB506AFA0
:1009D0000A46014601A8FFF7CBFFBDF8060000F06C
:1009E000030006B080BD80B56F468AB00A46014656
:1009F0006846FFF76FFFBDF818000AB080BDD4D479
:100A0000F0B503AF4DF804BD8EB0154608301D4A51
:100A100001916946009002A801F09CFCDDE9020109
:100A2000194AFFF785FF04460E4602A821463246C2
:100A300001F0C8FC9DF8080008BBBDF82100ADB26C
:100A4000A8421CD902A82146324601F0BBFC9DF801
:100A50000800A0B9BDF81F000021CDE9021108234C
:100A600000EBC501F56802AA2046A847C0B20828D5
:100A700001BFDDE902010EB05DF804BBF0BD034823
:100A800006F058F948750008C8750008D8750008C0
:100A9000D0B502AF048802460B8843EA0400B0FADE
:100AA00080F0400934B12BB148885188081AB0FA57
:100AB00080F04009D0BD038802460020062B01BF0C
:100AC0005388042B88B2918802BF081AB0FA80F0CC
:100AD00040097047F0B503AF4DF8048D0568E8078D
:100AE0000ED1A8071ED468072CD428073BD4E806EB
:100AF0004AD415F1200F5DD3D1E90540C56854E013
:100B0000D1E905480422D8F80C6031492046B047A5
:100B1000002856D1A8070DD52E4920460322B047FC
:100B200010B14EE006F04BF92B4920460522B047A4
:100B3000002846D168070CD5264920460322B04735
:100B400010B13EE006F03BF9244920460722B047A9
:100B5000B8BB28070ED5D8F80C6020461D490322E3
:100B6000B04710B12DE006F02AF91D4920460622B3
:100B7000B04730BBE8060ED5D8F80C6020461549C2
:100B80000322B04710B11CE006F019F915492046C0
:100B90000322B047A8B915F1210F16D9D8F80C5087
:100BA00020460C490322A84758B91049204608227C
:100BB000A84705E0D1E905010722CB680A49984713
:100BC00018B101205DF8048BF0BD0020FAE700BFEA
:100BD0002C760008E875000844760008497600087D
:100BE0005076000856760008247600081C76000827
:100BF00080B56F4688B090E87441EC4663460120AA
:100C000083E87441ADF81C006046069106F062F876
:100C100080B56F4600F09AF980B56F468CB0CDE98B
:100C2000000100200690022047F2AC61039005907D
:100C300008A8C0F60001049040F657400291C0F6A3
:100C400000006946CDE9090111460B9001A8089002
:100C500002A8FFF7CDFFF0B503AF2DE9000F8DB06F
:100C6000046842F210700D464FF69C7E844247F2B3
:100C70002670C0F600003CD341F259784EF2FF02D4
:100C8000A7F1430B0021CDF2B7184DF6F00941F260
:100C90007B4AC0F2F5520295A4FB08350BEB010C20
:100CA000043994424FEA553303FB09451C46AEB262
:100CB0004FEA960606FB0AF64FEA564606FB0E5525
:100CC00030F81660ACF82360ADB230F81550ACF8CF
:100CD0002550E1D8029D27311C46632C0CD82246B2
:100CE0000A2A1AD330F812000239A7F143025052EF
:100CF00019E02721632CF2D9A2B241F27B4392087A
:100D000002395A43A7F14306520C02FB0E439BB231
:100D100030F8133073520A2AE4D2013942F030001D
:100D2000A7F143025054C1F127000090A7F14300FE
:100D3000002243182846012100F004F80DB0BDE858
:100D4000000FF0BDF0B503AF2DE9000F85B00C46E4
:100D5000C169D7F80880934611F001024FF02B0AC1
:100D600002EB080508BF4FF4881A99464A0701D4D8
:100D7000002418E0BBF1000F12D01BF0030311D0C8
:100D800094F90060002216F1410FC8BF0122012B27
:100D900008D094F9013013F1410FC8BF013201E0CE
:100DA0000022FFE715440268B2B1CDF81090D0F8E8
:100DB0000490A94520D90907CDF80C8032D490F8C9
:100DC0002010A9EB05090294DFE801F06602600239
:100DD00049464FF000095FE0D0E9055652463146DA
:100DE0002346CDF800B0284600F08DF8002872D1D7
:100DF000F368284649460EE0D0E90556524631468A
:100E00002346CDF800B0284600F07DF8002862D1D6
:100E1000F36828460499424605B0BDE8000FBDE8D6
:100E2000F040184701692346D0E9058652460191F2
:100E300030210161012190F8204080F820103146D6
:100E400002904046CDF800B000F05DF80146012068
:100E5000002941D1DDF810A0A9EB0500A346441CF0
:100E6000013C06D032694046302190470028F7D037
:100E700031E0F3684046039A5146984758BB0298C0
:100E8000019980F820B00161002025E009F10102FC
:100E90004FEA59014FEA5209D0E904654C1CD0F8D9
:100EA0001880013C07D0D8F81020284631469047DA
:100EB0000028F6D00FE0CDF800B02846029B41464E
:100EC000524600F020F830B9D8F80C302846DDE959
:100ED0000321984720B1012005B0BDE8000FF0BD07
:100EE0000024A14509D0D8F8102028463146904763
:100EF00001340028F5D0611E00E049460020494534
:100F000038BF0120E8E7F0B503AF4DF8048DD7F8FE
:100F100008801C460E46B2F5881F0AD03369114678
:100F2000054698470146284619B101205DF8048B13
:100F3000F0BD3CB1F368214642465DF8048BBDE844
:100F4000F040184700205DF8048BF0BD80B56F4677
:100F50008CB08021CDE90001002047F624010690E5
:100F60000220C0F600010390059008A8029101A993
:100F7000049040F65740C0F60000CDE9090147F261
:100F800014710B906846089002A8C0F60001FFF7A4
:100F90002FFE80B56F4600F000F880B56F468CB02C
:100FA000CDE90001002047F6A40106900220C0F61A
:100FB00000010390059008A8029101A9049040F651
:100FC0005740C0F60000CDE9090111460B90684674
:100FD000089002A8FFF70CFEF0B503AF2DE9000F53
:100FE00087B08846D0F800C081685CEA010302D16E
:100FF000D0E90501D0E2B1B3C66808EB020E824623
:101000004FF00009C6B10025414608E0F0292CBF89
:10101000211DE11C0B1B01359944AE420DD07145D9
:1010200026D00C4611F9013BB3F1FF3FF2DCD9B2F7
:10103000E029EBD2A11CEDE741467145504612D0A4
:1010400091F90010B1F1FF3FDCBFC9B2E029B9F15D
:10105000000F14D0914511D218F9091011F1410F68
:101060000DDC00210CE09146BCF1000F10D190E2A4
:1010700091465046BCF1000F0AD18AE2F1D14146B7
:1010800000290CBF91468846BCF1000F00F0818218
:101090004668B9F1100F0BD2B9F1000F20D009F05A
:1010A0000301B9F1040F1ED24FF0000E002543E0FA
:1010B00008F10301CDE9006021F00306CDF80890A6
:1010C000B6EB080EA9EB0E0000F0030B01D10021D6
:1010D0008DE0A8EB060111F1040F4ED900216EE05E
:1010E0004FF0000E45E209F00C05B246A8F10406E7
:1010F00084464FF0000E2B4616F9040F96F9032094
:1011000010F1410FC8BF0EF1010E96F9010096F9DA
:10111000024010F1410FC8BF0EF1010E14F1410F52
:10112000C8BF0EF1010E12F1410FC8BF0EF1010E42
:10113000043BE1D160465646002900F01A8218F9B6
:10114000052012F1410FC8BF0EF1010E012900F078
:10115000108208EB050393F9012012F1410FC8BF7B
:101160000EF1010E022900F0048293F9021011F130
:10117000410FC8BF0EF1010EFBE108F1010A002189
:101180006FF003020AEB0203043293F9034093F970
:10119000065093F905C014F1410F93F90430C8BF0C
:1011A000013113F1410FC8BF01311CF1410FC8BF1C
:1011B000013115F1410FC8BF0131131DE2D198F97A
:1011C000002012F1410FC8BF0131BEF1010F0ED056
:1011D00098F9012012F1410FC8BF0131BEF1020F91
:1011E00005D098F9022012F1410FC8BF01314FEA32
:1011F00090090024BBF1000FCDF80C801AD020F02C
:101200000302324492F9005015F1410FC8BF012486
:10121000BBF1010F0ED092F9015015F1410FC8BF7B
:101220000134BBF1020F05D092F9022012F1410FF7
:10123000C8BF013404EB010E4FF0010B12E04FF078
:10124000000C3FFA8CF03FFA9CF21044A9EB040921
:1012500003EB840614F0030100EB00400EEB104E8C
:1012600040F05681B9F1000F00F04F81B9F1C00F85
:101270004C4628BFC0243346B9F1040FDFD36FF0CA
:101280000F0000EB840130290BEB111007D24FF057
:10129000000C1E4610F0030840F0B880D1E720F0A3
:1012A000030B4FF0000C1E46CDE90404069396E8AC
:1012B0001205BBF1040B32696FEA0100B5694FEA10
:1012C000D01040EA91106FEA04014FEAD11120F0EA
:1012D000FE3041EA9411604421F0FE3471692044EB
:1012E0006FEA08044FEAD413B46B43EA9813D6F8B4
:1012F0003CC023F0FE3318446FEA0A034FEAD313CD
:1013000043EA9A1323F0FE3318446FEA02034FEACC
:10131000D31343EA921222F0FE32F36910446FEACB
:1013200001024FEAD21242EA911121F0FE31326AF3
:1013300008446FEA05014FEAD11141EA9511756A37
:1013400021F0FE3108446FEA03014FEAD11141EA6E
:101350009311B36A21F0FE3108446FEA02014FEAAB
:10136000D11141EA9211F26A21F0FE3108446FEA8C
:1013700005014FEAD11141EA9511356B21F0FE319B
:1013800008446FEA03014FEAD11141EA9311736BEC
:1013900021F0FE3106F1400608446FEA02014FEAEF
:1013A000D11141EA921121F0FE3108446FEA0501A2
:1013B0004FEAD11141EA951121F0FE3108446FEA5C
:1013C00003014FEAD11141EA931121F0FE310844A3
:1013D0006FEA04014FEAD11141EA941121F0FE3184
:1013E00008446FEA0C014FEAD11141EA9C1121F047
:1013F000FE3101EB000C7FF45AAF069B4FF0010B5E
:10140000DDE9040410F003083FF41BAFD6E9000245
:10141000A246B168B8F1010FF4686FEA00054FEA1F
:10142000D51545EA90106FEA020520F0FE304FEA2C
:10143000D51545EA9212604422F0FE3210446FEA5C
:1014400001024FEAD21242EA911222F0FE32104417
:101450006FEA04024FEAD21242EA9412544622F092
:10146000FE3202EB000C3FF4ECAED6E90402B8F118
:10147000020FD6E906146FEA00054FEAD51545EAD2
:1014800090106FEA020520F0FE304FEAD51545EACC
:101490009212604422F0FE3210446FEA01024FEAD9
:1014A000D21242EA911222F0FE3210446FEA040294
:1014B0004FEAD21242EA9412544622F0FE3202EB74
:1014C000000C3FF4BEAE06F1200527CDCE43F60951
:1014D00046EA9111C44321F0FE31E40944EA901038
:1014E00020F0FE30544660440844D143C90941EA23
:1014F000921121F0FE310844E943C90941EA9511EE
:1015000021F0FE3101EB000C9BE6DDE902982EE0B4
:1015100004F0FC06DDE90298012953F826006FEA81
:1015200000024FEAD21242EA901020F0FE3515D0A8
:1015300003EB8606022970686FEA00024FEAD212B6
:1015400042EA901020F0FE30054407D0B068C14355
:10155000C90941EA901020F0FE3005443FFA85F0B9
:101560003FFA95F1084400EB00400EEB104EDDE928
:10157000006076450DD990F82020CB46A6EB0E09E9
:101580000021DFE802F01702111749464FF0000969
:1015900010E0D0E905014A46CB68414607B0BDE8F6
:1015A000000FBDE8F040184709F101024FEA590168
:1015B0004FEA5209D0E904A44E1C8569013E06D0C9
:1015C0002A692046514690470028F7D005E0EB688D
:1015D000204641465A46984708B1012010E00026AF
:1015E000B14508D02A692046514690470136002867
:1015F000F6D0711E00E049460020494538BF012061
:1016000007B0BDE8000FF0BD80B56F4688B09446C6
:101610000122019206AA0023CDE9060100920422CC
:1016200068466146049303930292FFF7E1FA0B4682
:10163000D0E900121846FFF7CFBCD0E90002D2680B
:101640001047F0B503AF2DE9000F8DB003231669E5
:101650008DF83030202308930023002ECDE90A13A3
:101660000990069304935DD05069002800F08080B3
:10167000D2F800A04101D2F808B0013820F078403B
:101680004FF000084FF000090130029203910190E1
:101690000AEB09014A6832B1DDE909030968DB6830
:1016A0009847002875D106EB0800036906EB89000E
:1016B000D0E90221057F846908938DF830500B949E
:1016C00042B1012A03D10BEBC1014A680AB10022E1
:1016D00001E00968012256F80830CDE90421022B07
:1016E00006D04168012B06D10BEBC1014A680AB153
:1016F000002201E0096801224369079106920BEB81
:10170000C3015BF833004B6804A99847002840D117
:10171000039808F1200809F108094045B8D1DDE92E
:1017200001B227E0D06818B3C600013820F060404D
:101730009468D2F8009000F1010B0DF11008924668
:10174000002509EBC5014A682AB1DDE909030968EA
:10175000DB689847E8B904EBC50154F835004A68DE
:1017600041469047A8B90135083EEAD1524601E00A
:101770004FF0000B506883450DD212685E46DDE9DC
:101780000901CB6852F83B1002EBCB025268984734
:1017900008B1012000E000200DB0BDE8000FF0BD51
:1017A00080B56F4686B00146002001220490019268
:1017B00047F6281203900420C0F600020290684603
:1017C0000092FFF715FAF0B503AF2DE900078EB0D0
:1017D00003460668007A08B1012061E05C6898461B
:1017E000E069430719D40D4647F2EB61914647F291
:1017F000F562D4E90503C0F60001C0F60002002E30
:1018000008BF1146DB684FF0020208BF012298476B
:10181000D0BB28462146C84741E076B98946D4E97D
:101820000501CB6847F2F6611546C0F600010222B9
:10183000984748BBE0692A464946012347F2D065EC
:1018400007F83D3CA7F13D03039301ABC0F600054B
:101850000C900A93D4E90230D4E9009ACDE907301C
:1018600005ABD4F810C0084694F820E019460B9553
:101870006569A4698DF834E0CDF824C0CDE9015440
:10188000CDE9059A904708B1012008E0DDE90A0199
:101890000222CB6847F2F061C0F600019847434648
:1018A000711C1872196018460EB0BDE80007F0BD33
:1018B000F0B503AF2DE9000F87B09146026804929E
:1018C0004FF0000B42684FF0000A80680590481CFA
:1018D0000090C9F100000290481E03920691019009
:1018E00014E00198005D0A38B0FA80F04009039BCB
:1018F000A4EB0A02059D0699DB6828705144049800
:10190000984750EA0601C24640F0CE80CB4500F22F
:1019100096800698A9EB0B0EBEF1070F584422D80B
:10192000D94500F08B80029900225944835C0A2B30
:1019300000F0A8808B185E1C00F0808086187578F7
:101940000A2D00F093809D1C78D0B5780A2D00F008
:101950008F80033372D0F3780A2B00F08B8004322F
:101960008B18E3D16AE0C11C21F0030CBCEB000131
:1019700020D08D1EA1F103084C1E0022835C0A2B8F
:1019800000F08080944210D083185E780A2E6DD0CB
:1019900095420AD09E780A2E6AD0904505D0DB7811
:1019A0000A2B67D004329142E8D1AEF1080291428D
:1019B00002D91AE0AEF10802042303EB0C0656E943
:1019C000013583F00A34A4F1013424EA030385F0DD
:1019D0000A34A4F1013424EA05052B4313F0803FB7
:1019E00003D1083108369142E9D9714526D0009BD0
:1019F00001EB0B02029E134402EB060CA9EB010261
:101A0000A2EB0B080022A8F1010E9E1816F8014C5B
:101A10000A2C36D0964511D09C5C0A2C2CD00CEBAD
:101A20000204A51C0AD075780A2D27D0033405D0EE
:101A3000B4780A2C24D004329045E6D1CB46CA456E
:101A40002FD00126D0464C460598007848B103981F
:101A500047F24061C0F600010422C3680498984729
:101A600008BB54457FF43DAF002040E7013209E058
:101A7000023207E0033205E0013202E0023200E008
:101A800003320A4402EB0B0101F1010B4945BFF49B
:101A90003DAF805C0A287FF439AF0026D8465C460B
:101AA000D2E7002000E0012007B0BDE8000FF0BD44
:101AB000F0B503AF4DF8048D8568D0E9008628782D
:101AC00078B147F24062F368C0F600020C46114656
:101AD000404604229847214618B101205DF8048B46
:101AE000F0BDA1F10A003269B0FA80F04009287017
:101AF00040465DF8048BBDE8F04010470A4647F2C7
:101B0000D061C0F60001FFF79CBDF0B503AF2DE931
:101B1000000F8FB09846034600794FF00109002866
:101B20004FF001007BD11D689A46CDF80480D7F8AC
:101B30000880E8695B7946072DD40C4647F2EB61D3
:101B4000934647F2E862D5E90506C0F60001C0F603
:101B50000002002B08BF1146F3684FF0020208BFD5
:101B600003229847002858D1D5E905015A46CB6889
:101B700021469847002850D1D5E905010222CB68BB
:101B800047F2BC61C0F600019847002845D1019892
:101B90002946C04742E073B90C46D5E90501CB6838
:101BA00047F2ED611646C0F6000103229847A0BB3C
:101BB000E869324621460D9047F2D060C0F6000039
:101BC000A7F141060C900123A86904966C69039063
:101BD00002A8D5E9026807F8413CD5E900E395F889
:101BE00020B0029408ACD5F810C00B908DF838B036
:101BF00084E84011CDE906E3FFF75AFE68B947F2E1
:101C0000BC6102A8C0F600010222FFF751FE20B914
:101C1000019806A9BA68904748B101205346187147
:101C2000184683F805900FB0BDE8000FF0BDDDE960
:101C30000B010222CB6847F2F061C0F60001984721
:101C4000ECE780B56F468EB08DE80F00002047F2BC
:101C5000C061089002200590C0F6000107900AA814
:101C6000069041F23B60C0F60000D7F808C00D9026
:101C700002A80C9041F22F60C0F6000004910B9076
:101C800068460A9004A86146FEF7B2FF80B56F4629
:101C90008CB0008842F20F728C46904223D9020920
:101CA00040F247335A434DF6F003CFF6FF7341F24B
:101CB0007B41D20C12FB030083B29B0859436FF0A7
:101CC0006303490C11FB030047F22673C0F60003BF
:101CD00033F8111027F8041C80B233F810002323C6
:101CE00027F8020C22E047F226726328C0F60002B1
:101CF00018D9810841F27B4359436FF06303490CC3
:101D000011FB0300252380B232F8100027F8020CE3
:101D100008460A2809D3023B32F81000A7F1270130
:101D2000C85209E027230A28F5D20246013BA7F151
:101D3000270142F03000C854C3F127000090A7F1FA
:101D400027000121034460460022FEF7FBFF0CB090
:101D500080BD80B56F468AB0CDE9000100200690B5
:101D60000120039047F20461059008A8049041F215
:101D70002F60C0F60000C0F6000109906846089088
:101D800002A802911146FEF733FF80B56F4688B076
:101D90000146002004900120019047F20462039064
:101DA00006A8029041F22F60C0F60000C0F60002C3
:101DB000079047F29060C0F60000009206906846D7
:101DC000FEF716FFF0B503AF4DF8048DA2B0006822
:101DD0000DF1080C00244FF0570E00F00F032246BF
:101DE00003F157050A2B644402F1800838BF03F160
:101DF0003005102884F87F502AD3C5B2A02D0EEBF1
:101E000015164FEA151338BF03F13006050A84F89A
:101E10007E6020D005F00F0303F157050A2B38BF71
:101E200003F1300584F87D50050B19D005F00F0340
:101E300003F157050A2B38BF03F1300584F87C50B5
:101E4000141F000CC9D102F17C00A8F103080BE0BB
:101E5000A8F1010008E0A8F10200A8F1010803E0E0
:101E6000A8F10300A8F10208812811D2C8F181026B
:101E7000009247F224720CEB0003C0F60002084601
:101E800011460222FEF75EFF22B05DF8048BF0BD22
:101E9000FEF7BEFEB0B502AF84B01C460546D0E9E1
:101EA0000503DB6898478DF80C0044F28D20002173
:101EB000C0F600008DF80D1047F6A621009002A88C
:101EC000C0F60001072223460295FFF71EFE42F6E8
:101ED0000101BB68C0F600010622009147F6AD2162
:101EE000C0F60001FFF711FE9DF80D109DF80C00E3
:101EF00019B138B1012004B0B0BD002818BF0120CD
:101F000004B0B0BD0298017F490708D4D0E90501AB
:101F10000222CB6847F2F361C0F6000107E0D0E986
:101F200005010122CB6847F2F261C0F60001984733
:101F300004B0B0BDB0B502AF84B01C460546D0E9D0
:101F40000503DB689847BA6800218DF80C0001A8EA
:101F50008DF80D10019121460295FFF734FC01998F
:101F60009DF80C0019B138B1012004B0B0BD0028B3
:101F700018BF012004B0B0BD029C012913D19DF807
:101F80000D0080B1207F40070DD4D4E90501012266
:101F9000CB6847F2F861C0F600019847014601207E
:101FA00009B104B0B0BDD4E905010122CB6847F204
:101FB0005961C0F60001984704B0B0BD80B56F46C6
:101FC0008CB0CDE90001002006900320039047F675
:101FD000F400C0F60000694602900220059008A8AF
:101FE000049040F65740C0F60000CDE909011146C3
:101FF0000B9001A8089002A8FEF7FAFDF0B503AF18
:102000004DF8048DA2B00DF1080C00244FF0370EEE
:1020100000F00F03224603F137050A2B644402F156
:10202000800838BF03F13005102884F87F502AD388
:10203000C5B2A02D0EEB15164FEA151338BF03F1EC
:102040003006050A84F87E6020D005F00F0303F106
:1020500037050A2B38BF03F1300584F87D50050B96
:1020600019D005F00F0303F137050A2B38BF03F130
:10207000300584F87C50141F000CC9D102F17C009B
:10208000A8F103080BE0A8F1010008E0A8F10200A4
:10209000A8F1010803E0A8F10300A8F102088128D3
:1020A00011D2C8F18102009247F224720CEB0003B6
:1020B000C0F60002084611460222FEF743FE22B097
:1020C0005DF8048BF0BDFEF7A3FDF0B503AF4DF84E
:1020D00004BDEAB3CB0706D00368DB07FCD011F8D8
:1020E000013B013A037001F00303022B08D1022ADD
:1020F00027D30368DB07FCD031F8023B023A0380A8
:1021000032B3930800240D469C4206D00668F607B9
:10211000FCD040CD01340660F6E722F0030302F064
:1021200003021944022A06D30368DB07FCD031F806
:10213000023B023A0380012A0AD10268D207FCD08E
:1021400004E0012A04D10268D207FCD009780170AA
:1021500004F020BE034800220349884228BF70478C
:1021600004C0FAE708000020401400200448054994
:10217000054A904228BF704708C908C0F9E700BF68
:1021800000000020A88A00080400002080B56F46E7
:10219000FEF770FBFEE77047F0B503AF4DF804BDE6
:1021A000A2B0CA690068D30608D492061BD422B034
:1021B0005DF804BBBDE8F040FFF768BD058805F099
:1021C0000F0000F157020A2838BF00F130028DF8E5
:1021D0008720C5F3032202F157000A2A38BF02F113
:1021E0003000572313E0058805F00F0000F1370297
:1021F0000A2838BF00F130028DF88720C5F303228A
:1022000002F137000A2A38BF02F1300037232C0BC5
:1022100003EB15320A2C38BF04F13002ECB2260968
:1022200003EB1413A02C38BF06F13003102D02D29B
:102230007F2401260CE07D240326B5F5807F38BF7E
:102240007E2438BF0226B5F5805F24BF7C24042697
:102250008DF88420084A8DF885008DF88630009628
:1022600002A80319084611460222FEF76BFD22B0B0
:102270005DF804BBF0BD00BF24770008F0B503AFE4
:102280002DE9000F89B001AD92460C4680462846E4
:102290001C21FF2299464FF0FF0B04F0DDFD154E87
:1022A000284600210122B047284608212246B0478F
:1022B000284610215246B0473889ADF8209028B101
:1022C000012805D1FF204FF0FE0B06E0FF2004E0BF
:1022D000D7F80CB01FFA8BF0000A8DF823004046A7
:1022E0008DF822B001A9202204F04DFF09B0BDE80D
:1022F000000FF0BDF9220008D0B502AF4318013A33
:102300000024082C05D008191F2803D81A550134B9
:10231000F7E7D0BD014A2021FEF77EFC30790008A6
:10232000B0B502AF44688C4209D900684BB1A142F4
:1023300009D2455C013B02F8015B0131F6E7002060
:10234000B0BD0820B0BD024A08462146FEF764FC35
:1023500078790008F0B503AF2DE9000B8CB0D56893
:10236000914604464FF000080E4608466A46002192
:102370000423CDF80080A847C1B2082910D1104825
:10238000009981420BD1A7F1410031464A4600F045
:1023900019F817F8410C50B117F8400C00E0012073
:1023A000C4F8008020710CB0BDE8000BF0BD37F818
:1023B0003C0C012802D1C4E90069F4E70220EFE7F0
:1023C0007F484246F0B503AF4DF8048D8AB0E84629
:1023D0000E46044640462821154604F0D2FEED681C
:1023E0003046002142462823A8470146C2B2601C5D
:1023F000082A05D16946282204F0C5FE002001E024
:102400000170012020700AB05DF8048BF0BDF0B5BA
:1024100003AF4DF8048D86B00DF104080E46044656
:1024200014214046154604F0ACFEED6830462821E4
:1024300042461423A8470146C2B2601C082A05D1AF
:1024400001A9142204F09FFE002001E00170012088
:10245000207006B05DF8048BF0BDD1E901329A42DC
:1024600009D2531C8B600968895C01298EBF012148
:102470000171072100E00021016070478BB200224A
:10248000B2EB532F07D1DA02C0F6000102F100626D
:10249000C0E90121012202607047F0B503AF4DF899
:1024A000048D00F1040C04464FF000089CE806106F
:1024B000DCE9005682EA060081EA050318434FF082
:1024C00000001DD051EA020003D005EA06000130E9
:1024D00015D12568686940F0010068612846CCE99B
:1024E000001200F012F8696921F001016961C1B2BE
:1024F000022901D1002003E000F001002074012036
:10250000C4F80C805DF8048BF0BD0169C903FCD4EC
:102510000169016111F0300FC1F3001008BF022002
:102520007047D4D4084602490222FEF755BD00BFC9
:10253000B17B0008F0B503AF2DE9000B8CB00DF1B5
:1025400008090E460446202148461D46904604F0E0
:102550001EFE05F1006130464A462023C04770BB8D
:10256000BDF826004FF6FE710222608088424FF6C9
:10257000FF7108BF0122401A18BF10462080DDE914
:1025800006100840B0F1FF3018BF0120207202ABE6
:102590000FCB1A40B2F1FF3218BF01220840B0F150
:1025A000FF31E27118BF01210130BDF82400A17193
:1025B00008BF0920A0800CB0BDE8000BF0BD0448A6
:1025C000A7F1190200902B210248034BFFF739FBBA
:1025D000647A0008787C0008287C0008F0B503AF16
:1025E0004DF804BD9468002314F1030F9FBF566893
:1025F000A51CB54213689EBF19539560072303605D
:102600005DF804BBF0BDB0B502AF0C46D1E9015195
:10261000A94209D225686A540131A16019462246AF
:10262000BDE8B040FFF7DABF00210160B0BDB0B532
:1026300002AF0C4672B1D4E9012191420FD2226857
:10264000012555540131A16019462246BDE8B0402C
:1026500000F008B82146BDE8B04000F018B80021ED
:102660000160B0BDF0B503AF4DF804BD9468002320
:1026700014F1050F9FBF5668251DB54213689EBF14
:1026800019519560072303605DF804BBF0BDD0B518
:1026900002AFD1E901430022A34204D20C68E25404
:1026A0005A1C8A6007220260D0BDD4D4F0B503AFB3
:1026B0004DF804BD14468A1E92B2042A28BF042293
:1026C000DFE802F00334282B0C00D3E9014200219B
:1026D000A24237D21C68A154511C2FE0D3E90162F9
:1026E000B2422ED2D3F800C004250CF80250551C7B
:1026F00009049D6029D0B54223D201210CF80510B0
:10270000911C1A46996021465DF804BBBDE8F04073
:10271000FFF764BF1946022201E01946032223464F
:102720005DF804BBBDE8F040FFF76DBFD3E90121C0
:10273000914206D21A68012454540131996007214C
:1027400000E00021016004F025BB19465DF804BBE0
:10275000BDE8F040FFF79BBFCA690068D30648BFD9
:10276000FFF730BB920658BFFEF775BA0068FFF757
:1027700045BCD4D4D0B502AF0068054A007852F801
:102780002040044A04F05AFBBDE8D040184700BF7F
:10279000548A0008308A0008CA69D30648BFFFF788
:1027A00011BB920658BFFEF756BA0068FFF726BC69
:1027B000006800F001B8D4D4E0B502AF0A46019039
:1027C00004480549009001AB10460622FFF7B2FB12
:1027D0008CBD00BF99210008947A0008D0B502AFE3
:1027E0000068054A007852F82040044A04F026FBAD
:1027F000BDE8D040184700BF908A0008788A0008DA
:102800000068084A084B0078002808BF13464FF0BC
:10281000060208BF0422D1E90501D1F80CC019460F
:10282000604700BF3C7600084E7B00080068FFF759
:102830002DBAD4D4DCB504AF044600208029019021
:1028400003D28DF80410012032E002200A4660F322
:102850009F12B1F5006F07D28DF80520C02242EA21
:1028600091118DF8041023E0B1F5803F0DD28DF861
:102870000620E02242EA1132890960F39F118DF8A7
:1028800004208DF80510032012E08DF807208A0936
:1028900060F39F128DF806200A0B60F39F12880CDC
:1028A0001E218DF8052061F3DF008DF8040004205F
:1028B000064B01A9042200F00BF802460B46114614
:1028C00020461A4600F011F80020DCBD047C000808
:1028D000D0B502AF044690429EBF08462146D0BD07
:1028E000114620461A46FEF754FB80B56F46006835
:1028F000FFF7EBFB002080BD0A464968012901492A
:10290000FEF79FBEA47C00088B68002213F1050F20
:102910000DD8B0B502AF4D681C1DAC429FBF8C6096
:102920000968C958416098BF0722BDE8B0400260FD
:102930007047C16809B1FFF7B0BD00207047D4D41B
:10294000BFB506AF044601A80D46FFF797FD0198F5
:10295000E0B1022040F6FA7265F3CA0025686969A1
:10296000914308446861686940F480306861284692
:10297000FFF7CBFD6969074A11406961C1B20229BD
:1029800001D1002003E000F001002074012004B018
:10299000B0BD00BFFDFFFEFFF0B503AF2DE9E00FB6
:1029A00000F1040B044600259A46CDE90112AB4222
:1029B0002DD00298465D019800EB0509E06829F0EA
:1029C000070838B1404505D02046FFF766FD00BB3B
:1029D000E068534618B9D8E90001CBE9000109F0D5
:1029E00007001BF80010FF2918BF002E0CD1072884
:1029F0000BF80060C4F80C8004D12046FFF74DFDB1
:102A0000534638B90135D2E7B142F0D002E01D4655
:102A100000E0534600209D4238BF0120BDE80E0F64
:102A2000F0BDD4D4F0B503AF2DE9FE0F6821824686
:102A300004F0ADFBDAF80C01016840680844A0F12D
:102A4000080B5FEA4B706AD1BBF1670F71D9DAF8F6
:102A5000FC0000287AD0DAE92790ABF16805AB21B9
:102A60004A4618B102F8011B0138FAE7DAF80461A6
:102A700016EB09006DD2DAF8004101A851464A462A
:102A8000334600F07DF89DF804000B2864D1DDE9A1
:102A900002010022914205D096423BD0A35C8354B0
:102AA0000132F7E7DAE94301FDF754FFDAF8FC10E9
:102AB00080460AF1A40001EB4101890039B350F8C6
:102AC000082CAA4209D850F8043C1A44934504D86B
:102AD000026802F01A02022A02D00C390C30EDE72B
:102AE0002846682104F04DFB4FF0807048F001014A
:102AF0004FF0FF32E8616FF01200C5E90521CAF816
:102B00001490CAE9085007B0BDE8000FF0BD19489D
:102B100004F010F9164A30463146FEF77DF80121DF
:102B2000002002910E4901910590049004200D4966
:102B300008E00121002002910949019105900490CB
:102B400004200949039001A8FEF752F80B4804F04D
:102B5000F1F8094804F0EEF8044804F0EBF800BF7F
:102B6000E07C0008807D0008207D0008507D000882
:102B7000707D0008607D0008407D0008307D000801
:102B8000F0B503AF4DF804BD044608461D46164691
:102B900011461A46022300F00DF810B10B20314601
:102BA00003E00121002035466170C4E90115207061
:102BB00004F0F0B842B3F0B503AF4DF804BD00F136
:102BC000A404D0F8FC0002EB010C00EB40008500EF
:102BD000002D284618BF012013D054F8086C8E42EF
:102BE0000CD854F8042C3244944507D8266806EAD9
:102BF00003029A4208BF16F0180202D00C3D0C34B2
:102C0000E6E75DF804BBF0BD01207047F0B503AF07
:102C10002DE9000F00F19C01D0F8FC0000224FF0DC
:102C2000805C4FF03C0E00EB40004FEA80081D48EE
:102C300081461D488346B8F1000F31D070C906F0B7
:102C40000800CA46144344F01004C9F80040F407D1
:102C5000A8F10C084FF0007408BF4FF08074B30760
:102C60000CEA866348BF4FF0407443EA00432344B4
:102C7000F4064FF4802458BF4FF44034002818BFA6
:102C80004FF4803418195B4680EA0B00B5FA85F3DF
:102C90000132AEEB430318430130C9F80400CAE720
:102CA00004F06DB89CED00E00000081080B56F46A0
:102CB0001E49FF241E4B4FF4F076CA6842F4E0220E
:102CC000CA6000220A704A708A70CC718C72CC7211
:102CD000D3F8105D45F01005C3F8105D1D6806EAD5
:102CE0004515203595420ED0B2F5F87F04D09E18D8
:102CF000013286F8FC43F5E70E4A4FF4F8704FF4C2
:102D0000F871FDF789FF0C4A1A6100225A61DA68EE
:102D100042F00702DA600522CA6708490860016AC2
:102D200081F3098890E8F00FFFDFFEDE18ED00E088
:102D300004E000E0907D00087F3801001C140020B2
:102D400070466FF00C0120EA010008281BD041F208
:102D50001C40C2F2000001680A00EFF3098CA2E8EF
:102D6000F05F82EC108A5FEA0B0002F071F841F22A
:102D70001C40C2F200000068B0E8F05F90EC108ADE
:102D80008CF309887047012080F314886FF0120ECD
:102D90007047FEDED0B502AF0C4C0121D4E84F0FD6
:102DA000C4E8421F002AF9D1BFF35F8F60B9012048
:102DB00000F010F818B106484FF080510160002073
:102DC000BFF35F8F2070D0BD00F010F9000000202D
:102DD00004ED00E0F0B503AF2DE9F80F60B17649DE
:102DE0008A68D1F80C90131809D309F1010900255C
:102DF0008D60C1F80C9004E04FF0000EC2E0151891
:102E00008D6000F0FBF806466E4B4FF4947B4FF05C
:102E100000084FF0000AD646B04542D2714800EB98
:102E20008800D0F890400F2C00F2B18004FB0B30EA
:102E300008F101085FEACA7110D1D0E946121143C6
:102E40000CD0D0E9481247F2305C691A69EB0202F3
:102E5000BCEB01014FF0000191411FD3D0E92012DA
:102E60001143D9D0D0E92212691A79EB0201D3D3E8
:102E70000021CDF800E0C0E92011D0F8901000F05A
:102E8000CDF80246002818BF0222DDE900012346E2
:102E900000F0F8F84B4B86460191BDE74FF0010A70
:102EA000B9E701995FEACA706CD044494FF06040BD
:102EB0001D229A46CDF800E0FFF707F940F2FF30F7
:102EC00000F044F900285BD00F2967D84FF49470C4
:102ED00001FB00A0D0E94301FDF7F0FC80463A4831
:102EE00040F2FF3100F060F9404600F02FF9D8B30E
:102EF00089460F2954D84FF4947009FB00A000F5BF
:102F00008675D0E94301FDF76EFD86B20DF1080B21
:102F10000024A0B2B04210D2D5E900012246FDF74C
:102F20006FFD02460B4611465846424600F0F0F946
:102F30009DF8080078BB0134EBE74FF4947009FB6F
:102F400000A4204600F032FAD4E94301FDF73EFD2B
:102F5000C00702D0204603F02FFF03F076FF10B326
:102F6000102906D31A4A25E003F06FFFF0B11029AB
:102F70001FD24FF4947001FB00A0012100F04EF825
:102F8000DDE900E1704605B0BDE8000FF0BD164A6E
:102F9000204603F0D3FE104803F0CCFE084A09E0B7
:102FA0000A4A4846F5E70B4803F0C4FE0C4803F014
:102FB000C1FE0A4A0846ECE71C1400207887000886
:102FC00098870008080000205C130020E8870008AC
:102FD000B8870008A8870008F8870008D887000885
:102FE000C887000888120020E882000880B56F4674
:102FF0000148FEF7CAFE00BFDC8000080548D0F893
:10300000D000112838BF704780B56F46024A1021A2
:10301000FDF7BFFF881200206C850008D0B502AF15
:103020000446D0F808010843C4F80801B4F86C005D
:10303000062809D1204630F86E1F012904D839B17D
:103040000F49FDF725FD18B9D4E94601084314D00E
:10305000204600F032F802460020012A0CD14FF63B
:10306000FF72C4E90210C4E900020321C4E90400AC
:10307000204600F041F80120D0BD0020D0BD00BFA7
:1030800030760008904204D102280CD1994202D136
:1030900003E0022803D1022A08D002207047022A46
:1030A00002D1022019467047012801D10120704742
:1030B000501EB0FA80F040097047B0B502AFD0E9B9
:1030C00002510446B1F1FF3F0ADC012001224FF614
:1030D000FF7300F027F818B9D4E94601084309D076
:1030E000D4F8080110EA050104D04840C4F80801EA
:1030F0000120B0BD0020B0BDC0F86E100622B0F8AF
:103100006C10A0F86C20062908BF704780B56F4688
:1031100000F000F880B56F460148FEF736FE00BFAC
:10312000D8820008D0B502AF0446104380B2B0FA8E
:1031300080F04009240408D012041FBF98B289B25D
:10314000081AB0FA80F018BF4009D0BDB0B502AF80
:1031500000F00F0182B213480B46102B0BD030F851
:1031600033501C460133002DF7D000EBC4046488B3
:103170009442F2D10DE00023994210D030F8335040
:103180001C460133002DF7D000EBC4046488944240
:10319000F2D1591E00EBC10041680120B0BD0020F2
:1031A000B0BD00BF88120020F0B503AF2DE9000FBD
:1031B00093B0054608468846FFF7C8FF002870D040
:1031C0000F2971D84FF49470444A01FB0024EDB1EB
:1031D000D4E94301FDF707FCDFF804B10DF128093C
:1031E00000261FFA80FAB0B250450FD2D4E943014D
:1031F0003246FDF705FC02464846294600F010F924
:103200000A98594600F048F90136ECE7D4F80C1159
:103210000AAC204600F0AEF9324A03A8214600F07D
:10322000F3F93148049E00F11005304A06F1784365
:10323000A7F14A002946FFF77DF917F8440CA8B317
:1032400017F8430CA8B937F8481C37F84A0C37F878
:10325000463CCDE90001012117F8422C0AAC20467A
:10326000FFF70CF803F0B8FD50BB2846FFF761FBF1
:1032700040BB404600F018F9D8B910291CD21E48AE
:103280000024164A084480F880404FF4947001FBF3
:10329000002500F03FF9C5E94344A5F86840C5F8AA
:1032A000FC4013B003F06BBD0B4A06E0174803F077
:1032B00041FD0F4803F03EFD0E4A084603F03EFD77
:1032C000114800E00D480090A7F11D020C482B2189
:1032D0000C4BFEF7B6FC00BF60860008080000201B
:1032E000708600086C7F00081C140020213600083E
:1032F000908600085C85000888120020847A000807
:10330000787C0008287C0008747A00088086000811
:10331000F0B503AF2DE9800F924601F00F020D4684
:10332000834602EB420120489846A2F1110300EBCC
:10333000810101330ED20E882EB301F10C064988AB
:10334000ACB2A1423146F4D10C3E304600F044F814
:10335000304611E0511C01391CD00288A2B100F1A5
:103360000C024088ABB298421046F4D1A2F10C098D
:10337000484600F031F8484603F039FD01208BF84B
:10338000010000200BE0084603F031FD00208BF81F
:10339000010004E00120CBF80880ABF804A08BF812
:1033A0000000BDE8080FF0BD5C1300200021094AB1
:1033B000C0E92011C0E94611C0F80811C0F890100A
:1033C000A0F81411D0F89810C2660131C0F8981016
:1033D000FFF728BB06000200018811B1002101801F
:1033E000704780B56F4602482421024AFEF70CF967
:1033F000F88400081C850008D0B502AF04882CB9F9
:1034000041800121836082800180D0BD0248242157
:10341000024AFEF7F9F800BF8C840008E88400082F
:10342000F0B503AF4DF8048D02F00F03804603EBB7
:10343000430001EB8000851C90B2A3F11102013220
:103440000BD22E460C3536F8024C002CF7D03488BF
:103450008442F4D1A5F10E000EE05A1C0231013A6B
:1034600014D00B460C3133F8025C002DF7D01B88CA
:103470008342F4D1A1F10E0085888668FFF7ACFF86
:103480000020C8F80860A8F8045000E00120C8F83F
:1034900000005DF8048BF0BD00B9704780B56F4641
:1034A000084603F047FCD4D4F0B503AF4DF804BD93
:1034B00000F00F01164A80B202EBC1039C1C61F0C0
:1034C0000F0363B12546013335F8026C0834002E32
:1034D000F7D02D888542F4D1A4F10A000DE0023224
:1034E00081B11346013933F8024C0832002CF7D071
:1034F0001B888342F4D1A2F10A00446800F02AF844
:10350000002000E0012021465DF804BBF0BD00BFB3
:1035100088120020D0B502AF0C4900220020102AEA
:103520000ED013460A4492F880405A1C002CF6D064
:103530000F2808D801EB80040130C4F89030EEE782
:10354000C1F8D000D0BD024A03F0F8FB8812002079
:103550002C850008018811B100210180704780B5D9
:103560006F4602482421024AFEF74EF8F88400080C
:103570001C850008F0B503AF2DE9F80F80461F4801
:10358000204CA7F1260901EB000BA1F120000190CE
:103590004FF420451A484FF4801A00F11006B5F593
:1035A000801F18D24846314622462B46FEF7C2FFFE
:1035B00017F8200C60B117F81F0C48B937F8220C27
:1035C0005D4500F01F002AFA00F008D00544E6E748
:1035D00005F50065E3E70320A8F800000AE017F806
:1035E0001E1C88F80C1057F8261CC8F8001001990A
:1035F000C8E9011005B003F0C2BB00BFE0FFFFF750
:103600001C14002021360008B0B502AF0B88032B34
:103610001EBF91E83C003CC0B0BD104603F08AFBE1
:10362000B1F1006F3CBF01207047BCB504AF0C4640
:1036300019440D0D802D05D8C06828B1A04203D3D0
:10364000884201D80120BCBD0448194600901046AC
:10365000224603F05FFB0020BCBD00BFBC7C00081D
:1036600041F21C40C2F200000168EFF3098CA1E8AE
:10367000F05F81EC108A00F00DF841F21C40C2F2BC
:1036800000000068B0E8F05F90EC108A8CF30988C5
:103690007047FEDEF0B503AF4DF804BD86B01E4D99
:1036A000286820B3B0F8680001221C4ED6E84F1FEE
:1036B000C6E8432F002BF9D1BFF35F8F21BBFFF783
:1036C00045FD18B3084600F035F8102821D24FF414
:1036D0009472144900FB021403F09DFB2C6000203F
:1036E000BFF35F8F307006B05DF804BBF0BD012101
:1036F000002001910D4900910D4904900390042090
:1037000002906846FDF774FAFFF770FC064803F074
:1037100011FB034A03F012FB1C14002000000020E0
:10372000C07D000808000020B07D0008E07C000893
:10373000A07D0008F0B503AF2DE9E00F8346FFF749
:103740005DFCDFF894A00025DFF894900646E8467B
:1037500004460095AE4213D00AEB8500D0F89010D5
:10376000594508BF2C46B44208D20F292AD84FF435
:103770009470424601FB009000F03CF80135E9E707
:1037800000254FF4947BE846AC420ED0AE4212D0F6
:103790000AEB8500D0F89010102911D201FB0B9094
:1037A000424600F027F80135EEE7009870B1019825
:1037B000BDE80E0FF0BD0C4A30463146FDF72CFA3D
:1037C000084A00E0054A084603F0B8FA0748112104
:1037D000074AFEF7BEFA00BF881200204C8300089B
:1037E000080000203C8300082C83000808830008A0
:1037F0001C830008F0B503AF4DF804BD0D460A491F
:1038000006466C30144600F011F850B12168B6F845
:103810006A0011B12189884203D220810120C4E9C4
:10382000000503F0B7BA00BF94780008B0B502AF46
:10383000054600880C46811F18BF01212288063AE0
:10384000B2FA82F2520991422ED0062815D0287978
:103850002179884228D10A2823D8DFE800F006140D
:1038600006222222141E22171A0005F1080004F174
:10387000080100F053F880B916E0A81CA11CBDE8AF
:10388000B04000F013B8A068A96808E0E088E988B3
:1038900005E0E088E988814206D160796979814252
:1038A00002D128462146EAE70020B0BDF0B503AFBB
:1038B0004DF804BDB0F800C00426ACF1020293B28A
:1038C000042B28BF33460A88951EACB2042C38BF9F
:1038D0002646B34208D1042B11D0032B06D0022B6D
:1038E00018D1022D04D015E0002014E0032D11D1D1
:1038F00049884088401AB0FA80F040090BE0032D57
:1039000008D94B88418860465DF804BBBDE8F040AB
:10391000FFF708BC01205DF804BBF0BDD0B502AFD5
:10392000046802460B6843EA040080F0010034B1E9
:103930002BB148685168081AB0FA80F04009D0BD30
:10394000F0B503AF4DF804BD8AB0EFF305806FF317
:103950005F200090022835D00C283DD00F2846D992
:103960001038019000F082F8002849D04468012105
:103970000588364ED6E84F0FC6E8421F002AF9D117
:103980000028BFF35F8F47D1019800F0A3F82846C5
:10399000FFF7DCFB002841D0102944D22D484FF41A
:1039A000947201FB02002146FFF738FB0021BFF3B0
:1039B0005F8F317018B128484FF0805101600AB014
:1039C00003F0E8B90121002003911B490291069000
:1039D00005900420194908E00121002003911449B1
:1039E00002910690059004201249049011E00020F5
:1039F000134903F0E9F9134809906846124907E0B2
:103A00000020184903F0E0F90E48099001A8164972
:103A1000089002A8FDF7ECF8FFF7E8FA0F48152127
:103A20000F4AFEF796F90A4A084603F087F900BFE5
:103A3000EC7D0008F47D0008D47D0008DC7D0008E2
:103A4000187E0008570C0008207E000800000020A7
:103A5000807E00080800002004ED00E0587E000889
:103A6000707E0008407E0008487E0008F0B503AF75
:103A70004DF804BD00F00F01154A80B201EB41037F
:103A800002EB83039C1CA1F1110301330BD22546E9
:103A90000C3435F8026C002EF7D02D888542F4D115
:103AA000A4F10E000EE00232013101390CD01346B0
:103AB0000C3233F8024C002CF7D01B888342F4D12F
:103AC000A2F10E00043000E000205DF804BBF0BD60
:103AD0005C130020014640090022B2EB512F01BFC8
:103AE00001F01F01012202FA01F1064A04BF42F867
:103AF0002010704780B56F46014A03F01FF900BFE0
:103B0000907E000880E100E0014640090022B2EB0F
:103B1000512F01BF01F01F01012202FA01F1064AF3
:103B200004BF42F82010704780B56F46014A03F089
:103B300005F900BFA07E000800E100E041F21C4052
:103B4000C2F200000068EFF3098C0246A2E8F05FC1
:103B5000EFF3058101F00F0100F010F841F21C4075
:103B6000C2F200000068B0E8F05F90EC108A8CF3BD
:103B700009887047FEDEFFF7E1BFFEDEF0B503AF58
:103B80002DE9000FB3B006467C488A467C49904632
:103B90000722834604684FF06040FEF796FAD6E9A4
:103BA0004301D6E90895FCF789FE27F8E60C75482D
:103BB000204029077AD5BAF1040F06D0BAF1050FD3
:103BC0000CD1210416D4002117E0E1061DD4E10731
:103BD00029D1210629D40021002225E0CBF80000BC
:103BE0000890E0034FF0050058BF0620A10148BF30
:103BF000032015E0DBF810200121CBF800000220A3
:103C0000CDE90812ADF81C001CE0CBF80000DBF891
:103C10000C0220F00100CBF80C020120CDF820901E
:103C20008DF81C000EE0042103E0DBF80C300122CB
:103C30000021CBF800000020CDE908238DF81D00FD
:103C40008DF81C10504D012188EC108AD5E84F0FDB
:103C5000C5E8421F002AF9D10028BFF35F8F70D159
:103C600037F8E60CFFF772FA00286CD00C4607A96B
:103C7000204600F0A1F8022803D02046FFF75AFDA5
:103C80000146A14262D0102973D24FF49472404889
:103C900001FB020403F0BFF83E4804600020BFF3BC
:103CA0005F8F287033B0BDE8000FF0BDCDE90FA0E5
:103CB0000A23DBF80C000024119002253A49DBF8B6
:103CC00010000E9112AACDE90C1211AACDE90A1228
:103CD00010A909912022354908910FA907910C21BB
:103CE000129003208DF8C800CDE930018DF8A800AE
:103CF0002991219101218DF888008DF86800042018
:103D00002F922E932D942B95CDE92725CDE9254390
:103D10002395CDE91F21CDE91D431B951994CDE9CC
:103D20001724CDE915531395069013A90591204941
:103D30000290019107A9CDE9031001A81D49FCF7E4
:103D400057FFFFF753F9174802F0F4FF002014491A
:103D5000179002201490104813900120169001A88B
:103D600015900E480290A7F1E600019013A8FCF709
:103D70003FFF064A084602F0E1FF00BF28ED00E0E1
:103D8000B07E0008BBBF0F0300000020147F0008B6
:103D9000080000201C1400204C7F00088D1C000827
:103DA0005C7F0008047F0008C51D0008570C000850
:103DB000D47E0008F47E0008F0B503AF4DF804BDD2
:103DC0008EB00F2852D80C464FF494712B4E00FB46
:103DD0000165B5F86800ADF83400D5E94301FCF79A
:103DE0006DFD27F8120CA7F112012548CDE90B4013
:103DF00024480A90CDE908010DA8079004200290FC
:103E0000214801900320049007A80390002005900A
:103E100001A800F02BF9284600F032F9B5F86C0043
:103E20006C21062808BF6E216858E86605F170000D
:103E300094E80E000EC00020FFF788F90C46012818
:103E40000DD10F2C14D84FF49470012104FB0060A5
:103E50000125FFF7E3F8002818BF022500E001253F
:103E6000284621460EB05DF804BBF0BD024A01E0D1
:103E7000064A204602F062FF5C830008080000202A
:103E8000913E00088D1C000888830008A883000864
:103E9000B0B502AF86B0054600780C46DFE800F00A
:103EA00006361D280F5D632E90157100681C6E4943
:103EB000039003A82B1D009020460C2215E0D4E9A6
:103EC00005010B22CB6861497FE0A81C039057488D
:103ED0000822009003AB56494CE0681C039003A8ED
:103EE00000902B1D5B4920460822FDF7D3FF44E0DC
:103EF000D4E905010C22CB68554966E0681C0390A3
:103F00004D480C22009003AB4C4933E0281D029031
:103F1000D4E905010D22CB684F49984700218DF85F
:103F200010008DF81110072245484C490394009069
:103F300003A802ABFDF7E9FD9DF811009DF81040C4
:103F4000002846D0D4BB0398017F49075CD4D0E950
:103F500005010222CB6843495BE0D4E90501122246
:103F6000CB68394931E0281D039035481022354986
:103F7000009003AB2046FDF7DDFF0446204606B067
:103F8000B0BD681C0290D4E905010A22CB68224921
:103F900098478DF814000020204AA91C04948DF83D
:103FA0001500039003A8FDF70EFC1D4A02A9FDF7BA
:103FB0000AFC03989DF8144058B174B10124DDE760
:103FC000D4E905010522CB681A4906B0BDE8B04026
:103FD0001847002C18BF0124D0E7049D01280ED1FA
:103FE0009DF8150058B1287F400708D4D5E9050190
:103FF0000122CB6801240B4998470028BED1D5E99E
:104000000501CB68084903E0D0E90501CB681449F4
:1040100001229847B1E700BFFA7A0008B9270008E3
:10402000DD270008F876000859760008B127000857
:1040300014760008F57A000875270008E97A000868
:104040005927000844780008D77A0008CC7A00087D
:10405000C07A00080C760008B37A0008A67A000837
:10406000F2760008F37600089A7A0008E0B502AF0D
:1040700001464FF06040019001A8FEF73DFC8CBD69
:10408000F0B503AF2DE9000F97B08246B0F8680095
:10409000BAF8981027F8660C6FF39F2040EA812049
:1040A000ADF81400DAE94301CDE90101FCF706FCA3
:1040B000ADF83400674814900DA9CDE9120105A9A7
:1040C000CDE91001A7F166000F9000200B900420AD
:1040D00008906148079003200A900FA8099007A84C
:1040E000FFF7C4FF5D494FF060400B22FDF7EDFF85
:1040F000DAF8FC000AF19C08DFF86CB14FF0010A15
:104100004FF00209002600EB4000800090B30390BE
:1041100053480E905348CDF830A00FAC0B94CDF817
:1041200020900790CDF828A00DA802F03FFECDE921
:104130001460202013900A20CDF83480CDE911605E
:10414000CDF83C9007AD2846D84748480F904848DE
:10415000089008F1040002F015FE46480F9046480A
:10416000089008F1080002F00DFE039808F10C0811
:104170000C38CBE741494FF060400E22FDF7A5FF18
:10418000DDE90101FCF72FFC05A94FF0000B1FFA38
:1041900080F902240126002504310391A8B2484584
:1041A00033D2DDE901012A46FCF72AFCCDE90501FD
:1041B0000DF13C0A33480DF11C080F902C48CDF846
:1041C0004CB010941296CDF84480089005A8079042
:1041D0005046FFF74BFF22480E9003980D902A4857
:1041E000CDE90BA6089407900A960DA802F0DEFD13
:1041F000CDE914B0202013900A20CDE911B040463B
:104200000F94FFF733FF0135C8E7DDE90101FCF743
:10421000A1FB059012480E9005A80D9001200C906E
:104220000FA90B910221164A0792202208910A90A9
:104230000DA802F0BBFD1590002013920A221490E5
:10424000CDE911020F9107A8FFF710FF17B0BDE8E5
:10425000000FF0BD8D1C000894880008B488000889
:10426000C51D0008288900086D4000084489000821
:10427000570C000860890008D50A0008BF880008AC
:10428000E0880008F08800080C89000802686AB11C
:10429000E0B502AF0430094A01900748009001AB35
:1042A000084611460422FDF745FE8CBDD1E9050103
:1042B0000422CB68024918475927000834760008C1
:1042C00038760008B0B502AF044608780D460B28D2
:1042D00001D1002003E010462946FFF76DFD15F8D7
:1042E0000C2F0B2A01D102F087BD95E8070007C407
:1042F000B0BDB0B502AF0D46044611F80C0F0B2847
:1043000001D1002002E01046FFF756FD2A780B2A63
:1043100001D102F071BD95E8070007C4B0BDD0B56A
:1043200002AF86B0044603A800F029F89DF80C00FF
:104330000B2810D1DDE9040100228DE8070003A855
:104340006946FEF7E1FA0398072811D10498022183
:10435000C4E9001011E09DF80F10E171BDF80D10D7
:10436000A4F80510DDE90412C4E90212207102E08C
:1043700040F20770A0800120206006B0D0BDF0B5EB
:1043800003AF4DF804BD04460846164611461A46CA
:104390001D4600F055F810B10B20314603E0012115
:1043A000002035466170C4E90115207002F0F2BCAE
:1043B000F0B503AF2DE900074FF494721D4C00FBDC
:1043C00002401FFA81FA4FF000090025D0F89880CA
:1043D000194860F39F18194800F18006B5F5945FFD
:1043E00025D03078F8B16019B0F86C1006291AD1D0
:1043F000B0F86E20911E89B2042928BF0421042937
:104400000FD0032918BF02290DD1B0F87010514503
:1044100009D1032144F80580C0F80490FEF76CFE32
:1044200001E0012AF1D005F594750136D6E7BDE823
:104430000007F0BD08000020FCFFFF0388120020E9
:104440000123FEF7B7BBD4D4F0B503AF2DE9000FBD
:10445000B1B082460888D1E9016B6FF01F01914627
:10446000012806F12804069408BF6FF0270101EB2C
:104470000B00A74A079008A806A9FDF76BFF089D47
:1044800006F12008C5B3CDE904A6B9F1000FDDF8A7
:1044900024A067D00DAE294652463046FDF792FF64
:1044A0009DF83400002840F00981CDE901B40422D0
:1044B000DDF83BB00026DDF859900024CDF80C80E3
:1044C000A34530D9ABEB0408B8F1040F28BF9046E0
:1044D00000204C450DD0DAF80CC021460D900DAAF5
:1044E00028460423E047C0B2082840F0E4800D9835
:1044F000042244444640E3E78C480B900CA80A9001
:104500000120CDF830802B900DA92A910221884AF4
:1045100026922022279129900AA802F012FC26A8B0
:10452000FFF7A4FDE1E00DA802F019FC9DF83400AE
:10453000002840F0C0800020DDF85910DAF80C4067
:1045400004230D900DAA2846A047C0B2082840F0C9
:10455000B2800D98DDF80C80DDE901B4B0420DAEFB
:1045600040F0AC80CDE902480726059C0F96616AB1
:10457000206ACDE90D0100206649FEF78DFF6649EE
:104580000220259000201296CDF804B0CDE9104B02
:10459000FEF782FF26A802F0E2FB02F059FC40F091
:1045A000B380BDF8AD004FF00209059026AC4FF086
:1045B00000084FF0000B0598584543D0204602F004
:1045C000CEFB02F045FC40F09980BDF8AD0083457C
:1045D00080F09480204602F0C2FB02F039FC40F0EB
:1045E0008D80BDF8AB000021DAF80C6022462891DE
:1045F0000C23CDE9261108EB00012846B047C0B2D4
:1046000008287BD1B9F1070F13D826AA09EB490373
:1046100007CA0DAE02F01F0246F8230006EB830026
:10462000C0E90112259800F101090020CDF894900D
:1046300000E001203B49FEF72FFF0BF1010B08F1D1
:104640000C08B8E726A829465246FDF7E0FE02F01E
:10465000FFFB56D1DDF8A58026A829465246FDF776
:10466000D6FE9DF89800049EDDE902B9002848D1E5
:10467000DDF8A54054B126A802F071FB02F0E8FB7A
:104680003FD1DDF89F00001B051F00E0002506F16B
:1046900008000DA9642202F078FD08EB0B00B8F1C8
:1046A000000F08BF454608BF0120C6E91B05019859
:1046B000C6E900901FE0DDF80C800DAE1B4802211A
:1046C0000B900CA80A900120194A26922022CDF8BE
:1046D0003080CDE92A60279129900AA802F031FBA9
:1046E00026A8FFF7C3FCDDF810A00020CAF86C0074
:1046F00002208AF8000031B002F041BB084802F005
:1047000019FB094802F016FB044802F013FB00BF36
:10471000CC85000800860008108600082086000866
:10472000408600085086000830860008C51D000835
:10473000F0850008F0B503AF2DE9000F8FB03D699B
:104740008146984692468B4627F8525C2846FEF7EB
:10475000FDFC60B30C46102980F0DF8072484FF4F6
:10476000947104FB010658465146FCF7E8F80546EB
:10477000D6E94301FCF7E3F8854230D900200B90DD
:10478000022008906B48079001200A9004A8099025
:1047900067480590A7F15200049007A8FFF766FC50
:1047A00037F8521C6448FEF7FFFC37F8525C634848
:1047B000002110290ED046180C46013196F88020B1
:1047C000002AF6D107A82946224600F0C9F89DF82C
:1047D0001C00E8B140F20140A9F8000015E00220F9
:1047E000002508905148079001200B950A9004A8D5
:1047F00009904F480590A7F15200049007A8FFF7D1
:1048000035FC89F80050C9F804400FB002F0B7BA7F
:104810000120CDF8009086F88000FEF77BFE07A807
:1048200059465246FCF7A4F84FF494713E4804FBF5
:104830000109BDF81C005146A9F86A005846FCF76A
:10484000C5F80621C007A9F86C104FF003005146C7
:1048500008BF0220A9F86E005846FCF72FF8A9F807
:10486000680009F58271B8680026C9F80001F86887
:10487000C9F8986081E8410848466821C9F810A144
:1048800002F085FC09F19C0041466422C9E94666B4
:10489000C9E92066A9F81461C9F8906002F075FCB6
:1048A00058465146FCF79FF80DF110081FFA80FAA0
:1048B000B0B2504516D2D9E943013246FCF7A0F810
:1048C00037F8522C0546CDE902010B4640462946F1
:1048D000FEF71EFD9DF8100048B99DF8110058B96B
:1048E0000136E5E70099002008704C608DE70099DB
:1048F00040F20130088088E7002011490B90012028
:10490000079108900A900DA809900E480E9002A8F1
:104910000D490D9007A8FCF76BF9024A204602F0FA
:104920000DFA00BFA086000808000020C886000815
:104930008D1C0008F08600085C13002088120020FF
:1049400000870008570C000808870008000604BF0D
:104950000846704780B56F46104602F0EBF9D4D494
:10496000F0B503AF2DE9000781468A4601F00F003C
:104970001B49904660F00F0201EBC003FAB11D46DF
:104980001B8813B36E88013205F108031FFA8AF4FD
:10499000A642F3D12846FEF7DDFD02F03FFA0120E2
:1049A00089F80100002015E00D46098869B16B887F
:1049B000013805F108011FFA8AF29342EAD0002873
:1049C000F2D10120C9F8048004E002F027FA0020A7
:1049D00089F8010089F80000BDE80007F0BD00BFBC
:1049E00088120020038823B94180012142600180A0
:1049F000704780B56F4602482421024AFCF704FE46
:104A00008C840008E884000880B56F46ADF5167DFB
:104A1000DFF8D823DB485060DB484169B1F1FF3F44
:104A20000EDCDA498160DA4981604169B1F1FF3F0A
:104A300006DCDFF814042F21DFF81024FCF7E4FD76
:104A40004FF0FF31DFF8A8B3C2E904014FF00209CB
:104A5000D04800254FF0010A002682F820908046B9
:104A6000C2E90615B6F5945F1BD00BEB06046A216C
:104A7000204602F08CFB04F582701221C4E9205517
:104A8000C4E93F5AC4F89850C4F89050A4F86E9006
:104A9000C4F86A8002F075FBC4E9465506F59476C1
:104AA000E0E776A900200022802A04D08B188850E5
:104AB00008325860F8E705AD502105F1800002F09A
:104AC00060FB76A92846802202F05FFBC94C29468C
:104AD000D022AA46204602F058FB00200022C4F84B
:104AE000D00039A9C02A05D08B1888500C32C3E9F0
:104AF0000100F7E7C04839A9C02202F046FBBF49D0
:104B00004FF060401922FDF7E0FA0AF10800039027
:104B1000B6484FF42049002510300490C44E4FF49D
:104B200080144FF0010BB5EB195F6ED1049950461C
:104B300032464B46C846FDF7FDFC9DF81A0090B181
:104B40009DF81B0078B9BDF818009DF81C1000F006
:104B50001F0024FA00F000EB080969B1BDF8142029
:104B6000012AE0D11CE0BDF8180000F01F0024FA73
:104B700000F000EB0809D6E7022009950690AF483F
:104B80000590CDF820B076A80790AD48779070A832
:104B90007690AC48404470905046FFF767FAC2E701
:104BA000ADF8D8B10DF5EC7BBDF8162048F00063E8
:104BB0008DF8E4115946CDE977305046ADF8DA2149
:104BC0000122FFF741FC209C002C00F0D7800399C4
:104BD00058466422DDE9056502F0D7FA30462946D9
:104BE000DDF88480FBF76AFE02902A465046314683
:104BF0005B46CDE900480025FFF79CFD06999DF82E
:104C000014008C4AFFF7A2FE88E77D494FF0604010
:104C10002222FDF75AFADFF8D8810DF5EC79754BB1
:104C200000200021159080290ED001F10802595A68
:104C300000291146F7D0991851F8041C4AF82010A1
:104C4000114615980130EDE705A94846442202F0C7
:104C50009CFA869800254FF494768400AC4209D0E3
:104C600059F8050010286ED200FB0680FFF708FAFD
:104C70000435F3E7604B002000210D90C0290FD0D0
:104C800001F10C02595A00291146F7D0991831F850
:104C90000A1C05AC24F8101011460D980130ECE701
:104CA00005A94846242202F06EFA7E9800264FF0AD
:104CB00003094FF0020B45004FF020084FF00A0A9D
:104CC0000024A54241D076A8204469900088FEF7D0
:104CD000CDFE00284FD04C4975914C4973914C49F9
:104CE000719169A97290043074900C201B9001207E
:104CF00070918DF87090CDE9198BCDE9176ACDF8D8
:104D000054B08DF850901396CDE91180CDE90FBACB
:104D1000CDF834B08DF830900B96CDE90986CDE909
:104D200007BACDF814B0CDF8BC9105A86E90042058
:104D30006B9038486A9070A8CDE96C096AA8FFF7B3
:104D400095F90234BDE72F4A4EE0DFF8A89009F14B
:104D50009005FEF753F9DFF8988004464FF49476F7
:104D6000D4B128680F2837D800FB0680FDF75AFE1B
:104D7000013C0435F4E7284801F0DCFF2E4801F03F
:104D8000D9FF00BF803801000020024023016745A1
:104D9000AB89EFCDFF0006006FF07F00F0B100F1AE
:104DA00008014844B0F8800000280846F6D009EB16
:104DB0000100C06FFEF7BEFC0F2814D84FF49471A9
:104DC00000FB018402F027F816480021BFF35F8F33
:104DD00001702046FDF76AFF104A05E012481321D2
:104DE000124AFCF7B6FF0E4A01F0A8FF1C1400207F
:104DF00008000020881200205C1300202880000892
:104E000041800008F4890008C51D00088D1C0008B9
:104E10002D280008D4890008A4890008CC80000847
:104E2000BC8000080000002063800008AC800008FF
:104E300021360008BC850008AC8500089C85000868
:104E4000570C00082000000888790008F479000851
:104E5000F0B503AF2DE9000FB9B0B1F868600446B2
:104E6000DFF8E08E0121D8E84F0FC8E8421F002A82
:104E7000F9D10028BFF35F8F41F0BE823046FEF7C4
:104E800065F9002801F0BA828B460C2C00F2B8813B
:104E9000DFE814F00D00840121014D019700A0010D
:104EA000BA016C0110020201E4016200D700BBF1FB
:104EB0000F0F01F2D1824FF49475DFF88C9E0BFB3B
:104EC00005F059F800404FF6FF70210C814200F0C8
:104ED0006B8217A801F098FBDDE917A6BAF1020F63
:104EE00040F04083102E81F0DD824846C1460146E5
:104EF0000BFB05084FF4947006FB001030F86C1F94
:104F0000062940F0AB8330F8021F012900F2A68386
:104F100091B1B8F868200125B8F89810ADF85C5048
:104F20006FF39F2242EA8121ADF85E1017A9FBF7CB
:104F3000AFFD002800F0938309A85946324601F0DE
:104F400099FB9DF824000C2840F065864FF0020A7A
:104F50001596CDF850A08DE3BBF10F0F01F27E82C4
:104F60004FF49470DFF8E04D0BFB00460BFB00F0B4
:104F7000D6F80490215817A801F046FBDDE917A5E3
:104F8000BAF1020F40F0A181102D81F080824FF420
:104F90009470C24605FB004849464046FEF73EF87D
:104FA00000240028C6E9004400F0A582B8F86A0091
:104FB000D046B6F86A1088423CBF1595022400F02E
:104FC0004CBEBBF10F0F01F24B824FF49471DFF82E
:104FD000780D0BFB0106D6E90354601980F00981B6
:104FE0003168D6E9019809A801F00EFBDDE909A2B4
:104FF000BAF1020F40F0BB81CDF8008009A801F0A2
:10500000F1FEDDE909A0DDE90B23BAF1020F40F062
:10501000C183DFF8308DC00700F0A281CDE900B573
:10502000029417A8089C214601F0E2FB9DF85C0061
:105030000C2840F0E88418980021C6E9001000F020
:10504000F8BBBBF10F0F01F20D824FF49470DFF843
:10505000F86C0BFB00604568062D80F03C81016810
:10506000C146B0F89880B0F8684017A801F0CCFAB3
:105070001798002800F03F83012840F043839DF8F3
:105080006020DDE919010B2A00F03783BDF862408A
:10509000C8469DF8613020E1BBF1100F81F0E4813A
:1050A0004FF49470DFF8A04C0BFB00F1DFF89C2C60
:1050B0000BFB00409368D268635000F180067ACE03
:1050C0000B4304BF1D461C46C0E901210C3070C0D3
:1050D000002400F0C2BDBBF10F0F01F2C7815A4698
:1050E0004FF49470DFF8604C0BFB00410892504382
:1050F000D1E90169D1F80CB0B1F898A0B1F86850C5
:10510000215809A801F080FA0998002800F0D08100
:10511000012840F0F5819DF82800DDE90B9B0B2864
:1051200000F00B82BDF82A209DF829101EE3BBF188
:10513000100F81F09D814FF49472DFF80C1C0BFB73
:105140000210DFF8083C0BFB02F29D68DE6889580C
:10515000002900F01E81D0E901230024C168AD1AA6
:1051600076EB030580F0F781012515E1BBF10F0F08
:1051700001F280814FF49472DFF8CC1B0BFB02101C
:105180000BFB02F240688C58002800F09481012843
:1051900040F0D881C246DFF8B88B8FE1BBF10F0F2A
:1051A00001F26A814FF49470DFF89C1B0BFB001432
:1051B0002046FDF782FF012840F09A8000204FF63C
:1051C000FF72C4E90002C4E902100021C4E904002E
:1051D00000F040BDBBF10F0F01F250814FF494710C
:1051E000DFF8640B0BFB0104D4E90365A819C0F0D8
:1051F0009B8040F20710ADF850004FF0010AAAE280
:10520000012013900020A0E1BBF10F0F01F23881C3
:105210004FF49471DFF8300B0BFB01060BFB01F12F
:105220007568415817A801F0EFF9DDE917A2BAF146
:10523000020F40F0A58000245946009417A82B4681
:1052400001F0C4FBDDE917A11A98BAF1020F40F092
:10525000FF81C6E90041B06000F0FFBCBBF10F0F59
:1052600001F210814FF49475DFF8DC4A0BFB05F076
:1052700020586FF39F20FDF769FF002800F014818C
:105280000F2901F202814FF494720BFB054001FBE0
:10529000024100241494B1F89820B1F8681002F08B
:1052A0003F026FF39F2141EA8221016002201390A7
:1052B00000F0D3BC08208DF85C0017A95846FEF713
:1052C0007BFD0446159100F0C8BCDDE9190116917B
:1052D000CDE9145059E0082307228DF851304FF0E2
:1052E000010A8DF850200C220823ADF852402FE21D
:1052F000B4F868102246B4F898004FF6FF73D568EA
:105300006FF39F21059241EA8024E80F294601228C
:10531000ADF83C400390FDF705FF0028049500F030
:105320002781002400F088BC2168D4E9019809A8ED
:1053300001F06AF9DDE909A2BAF1020F17D1CDF83F
:10534000008009A801F04EFDDDE909A2DDE90B01AD
:10535000BAF1020F0DD1DFF8EC89920700F1558206
:105360004FF0000A0120CDF854A01490F3E10B98FF
:105370000C99169115901492CDF84CA000F013BC26
:10538000DDE919011691CDE91420CDF84CA000F00B
:1053900011BCC16800250024C0E92054C0E92223C3
:1053A000C0F8901000F059BC3046FDF7CFFE002841
:1053B00001F070808A460F29CDF820B001F26D808F
:1053C0004FF494710AFB01940AFB01F1D4E9028EB7
:1053D0006FEA08002546D4F810B055F8042F39F8C4
:1053E00001106FEA0B0C4B1E0B2B00F24781DFE81C
:1053F00013F00C00B00297026302630263026302BF
:1054000063026302DE0269020103824298BFE6453D
:1054100000F2BF8317A82146434676462546FEF78D
:105420007EFFDDE917A0BAF1020F40F07D84FDF7A1
:105430008DFE002800F03E86102981F061804FF437
:105440009470324601FB00905B46D0E91D1907912C
:105450002946B0F87260B0F86EA0B0F86C40B0F8B1
:10546000708017A8FDF78CFB01F0DDFC40F057863B
:10547000DDE91801062CCDE93401069440F095864B
:10548000002900F0E187002142460170012036909A
:105490000FA834AB5146FDF709F90F98072800F023
:1054A000C687109900F0CABF0120139002204CE07B
:1054B000DDE90B9B41E0C246DFF89888DFF8989859
:1054C0000025002005EB450109EB81010C390F2D6A
:1054D0000ED831F80C2F0135002AF8D08A88B24254
:1054E00004BF8A68A242EDD14888C0470120E9E79D
:1054F000C00702D00024D046AFE30120D04622E00E
:1055000007960A9E0F2E00F2CB876FF39F2545EA80
:105510008A20ADF82800EA4809904FF4947006FB01
:10552000004809A908F16C0001F05AF9002800F0C0
:1055300015814FF00009DFF80C884FF0020A0820AF
:1055400004211DE10120139006208DF85100072051
:105550008DF8500031E3C0E92044C0F89010FDF709
:105560005DFD7AE3DDE919011691CDE91460F2E001
:10557000002D00F11281DFF8E4470DF14C084FF4E3
:10558000947500200690CDF820B0FDF737FD8146D8
:1055900000200026CA461390B14515D004EB8600C2
:1055A000D0F89010594508BFB246CA450AD20F2913
:1055B00000F21E87DFF890070FAA01FB05004346A3
:1055C00001F0D4FA0136E7E704F19006DFF87847F6
:1055D0004D464FF4947BBAF1000F11D0002D00F02E
:1055E00068863168102980F0698601FB0B400FAA9C
:1055F000434601F0BBFAAAF1010A013D0436EAE78D
:105600001398012840F01881DDF850B017AC089AC3
:105610004FF494752046594601F02CF89DF85C0033
:105620000C2800F01181404621465A46FEF74AFEFA
:105630009DF84C000B2840F01081DDE91423DDE9D2
:105640000601FDF71FFDCDE90601DFF810479CE7D5
:10565000199ACDE913A1CDE91520ABE2012504206B
:1056600060F30F0440462146FDF746FDCDE9145690
:105670004FF0020ACDF84CA0C84696E2142900F07B
:10568000E681152900F015821F2900F07D8220296E
:1056900000F0B382242940F00F81824200F2798227
:1056A000042E40F0C98317A801F0ABFB01F0BBFB4F
:1056B00040F0CB841998DDF820B0DFF88886012807
:1056C00040F2E38418980188DFF880061030FDF777
:1056D00037F904461920FDF77DFB01F044FB18BFA4
:1056E000032118BF0322022808BF0A46002C18BF56
:1056F0000022149259E2DDE919014FF0020A082252
:10570000042324E06FF39F2444EA8828189C0F2C7C
:1057100000F2CE866A4817904FF4947004FB006044
:10572000ADF8608017A96C3001F05AF850B90A2022
:105730008DF85D508DF85C002046ADF85E8017A9AD
:10574000FEF73AFB4FF0020A082200200423C84665
:1057500013ACE050A150CDF84CA026E26FEA0B004C
:10576000814543D907200121DFF8B88D8DF851100C
:105770004FF0010A8DF850000C200821ADF852209E
:1057800013AA42F8019042F800B0CDF84CA0DDF821
:1057900020B00AE214A90DC1EEE513A8294600F0D5
:1057A00033FFDDE913A8BAF1020F5FD1B8F1100F92
:1057B00080F081864FF49470DFF8701D08FB0010B4
:1057C00021466C30FBF777F9002800F0328209A8F7
:1057D00041465A4600F04EFF9DF824000C2840F048
:1057E0008F8200200021DFF83C8D33E2D8E90310DE
:1057F00042184BD340F20710ADF8240009A93046F7
:10580000FEF7DAFA81468B4695E6DDF820903246BF
:1058100002915946CDE9009017A82B4600F0E8FF09
:105820009DF85C000C2840F0F48018980021C4E931
:105830000010149100F005BC0698DDF820B0023885
:10584000B0FA80F04409F5E10698DDF820B0C1B265
:1058500020F0FF00DFF8CC8CFBE101F0E8FADDF886
:1058600020B042EA0141DDE9143205E0DDE91532FC
:105870004FEA18215FFA88F040EA0120DFF8A48C93
:10588000CDF84CA0CDE91532149093E1CDE900613B
:105890004A46029017A808995B4600F0A9FF9DF8B8
:1058A0005C000C2840F0FB8118980799C8E90010AB
:1058B000404601F081FA3CE640F207706BE100BF20
:1058C00006000500DDF820B00025DFF8588C40F216
:1058D000FF3086424FF0000040F0B083D4E943012E
:1058E0002646FAF7EBFFFDF731FC002800F0638253
:1058F0000F2900F2F9854FF49470344601FB0090B3
:1059000090F81411002900F09883B0F89810B0F8BE
:10591000680001F03F016FF39F2040EA81208DE392
:10592000824200F2368117A801F070FADDE917A073
:10593000BAF1020F40F0F881DDF820B00104DFF881
:10594000E48B1CBF81B28E4240F0848340F207306A
:1059500051E4824200F21D8117A821464346FEF71A
:105960000EFD01F060FA40F0FB81DDE9180113AB98
:105970000022A24607C317A813A9FCF7C5FF179872
:10598000DDF820B0DFF89C8B07280DD1DDF86090A2
:1059900017A813A9FCF761FD1798072804D19DF8F3
:1059A0006040022C40F0898340F20771E6E18242B8
:1059B00000F2EF8017A801F024FA01F034FA40F069
:1059C000EC81DDE9180113AA002413C217A813A95A
:1059D000FCF743FD1798DDF820B0DFF8488B072867
:1059E00040F01F839DF86000C5E9004485F814016C
:1059F000149426E3002094F81511C4E900101490C3
:105A00004FF0020ACBE009A817A92246FEF75AFC7C
:105A100004E009A817A94A46FEF76BFC9DF824008C
:105A20000B2807D10A984FF0000A0B991590012016
:105A300016919AE49DF827108DF85310BDF82510A3
:105A4000ADF851100B9916910A991591F1E20023C6
:105A500040F2FF30864240F02E81DFF8501B4FF0BD
:105A6000604018220495FCF730FBD4E94301FAF7B3
:105A700025FFD4E943012546FAF720FF0790FDF7FB
:105A800065FB8046002800F0DA810F2900F22E85A0
:105A90004FF4947001FB00900799B0F89840B0F86B
:105AA00068600020FDF780FB6FF39F2646EA84269E
:105AB000C5E182426DD817A801F0A8F9DDE917A168
:105AC000BAF1020F40F06E810FA8FDF753FDBDF84B
:105AD0003C00DDF820B0DFF84C8A032800F06E812E
