S009000068756272697369
S3FF08000000001A0020AD010008CD1C0008ED4500086F1E00086F1E00086F1E00080000000000000000000000000000000085120008CD1C000800000000371A0008F9120008CD1C0008CD1C0008CD1C0008CD1C0008CD1C0008CD1C0008CD1C0008CD1C0008CD1C0008CD1C0008CD1C0008CD1C0008CD1C0008CD1C0008CD1C0008CD1C0008CD1C0008CD1C0008CD1C0008CD1C0008CD1C0008CD1C0008CD1C0008CD1C0008CD1C0008CD1C0008CD1C0008CD1C0008CD1C0008CD1C0008CD1C0008CD1C0008CD1C0008CD1C0008CD1C0008CD1C0008CD1C0008CD1C0008CD1C0008CD1C0008CD1C0008CD1C0008CD1C0008CD1C0008CD1C0008CD1C0008CD1CEB
S3B7080000FA0008CD1C0008CD1C0008CD1C0008CD1C0008CD1C0008CD1C0008CD1C0008CD1C0008CD1C0008CD1C0008CD1C0008CD1C0008CD1C0008CD1C0008CD1C0008CD1C0008CD1C0008CD1C0008CD1C0008CD1C0008CD1C0008CD1C0008CD1C0008CD1C0008CD1C0008CD1C0008CD1C0008CD1C0008CD1C0008CD1C0008CD1C0008CD1C0008CD1C0008CD1C0008CD1C0008CD1C0008CD1C0008CD1C0008CD1C0008CD1C0008CD1C0008CD1C0008CD1C0008CD1C0008D2
S3FF080001AC80B56F460B480C494FF6FF72CFF6FF72814201D004C0FBE700F00EFC00F018FC0348016841F47001016000F021FC00BF88ED00E044140020001A0020F0B503AF2DE9000F8CB0C94A1368DB070AD1136843F0690323F09403136013689B0701D400BFFAE7936813F00C0F07D000239360936813F00C0F01D000BFF9E791F82B304BB991F828B04FF00009BBF1020F12D091F829307BB9D2F8943043F00103C2F89430D2F894309B0701D400BFF9E791F828B04FF00109BBF1020F23D0936D43F080539365AA4B1C6844F480741C601923BBF1000F08BF0523D2F890402343C2F89030D2F890309B07FBD591F829304BB9D2F8903043F02003C2F82A
S3FF080002A69030936943F40073936191F82530022B0FD091F82440984D002C08BF05F5802515601468A403FCD51BB9146844F40024146091F830A0BAF10C0F27D191F82AC0BCF1000F0BD0D2F8984044F00104C2F89840D2F89840A40701D400BFF9E7BAF10C0F08D0BAF10B0F02BFD2F8884044F04064C2F8884091F82C40804EDFE804F0021F171ABAF10C0F26D14AE10D24BBF1020F08BF0924156844EA0A1425F0F9052C4314601468A407C8D400BFFAE7022B0ED136E1022B0BD1BAF10C0F0CD140F26313136013685B05FCD50123B04608E0D1F82080022304E0DFF8743353F82A800023099391F82D40664D042C0B9423460ED18B699BB1B8F1000F10
S3FF080003A000F01281CB695B00B3FBF8F31B020A9300230B9303E0CB8D0A938B6913B101F11C0308E0BAF10C0F02D1CB4B013306E0C84B03EB8A031B68AB4280F0F5800C6894B14C68002C00F0EF80B3FBF4F4012C0BD0022C0BD0002C00F0E680E51E032D28D20925042404E00124002501E00825022408958D68B3FBF4FEA5B1CD68002D00F0D280BEFBF5F5012D0CD0022D0DD0002D00F0C9803446EE1E032E11D205250695042517E00024012501E004240225069411E0A51F062D80F02A810A250824D7E7063D0726062D4FF0100538BF0626069638BF08252646BEFBF5F407959C4200F2A2800D69CDF814C0CDF8008095B14969002900F09880BEFB4E
S3FF0800049AF1F101290AD002290BD0002900F08F80CD1E032D08D2052504210EE0002501210BE00425022108E00639072506294FF0100138BF062538BF0821BEFBF1F8984500F2758006F1010C0495E6450393019104D2534649464FF4C06622E0824DAE4504D25346494640F201661AE07F4D53464946AE450DD240F2026612E000BF0010024000700040630001000024F40001B4C404764D40F204660235AE4538BF40F20366734D4FF0020A02942E600B9CDFE804F01B03161906004FF0040A14E0049C9C46E502069C0C2B45EA0425089C08BF4FF0060C002645EA0415099C61E04FF0060A01E04FF0080A0A9CD946C4F3072BBBF1070F1BD9BBF1570F83
S3FF0800059418D20A9C012555FA84F5009CB4FBF5F5544CA5420ED965450CD205FB0BF5554EB54207D9554EB5423EBFB5FBFAF54E4CA54200D3FEDE0A9C9C461668E5B226F080761660099C1668B60101D500BFFAE7D6684B4B33400B9E760665F306160BF07F05CB4646EA052525442B440133D360136843F080731360D36843F08073D36013689B0101D400BFFAE7936843F6F3750326AB43049D43EAC523069D43EA0523089D43EA0513DD1C9560079D9368C3F38103B34201D000BFF8E7BCF10C0F02BF136823F00503136041770399C1600B99059A019E0429029B71460277C0F800E080F81AC046760576C0F80880436008BF0324BBF10202C47618BF1E
S3FF0800068E0122012E827718BF4FEA48014161012D18BF4FEA430EC0F810E00CB0BDE8000FF0BDA4F10C051C2D02D20B251024A9E6A4F12805382D02D20C254024A2E6A4F16005602D02D20D2580249BE6C03C0F25C02C4FF4007438BF0E25089538BF4FF4807490E600BF28460008FF083D0001B4C4040148E801016CDC02FF8FD00300200240816FE8138C80FFF90C484AF6AA22016841F0040101600A48816862F30F018160416845F2555221F0FF014160016862F30F01016003480449016170474C100240000800481C140020044600080248016841F0010101607047140800480248016821F0010101607047140800480248016841F0020101607047BA
S3FF08000788140800480248016821F0020101607047140800480248016841F0040101607047140800480248016821F0040101607047140800480248016841F0080101607047140800480248016821F00801016070471408004802490001C0B20A68086070471408004880B56F4600F000F880B56F4696B006208DF854004FF08060CDF84E0002208DF84C008DF849000848109001200F9000200D900B90099001A809A9FFF7DFFCFFF775FF01F0EFFE00BF00B4C40480B56F468AB00A460146684600F004F8BDF80A000AB080BDB0B502AF8EB00446029201F108000C4A019003A801A900F041F9039971B1049A03AD284600F072F99DF80C0030B9691C204688
S3FF08000882282203F07FFE0EB0B0BDFEDE00BF5846000880B56F468AB00A4601466846FFF7D6FF03980AB080BDD4D4B0B502AF88B0044601F10800019269460B4A009002A800F013F9029971B1039A02AD284600F069F903F0ABFD06D1691C2046142203F051FE08B0B0BDFEDE00BF58460008FEB506AF0A46014601A8FFF7D7FFBDF8060000F0010006B080BD80B56F468AB00A4601466846FFF79BFFBDF818000AB080BDD4D4F0B503AF4DF804BD8EB0164608301A4A01916946009002A800F0D6F8029C54B3039D02A821462A4600F006F903F06DFD21D1BDF82100B6B2B0421CD902A821462A4600F0F9F803F060FD14D1BDF81F000021ED680823CDE948
S3FF0800097C021100EBC60102AA2046A847C0B2082801BFDDE902010EB05DF804BBF0BDFEDE58460008D0B502AF048802460B8843EA0400B0FA80F0400934B12BB148885188081AB0FA80F04009D0BD038802460020062B01BF5388042B88B2918802BF081AB0FA80F040097047034800220349884228BF704704C0FAE7080000204414002004480549054A904228BF704708C908C0F9E700BF000000208C4600080400002080B56F46FFF7E4FEFEE77047F0B503AF2DE9000F89B001AD92460C46804628461C21FF2299464FF0FF0B03F0BAFD154E284600210122B047284608212246B047284610215246B0473889ADF8209028B1012805D1FF204FF0FE0BAD
S3FF08000A7606E0FF2004E0D7F80CB01FFA8BF0000A8DF8230040468DF822B001A9202203F077FD09B0BDE8000FF0BDA50A0008D0B502AF0844013A0023082B05D0CC181F2C03D8C2540133F7E7D0BDFEDEB0B502AF44688C4209D900684BB1A14209D2455C013B02F8015B0131F6E70020B0BD0820B0BDFEDED4D4F0B503AF2DE9000B8CB0D568914604464FF000080E4608466A4600210423CDF80080A847C1B2082910D11048009981420BD1A7F1410031464A4600F019F817F8410C48B117F8400C00E00120C4F8008020710CB003F07FBC37F83C0C012802D1C4E90069F5E70220F0E700BF7F484246F0B503AF4DF8048D8AB0E8460E46044640462821CB
S3FF08000B70154603F029FDED683046002142462823A8470146C2B2601C082A05D16946282203F0F9FC002001E00170012020700AB05DF8048BF0BDF0B503AF4DF8048D86B00DF104080E46044614214046154603F003FDED683046282142461423A8470146C2B2601C082A05D101A9142203F0D3FC002001E001700120207006B05DF8048BF0BDD1E901329A4209D2531C8B600968895C01298EBF01210171072100E00021016070478BB20022B2EB532F07D1DA02C0F6000102F10062C0E90121012202607047F0B503AF4DF8048D00F1040C04464FF000089CE80610DCE9005682EA060081EA050318434FF000001ED051EA020003D005EA0600013016D1C9
S3FF08000C6A2568686940F0010068612846CCE9001200F013F86969C0B2022821F00101696101D1002004E0002818BF012020740120C4F80C805DF8048BF0BD0169C903FCD40169016111F0300FC1F3001008BF02207047F0B503AF2DE9FF0BE9460E460446484620211D46904603F07EFC05F1006130464A462023C04768BBBDF81E004FF6FE710222608088424FF6FF7108BF0122401A18BF10462080DDE904100840B0F1FF3018BF012020729DE80F001A40B2F1FF3218BF01220840B0F1FF31E27118BF01210130BDF81C00A17108BF0920A08008B003F081BBFEDEF0B503AF4DF804BD9468002314F1030F9FBF5668A51CB54213689EBF195395600723C9
S3FF08000D6403605DF804BBF0BDB0B502AF0C46D1E90151A94209D225686A540131A16019462246BDE8B040FFF7DABF00210160B0BDB0B502AF0C4672B1D4E9012191420FD22268012555540131A16019462246BDE8B04000F008B82146BDE8B04000F018B800210160B0BDF0B503AF4DF804BD9468002314F1050F9FBF5668251DB54213689EBF19519560072303605DF804BBF0BDD0B502AFD1E901430022A34204D20C68E2545A1C8A6007220260D0BDF0B503AF4DF804BD14468A1E92B2042A28BF0422DFE802F00334282B0C00D3E901420021A24237D21C68A154511C2FE0D3E90162B2422ED2D3F800C004250CF80250551C09049D6029D0B54223D222
S3FF08000E5E01210CF80510911C1A46996021465DF804BBBDE8F040FFF765BF1946022201E01946032223465DF804BBBDE8F040FFF76EBFD3E90121914206D21A680124545401319960072100E00021016003F0AABA19465DF804BBBDE8F040FFF79CBF8B68002213F1050F0DD8B0B502AF4D681C1DAC429FBF8C600968C958416098BF0722BDE8B04002607047C16809B1FFF7A2BE00207047D4D4BFB506AF044601A80D46FFF789FE0198E8B1022040F6FA7265F3CA0025686969914308446861686940F4803068612846FFF7BEFE6969C0B2064A11406961022801D1002004E0002818BF01202074012004B0B0BDFDFFFEFFF0B503AF2DE9E00F00F1040BBC
S3FF08000F58044600259A46CDE90112AB422DD00298465D019800EB0509E06829F0070838B1404505D02046FFF758FE00BBE068534618B9D8E90001CBE9000109F007001BF80010FF2918BF002E0CD107280BF80060C4F80C8004D12046FFF73FFE534638B90135D2E7B142F0D002E01D4600E0534600209D4238BF0120BDE80E0FF0BDF0B503AF2DE9F80F6821814603F0F6FAD9F80C01016840680844A0F1080B5FEA4B706AD1BBF1670F67D9D9F8FC00002863D0D9E92780ABF16805AB21424618B102F8011B0138FAE7D9F8046116EB080053D26846494642463346D9F8004100F04DF89DF800000B2847D1DDE9010141B1002E42D014F8012B013900F857
S3FF08001052012B013EF5E7D9E943126846FFF725FCD9F8FC1009F1A400DDF808A0D9F80C6101EB4101890051B350F8082CAA4209D850F8043C1A44934504D8026802F01A02022A02D00C390C30EDE72846682103F092FA0AEB06024FF080700832E86142F001024FF0FF316FF01200C5E90512C9F81480C9E9085005B0BDE8000FF0BDFEDEF0B503AF4DF804BD044608461D46164611461A46022300F00DF810B10B20314603E00121002035466170C4E90115207003F07EB942B3F0B503AF4DF804BD00F1A404D0F8FC0002EB010C00EB40008500002D284618BF012013D054F8086C8E420CD854F8042C3244944507D8266806EA03029A4208BF16F018027B
S3FF0800114C02D00C3D0C34E6E75DF804BBF0BD01207047D4D4F0B503AF2DE9000F00F19C01D0F8FC0000224FF0805C4FF03C0E00EB40004FEA80081D4881461D488346B8F1000F31D070C906F00800CA46144344F01004C9F80040F407A8F10C084FF0007408BF4FF08074B3070CEA866348BF4FF0407443EA00432344F4064FF4802458BF4FF44034002818BF4FF4803418195B4680EA0B00B5FA85F30132AEEB430318430130C9F80400CAE703F014B99CED00E00000081080B56F461B49FF241B4B4FF4F076CA6842F4E022CA6000220A704A708A70CC718C72CC72D3F8105D45F01005C3F8105D1D6806EA45152035954208D0B2F5F87F04D09E1801325C
S3FF0800124686F8FC43F5E7FEDE0B4A1A6100225A61DA6842F00702DA600522CA6707490860016A81F3098890E8F00FFFDFFEDE18ED00E004E000E07F3801001C14002070466FF00C0120EA010008281BD041F21C40C2F2000001680A00EFF3098CA2E8F05F82EC108A5FEA0B0001F0E3FA41F21C40C2F200000068B0E8F05F90EC108A8CF309887047012080F314886FF0120E7047FEDE05490860B0F86800096921B103490001C0B20A68086070471C14002014080048F0B503AF4DF804BD134D144C286918B1206840F008002060114E0121D6E84F0FC6E8421F002AF9D1BFF35F8F98B9012000F01AF818B10B484FF0805101600020BFF35F8F3070286945
S3FF0800134018B1206820F00800206003F05AB8FEDE1C140020140800480000002004ED00E0F0B503AF2DE9F80F60B16B498A68D1F80CB0131809D30BF1010B00258D60C1F80CB004E04FF0000EBFE015188D606348D0F8D060102E00F2BD80614B4FF4947A4FF000084FF00009CE46B04542D25B4800EB8800D0F890400F2C00F2AB8004FB0A3008F101085FEAC97110D1D0E9461211430CD0D0E9481247F2305C691A6BEB0202BCEB01014FF0000191411FD3D0E920121143D9D0D0E92212691A7BEB0201D3D30021CDF800E0C0E92011D0F8901000F08AF80246002818BF0222DDE90001234600F0BBF83E4B86460191BDE74FF00109B9E701995FEAC97056
S3FF0800143A66D040F2FF309A46CDF800E000F0F7F800285BD00F2960D84FF4947001FB00A0D0E94301FFF7EBF980462F4840F2FF3100F013F9404600F0E2F8D0B389460F294BD84FF4947009FB00A000F58675D0E94301FFF73DFA86B20DF1080B0024A0B2B04210D2D5E900012246FFF73EFA02460B4611465846424600F075F902F0BAFF2BD10134EBE74FF4947009FB00A4204600F0B3F9D4E94301FFF70DFA48B103200621C4F86E00B4F86C00A4F86C10062813D1042000F0A3F878B110290DD24FF4947001FB00A0012100F011F8DDE900E1704605B0BDE8000FF0BDFEDE00BF1C14002088120020080000205C130020D0B502AF0446D0F80801084394
S3FF08001534C4F80801B4F86C00062809D1204630F86E1F012904D839B11249FFF727FA18B9D4E9460108431AD0204600F038F802460020012A12D14FF6FF72C4E90210C4E900020323C4E904000621B4F86C00C4F86E300628A4F86C1003D10120D0BD0020D0BDFEDE68460008904204D102280CD1994202D103E0022803D1022A08D002207047022A02D1022019467047012801D101207047501EB0FA80F040097047B0B502AFD0E902510446B1F1FF3F0ADC012001224FF6FF7300F011F818B9D4E94601084309D0D4F8080110EA050104D04840C4F808010120B0BD0020B0BDD0B502AF0446104380B2B0FA80F04009240408D012041FBF98B289B2081ACD
S3FF0800162EB0FA80F018BF4009D0BDB0B502AF00F00F0182B213480B46102B0BD030F833501C460133002DF7D000EBC40464889442F2D10DE00023994210D030F833501C460133002DF7D000EBC40464889442F2D1591E00EBC10041680120B0BD0020B0BD00BF88120020F0B503AF2DE9000F8DB0834608468846FFF7C8FF00286CD00F296DD84FF49470DFF8D89001FB0094BBF1000F19D0D4E94301FFF720F985B20DF1140A0026B0B2A8420ED2D4E943013246FFF721F902465046594600F0BAF8059800284CD10136EDE7D4F80C1105A800F038F9BDF81400032841D02248069E00F11405214A06F17843A7F146002946FFF7CEFA17F8400C90B317F8F3
S3FF080017283F0CA8B937F8441C37F8460C37F8423CCDE90001012117F83E2C05AC2046FFF76FF902F074FEE8B92846FFF7C8FBC8B9404600F0B9F8A8B9102913D20D480024084480F880404FF4947001FB009500F0DFF8C5E94344A5F86840C5F8FC400DB002F04ABEFEDE00BF080000201C140020051A000888120020F0B503AF4DF804BD01F00F0C204C1FFA81FE0CEB4C0504EB8506ACF11105013508D23188F1B106F10C01768876450E46F5D10BE00CF10105013D1AD02188E1B104F10C01648874450C46F5D141F8043C21F8082C012221F80AEC21F80C2C0021427012E00121B360B280A6F802E0318009E001218360828007E00121A360A280A4F8E8
S3FF0800182202E0218000214170017002F0E9BD5C1300200021094AC0E92011C0E94611C0F80811C0F89010A0F81411D0F89810C2660131C0F89810FFF7BDBB06000200F0B503AF4DF804BD02F00F0C92B20CEB4C0401EB8404A51CACF1110401340BD22E460C3536F8023C002BF7D033889342F4D1A5F10E020FE00CF101030231013B11D00C460C3134F8025C002DF7D024889442F4D1A1F10E0200219388118092688260838000E00121016002F09ABDD4D4F0B503AF4DF804BD00F00F01154A80B202EBC1039C1C61F00F0363B12546013335F8026C0834002EF7D02D888542F4D1A4F10A010DE0023279B11346013933F8024C0832002CF7D01B888342C5
S3FF0800191CF4D1A2F10A0100200880496800E001205DF804BBF0BD00BF88120020D0B502AF0B4800220021102A0ED01346024492F880405A1C002CF6D00F2908D800EB81040131C4F89030EEE7C0F8D010D0BDFEDE88120020F0B503AF2DE9F80F80461F48204CA7F1260901EB000BA1F1200001904FF420451A484FF4801A00F11406B5F5801F18D24846314622462B46FFF788F917F8200C60B117F81F0C48B937F8220C5D4500F01F002AFA00F008D00544E6E705F50065E3E70320A8F800000AE017F81E1C88F80C1057F8261CC8F800100199C8E9011005B002F015BD00BFE0FFFFF71C140020051A0008B1F1006F3CBF01207047B0B502AF5C18250D16
S3FF08001A16802D05D8C06828B1884203D3A04201D80120B0BD10461A4602F0AAFD0020B0BD41F21C40C2F200000168EFF3098CA1E8F05F81EC108A00F00EF841F21C40C2F200000068B0E8F05F90EC108A8CF309887047FEDED4D4F0B503AF4DF8048D1B4E1C4C306918B1206840F002002060306860B3B0F868000122174DD5E84F1FC5E8432F002BF9D1BFF35F8FF9B9FFF7C9FDE0B10846A04600F022F8102816D24FF494720D4902F0C9FC2046FFF70AFC0020BFF35F8F2870306928B1D8F8000020F00200C8F800005DF8048BF0BDFEDE1C140020140800480000002008000020F0B503AF2DE9E00FDFF878A0DAF8D050112D35D2DFF8709000248346A2
S3FF08001B10E8462E460094A54213D00AEB8400D0F89010594508BF2646AE4208D20F2921D84FF49470424601FB009000F021F80134E9E70AF190044FF4947AE84666B18DB1216810290ED201FB0A90424600F010F8013E013D0434F1E7009818B10198BDE80E0FF0BDFEDE00BF8812002008000020F0B503AF4DF804BD0D460A4906466C30144600F011F850B12168B6F86A0011B12189884203D220810120C4E9000502F028BC00BF6C460008B0B502AF054600880C46811F18BF01212288063AB2FA82F2520991422ED0062815D028792179884228D10A2823D8DFE800F0061406222222141E22171A0005F1080004F1080100F053F880B916E0A81CA11C8A
S3FF08001C0ABDE8B04000F013B8A068A96808E0E088E98805E0E088E988814206D160796979814202D128462146EAE70020B0BDF0B503AF4DF804BDB0F800C00426ACF1020293B2042B28BF33460A88951EACB2042C38BF2646B34208D1042B11D0032B06D0022B18D1022D04D015E0002014E0032D11D149884088401AB0FA80F040090BE0032D08D94B88418860465DF804BBBDE8F040FFF7B8BC01205DF804BBF0BDD0B502AF046802460B6843EA040080F0010034B12BB148685168081AB0FA80F04009D0BDF0B503AF2DE9000BDFF8F8803E49D8F8100018B1086840F0040008608946EFF3058001466FF35F21022903D00C2918BF0F2900D8FEDE00F0D0
S3FF08001D040F02DFF8D0C01039541E02EB42030CEB83039D1C8BB20F2C0AD02E460C3536F8020C01340028F6D030889842F3D10FE00CF102060024A242E0D035460C3635F8020C01340028F6D028889842F3D1013C04EB4400204E01230CEB800084688088D6E84F2FC6E8453F002DF9D1002ABFF35F8FC3D101F01F020123490903FA02F2164B43F82120FFF755FC0028B6D01029B4D213484FF4947201FB02002146FFF7C1FB0021BFF35F8F317018B10D484FF080510160D8F8100028B1D9F8000020F00400C9F8000002F03ABB00BF1C140020140800485C1300200000002080E100E00800002004ED00E00021B1EB502F01BF00F01F01012202FA01F1C6
S3FF08001DFE400902BF024A42F820107047FEDE80E100E00021B1EB502F01BF00F01F01012202FA01F1400902BF024A42F820107047FEDE00E100E041F21C40C2F200000068EFF3098C0246A2E8F05FEFF3058101F00F0100F010F841F21C40C2F200000068B0E8F05F90EC108A8CF309887047FEDEFFF7E1BFFEDEF0B503AF2DE9F0070D46444990460C688A46D0E90896D0E94301FEF7D3FC310777D53F492140042D05D0052D0CD1220416D4002217E0E2061DD4E20729D1220629D40022002325E0CAF800100291E1034FF0050158BF0621A20148BF032115E0DAF810300122CAF800100221CDE90223ADF804101CE0CAF80010DAF80C1221F00101CAF88B
S3FF08001EF80C120121CDF808908DF804100EE0042203E0DAF80C4001230022CAF800100021CDE902348DF805108DF804201C4D012288EC108AD5E84F1FC5E8432F002BF9D1BFF35F8F39BBFFF77BFB20B30C4601A9204600F029F8022803D02046FFF7CEFD0146A14217D0102915D24FF494720D4801FB02042046FFF7F7F82046FFF7B0F90020BFF35F8F2870BDE80F07F0BDDAF80C00DAF81000FEDE28ED00E0BBBF0F030000002008000020F0B503AF4DF804BD0F2830D80C464FF49471174D00FB0156D6E94301FEF73CFCB6F86C006C21062808BF6E217058F06606F1700094E80E000EC00020FFF72CFB0C4601280DD10F2C11D84FF49470012104FB60
S3FF08001FF200500125FFF797FA002818BF022500E00125284621465DF804BBF0BDFEDE08000020B0B502AF044608780D460B2801D1002003E010462946FFF7B9FF15F80C2F0B2A01D102F01CBA95E8070007C4B0BDB0B502AF0D46044611F80C0F0B2801D1002002E01046FFF7A2FF2A780B2A01D102F006BA95E8070007C4B0BDD0B502AF86B0044603A800F029F89DF80C000B2810D1DDE9040100228DE8070003A86946FEF713FF0398072811D104980221C4E9001011E09DF80F10E171BDF80D10A4F80510DDE90412C4E90212207102E040F20770A0800120206006B0D0BDF0B503AF4DF804BD04460846164611461A461D4600F059F810B10B20314662
S3FF080020EC03E00121002035466170C4E90115207002F081B9F0B503AF2DE9000B4FF494731F4A00FB032089B24FF0000C4FF0060E4FF003080024D0F898901A4860F39F19194800F18003B4F5945F26D0187800B31519B5F86C0006281BD1B5F86E00861EB6B2042E28BF0426042E10D0032E18BF022E0ED1B5F8700088420AD142F80490A5F86CE0C5F86E80C5F804C001E00128F0D004F594740133D5E702F05CB900BF08000020FCFFFF03881200200123FEF7B4BFD4D4F0B503AF2DE9000FAFB081460888D1E901466FF01F010128924604F12805079508BF6FF027018819804A089009A807A9FEF78CFCDDF82480B8F1000F3FD0DDF828B0BAF1000FF1
S3FF080021E6CDF818B054D00BA841465A46FEF7B3FC9DF82C0080BBCDE902650421CDE904944FF0000ADDF833600024DDF851905D46A64219D9A6EB040BBBF1040F28BF8B4600204C450CD0ED6821460B900BAA40460423A847C0B208280CD10B980421069D5C448AEA000AE3E70BA802F0E9F89DF82C0040B1DDF810900020C9F86C00022089F80000ABE00020DDF85110EC6804230B900BAA4046A047DDF81090C0B20828EAD10B985045DDE90265DDE9054BE3D10220CDE903592390072010905A4602960DA951C1616A206ACDE90B0124A84146FEF751FC02F0C5F840F0848004F120000190BDF8A5005D46059024AC02264FF000094FF0000B4FF0000A11
S3FF080022E00598504537D0204602F09DF802F0ACF86BD1BDF8A500824567D2204602F093F802F0A2F861D1BDF8A3002246ED680C230BEB00014046CDF89890CDE92499A847C0B2082851D1082E4FD224AA06EB46030AF1010A0BF10C0B07CA0BAD02F01F0245F8230005EB8300C0E901122398069D461C2396C4E724A841462A46FEF723FC02F072F831D1DDF89D4024A841462A46FEF719FC9DF89000DDF80C9028BBDDF89D6056B124A802F04EF802F05DF81CD1DDF89700801B051F00E00025049E0BA9642206F1080002F0F8F804EB0900002C08BF254608BF0120C6E91B05DDE90110C6E900102FB002F02BB8FEDE7C460008F0B503AF2DE9FE0F06467A
S3FF080023DA3869994693468A46FFF729F9B8B10C46102980F0BD805E484FF4947104FB010550465946FEF749FA8046D5E94301FEF744FA80451CD957483969FFF73EF9D7F80C800021554810290ED045180C46013195F88020002AF6D1396902A8224600F09EF801F0F7FF09D040F20140308002E000207460307007B001F0E5BF0120019685F88000FFF76BFA02A851465A46FEF720FA4FF494713E485D4604FB010BBDF808002946ABF86A005046FEF734FA0621ABF86C100321002808BF0221ABF86E1050462946FEF7CBF9ABF868004046B9684FF00008CBE9401058466821CBF89880CBF8FC80CBE9428ACBF8105102F084F8D9F860100BF19C0CCBE9D6
S3FF080024D44688CBE9208801EB4101ABF814818900CBF89080A1B1B8F1080F3CD24B4608EB480293E861000C390CEB820209F10C0961C2DBF8FC0000F10108CBF8FC80E9E7DBE94301FEF7F7F93D690DF1080A00261FFA80F8B0B2404513D2DBE943013246FEF7F6F902460B46114650462A46FFF72DF901F072FF09D19DF8090058B90136E8E70199002008704C6077E7019940F20130088072E7FEDE080000205C13002088120020F0B503AF4DF804BD01F00F03214C63F00F061FFA81FC04EBC305DEB12988F1B105F108016D88013665450D46F5D141F8042C012221F806CC21F8082C002142701AE0218889B104F108056188013B61452C4614D0002B78
S3FF080025CEF4D1012142600CE001216A60A5F802C0298004E001216260A4F802C0218000214170017001F006BF012145F8042C25F806CC25F8081C41700021F2E700BF8812002080B56F46ADF50A7D8C4A8D4850608D484169B1F1FF3F08DC8B4981608B4981604169B1F1FF3F40F3D6804FF0FF31DFF820B2C2E905014FF00209864800264FF0010A002582F824908046C2E90716B5F5945F1BD00BEB05046A21204601F0B1FF04F582701221C4E92066C4E93F6AC4F89860C4F89060A4F86E90C4F86A8001F09BFFC4E9466605F59475E0E76AA900200022802A04D08B18885008325860F8E706AD502105F1800001F086FF6AA92846802201F06AFF684C2B
S3FF080026C82946D022204601F064FF00200022C4F8D0003AA9C02A05D08B1888500C32C3E90100F7E75F483AA9C02201F052FF06A85E4D0830049053484FF420494FF0000A00F114084FF48014BAEB195F61D106A841462A464B464E46FEF7CCFA9DF81E0098B19DF81F0080B9BDF81C009DF8201000F01F00002924FA00F000EB0609E3D0BDF81820012A09D0DEE7BDF81C0000F01F0024FA00F000EB0609D5E76C9046F00060BDF81A206B900120ADF8AA2101228DF8B411ADF8A80106A86AAC2146FFF70BFDDDF884A0BAF1000F28D00499204664222C464546DDE9066801F0FAFE2298414605903046FEF743F805994246CDF800A0019106A902906AAB26
S3FF080027C208463146FFF703FE9DF8180050B9A8464FF0000A254698E7DFF88C80D8F8D040102C00D9FEDE08F190054FF494764CB128680F28F6D800FB06B0FEF7EBFB013C0435F4E76FF07F000028EBD000F108014044B0F8800000280846F5D008EB0100C06FFFF766F90F28DCD84FF4947100FB01B42046FEF793FC0D480021BFF35F8F01702046FEF7DBFC00BF1C140020803801000020024023016745AB89EFCD08000020FF000600881200205C13002000000020051A0008F0B503AF2DE9000FCDB0DFF8C4AE0446EF4ADAF8100018B1106840F001001060B1F868600121DFF8F4BEDBE84F0FCBE8421F002AF9D10028BFF35F8F41F072823046FEF711
S3FF080028BCBDFE002801F06C8288460C2C00F2C081DFE814F00D008C012B0156019D00A601C201750116020E01EB016600E100B8F10F0F01F255824FF49474DFF8A01E08FB04F00D584FF6FF70290C814200F0878214A801F019FBDDE91496B9F1020F40F06183102E81F03C824FF49470DFF86C1E06FB0010CDF8248008FB041430F86C1F062940F0CC8330F8021F012900F2C78399B1B4F868204FF00108B4F89810ADF850806FF39F2242EA8121ADF8521014A9FEF718F8002800F0B4830AA8DDF824803246414601F010FB9DF828000C2840F0DF864FF002091296CDF8449000F022BCB8F10F0F01F2FC8141464FF49470DFF8EC6D08FB00648A4648439A
S3FF080029B6D4F80480315814A801F0C1FADDE91495B9F1020F40F0A181102D81F0E4814FF49470414605FB00694846FEF7A2FD00260028C4E9006600F02684B9F86A00D046B4F86A10DFF894AD88423CBF1295022600F010BCB8F10F0F01F2C5814FF49471DFF8800D08FB0106D6E90354601980F009813168CDF82480D6E901AB31A801F086FADDE93198B9F1020F40F0CF81CDF800B031A801F022FDDDE93190DDE93323B9F1020F40F0E883DFF830ADC007DFF82CBD00F0B48109984146CDE90005029414A801F05AFB9DF850000C2840F06C8515980021C6E9001000F026BCB8F10F0F01F281814FF49470DFF8F86C08FB00604568062D80F03B81016895
S3FF08002AB0CDF82480B0F89880B0F8684014A801F041FA1498002800F05A83012840F05E839DF85420DDE916010B2A00F05283BDF856409DF85530DDF824801DE1B8F1100F81F054814FF49470DFF89C4C08FB00F1DAF80820DAF80C3008FB0040625000F1800676CE0A4304BF15461446C0E901310C3070C026E2B8F10F0F01F2378142464FF49470DFF8604C08FB004109925043D1E9028B4E68B1F89890B1F86850215831A801F0F7F93198002800F0E781012840F013829DF8C800DDE9338B0B2800F02B82BDF8CA209DF8C9103CE3B8F1100F81F00C814FF49472DFF80C1C08FB0210DAF80840DAF80C5008FB02F28958002900F03181D0E90123002695
S3FF08002BAAC168A41A75EB030480F00E82012428E1B8F10F0F01F2ED804FF49472DFF8D01B08FB021008FB02F240688C58002800F0AB81012840F0CB81DFF8B83BA6E1B8F10F0F01F2D6804FF49470DFF8A01B08FB00142046FEF7E8FC012840F09B8000264FF6FF70C4E90060C4E90216C4E90466B8E0B8F10F0F01F2BC804FF49471DFF86C0B08FB0104D4E90365A819C0F0AC8040F20710ADF844004FF00109CBE21408004801201090002094E1B8F10F0F01F2A0804FF49471DFF8340B08FB010508FB01F16C68415814A801F067F9DDE91492B9F1020F40F0BB8000264146009614A8234601F002FBDDE914911798B9F1020F40F01882C5E90061A8600F
S3FF08002CA4C1E2B8F10F0F01F277804FF49475DFF8E44A08FB05F020586FF39F20FEF7BAFC002800F02D810F2901F266804FF4947208FB0540002601FB02411196B1F89820B1F8681002F03F026FF39F2141EA822101600220109096E208208DF8500014A94046FFF74BF9064612918CE2DDE91601D046CDE91201CDE91095DFF870AA0CE3082307228DF845304FF001098DF844200C220823ADF846404DE2B4F868100122E5684FF6FF73B4F898006FF39F214FEAD57941EA802648462946ADF82861FEF755FC002800F04081002649EA0540C4F86E00B4F86C000621A4F86C10062841F00B80022E18BF0126089812904BE22168CDF82480D4E901AB31A865
S3FF08002D9E01F0D1F8DDE93198B9F1020F1AD1CDF800B031A801F06EFBDDE93192DDE93301B9F1020F40F03782DFF8C8A99207DFF8C4B900F173824FF000090120CDF8489011908EE13499339813911290CDF84480CDF84090DFF89CA90FE2DDE91601CDE91201CDE910929BE2C16800240026C0E92046C0E92223C0F8901007E23046FEF70CFC002800F0BB8789460F29CDF8248000F2B5874FF49471DFF8603909FB013409FB01F1D4E902AE6FEA0A002546D4F8108055F8042F595A6FEA080C4B1E0B2B00F25281DFE813F00C0025030803D502D502D502D502D502D5025103D8027403824298BFE64500F2448414A82146534676460794FFF7ECF8DDE9B1
S3FF08002E981490B9F1020F40F0BC84FEF7C9FB002800F0A686079D102980F074874FF49470DFF8DC3801FB003032464346D0E91D160691B0F86E1008912946B0F87240B0F86C90B0F870A014A8FEF7F7F801F0D1FA40F0C186DDE91501B9F1060FCDE94A0140F02087002901F00A8000215246017001204C9010A84AAB0899FDF77DFF1098072800F0ED87119900F0F1BF01201090022028E0DDE9338B4AE0DFF86C38DFF86C980025002005EB450109EB81010C390F2D11D831F80C2F0135002AF8D08A88B24204BF8A68A242EDD10893488808998847089B0120E6E7C00701D0002658E10120109006208DF8450007208DF84400DCE1DDF8C8A00896BAF18A
S3FF08002F920F0F00F202876FF39F2545EA8920ADF8C800EE4831904FF494700AFB004931A909F16C0001F0B3F8002800F013814FF00008DFF8C8A74FF00209082004211BE1C0E92066C0F89010FEF7A5FA24E1DDE916011391CDE91160F9E0002DCDF810900694CDF82480059500F12381DDF824A00DF128090DF5947800204FF4947B0790DFF89407D0F8D060112E80F0BE86002435460A94DFF88007A64215D000EB8400D0F89010514508BF2546B5420AD20F2900F2AB86DFF85007424601FB0B004B4601F0BDF90134E5E7DFF83CA700F1900485B1002E00F099862168102980F0958601FB0BA042464B4601F0A9F9013D013E0434EDE70A98012840F05D
S3FF0800308C2A81DDF82CA014AC099A2046514600F083FF9DF850000C2800F02881484621465246FEF7B1FF9DF828000B2840F02781DDE90B23DDE90701FEF76AFACDE90701A1E7169ACDE91091CDE9122031E14FF001080421062261F30F05B4F86C10C4F86E500629A4F86C2040F05286CDE911804FF00209CDF840908AE0142900F05282152900F07C821F2900F0F782202900F00483242940F07681824200F2F382042E40F0EF8314A801F092F901F0A8F940F0F4841698DFF8ECADDDF82480012840F21085159801880AF11400FDF7CDFE04461920FEF7FFF801F051F918BF032118BF0322022808BF0A46002C18BF0022119250E0DDE916014FF0020973
S3FF080031860822042324E06FF39F2444EA8828159C0F2C00F20086704814904FF4947004FB0060ADF8548014A96C3000F0B6FF50B90A208DF851508DF850002046ADF8528014A9FEF7EAFE4FF00209082200200423DDF8248010ACE050A150CDF840901CE06FEA0B00804555D907200121DFF83CAD8DF845104FF001098DF844000C200821ADF8462010AA42F8018042F800B0CDF84090DFF818BDDDF82480B9F1020F40F08B80119E1298ACE011A90DC1DCE51391CDE91120D8E5D046DFF8F0ACF2E70AA8294600F07CFEDDE90A98B9F1020F64D1B8F1100F80F09F854FF49470DFF8D41C08FB001031466C30FDF7AAFB069C0028DDE9049500F0778231A83B
S3FF08003280099A414600F08EFE9DF8C4000C2840F0B0820026DDF8248079E5D9E903104218C0F0948040F20710ADF8C40031A95046FEF776FE80468B4684E6CDE900803246029114A809992B4600F032FF9DF850000C2840F04A8115980021C4E9001011910CE7DFF84CACDFF84CBCDDF82480DDE90646DDE904953AE5079EDFF834ACF6B2DFF830BCDDF8248040E501F0B7F8DFF820AC42EA0141DDE90B32DFF818BC05E0DDE90C324FEA18215FFA88F040EA0120DDF82480CDF84090CDE912321190B9F1000F0FD010A814A904300A4690E83800404638C2FEF724FE0646084614E000BF06000500B8F1100F80F018854FF49471DFF8C43B08FB01F2DDE956
S3FF0800337A1146139808FB01319C5000224A60EE4D86B1012E04BF4046FEF7AFFB102880F000854FF49472DFF8941B01F054F82046FDF795FF0020BFF35F8F8BF80000DAF8100018B1286820F0010028604DB001F02AB8CDE900A14246029014A809995B4600F0A9FE9DF850000C2840F0C78115980899DFF840ABC9E900100320C9F86E000621B9F86C00A9F86C10062840F0C9844FF00008DBE540F207707EE1DFF818AB0025DDF8248040F2FF3086424FF0000040F07583D4E943012646FDF700FAFEF7FEF8002800F026820F2900F2AA844FF49470DFF8E82A01FB0020344690F81411002900F05B83B0F89810B0F8680001F03F016FF39F2040EA8120E1
S3FF0800347450E3824200F24A8114A8214653462546FEF7F3FDDDE91490B9F1020F40F0C381DFF898AA0104DDF824801CBF81B28E4240F0468340F20730FFF7C7BB824200F22D8114A821465346A146FEF706FE00F0E2FF40F0B581DDE9150131AB002207C314A831A9FDF7F0FC1498DDF8248007280DD1DDF854A014A831A9FDF780FB1498072804D19DF85440022C40F07E8340F20771A1E1824200F2018114A800F0A3FF00F0B9FF40F0A981DDE9150131AA002413C214A831A9FDF762FB1498DFF8FCA9DDF82480072840F0E0829DF85400C6E9004486F814011194E7E2002094F81511C4E900104FF0020961E131A814A94246FEF756FD04E031A814A99A
S3FF0800356E4246FEF767FD9DF8C4000B2808D132984FF000093399129001201391FFF728BC9DF8C7104FF001098DF84710BDF8C510ADF8451033991391329912918DF84400A7E5002340F2FF30864240F0FA80D4E943010595FDF739F9D4E943010794FDF734F90890FEF731F88046002800F09B810F2900F2DC834FF49470DFF84C2901FB00200899B0F89840B0F868600020FEF74AF86FF39F2646EA842684E1824200F2808014A8214653460794FEF729FDDDE91491B9F1020F40F02A8110AC2046FEF7A0F9BDF840000125DFF8F8A8DDF82480012840F07483BDF84200ADF8C600201DADF8C45031A990E858000A1D58C214AC00222046FEF79DFD2F98E9
S3FF080036680890002800F05E83DDE9145604F1080131A8642200F08DFF28463146309C0696FDF7D6F8FDF7D4FF002800F018831029CDE9044580F07E834FF49470DFF8902801FB0026D6E94301FDF72BF91FFA80FB3C48DFF880580DF5947A00248046A0B2584580F06682D6E943012246FDF726F9B0F5007F80F05E83024600F01F00012101FA00F0510948F8210050462946FEF7B3F84A98002840F04D830134DFE7824298BFE64540F2C98040F20710ADF844004FF00109CDF84090DFF80CA87AE5042E4BD1DFF804A80AF11400FDF7D8FB00214FF00209C4E90001119146E0140800481C14002014A80AA93246FEF776FC00F098FE3DD1DDE91580B8F1DA
S3FF08003762020F18BF4FF00108B8E40026DDF82480FFF7FCBA31A814A95246FEF761FC9DF8C4000B284ED1DDE9328BFFF71ABC1C1400200000002008000020111E0008ED1D00085C1300208812002080E100E00422254600200021DFF874A7DDF8248098E1DFF86CA740F207304FF00109ADF84400DDF8248003E59DF853108DF84710BDF85110ADF8451016991391159912918DE10AA831A94246FEF70CFC9DF828000B2847D1DDE90B0108910228064618BF0126002808BF0646A9E7179A16991392129111907AE7DDE9328BBDF8C6209DF8C510DEE49DF85310BDF85120DDF8248042EA014140EA0121DDE9150211914FF00109010E8DF84800000A139276
S3FF0800385CCDF840908DF84B10ADF84900DFF8C4A6D8E400F0F9FDDFF8BCA6DDF8248042E1DFF8B0A6DDF82480DDE91602CDE9120252E20020344641E100F0F2FD42EA0141DDE90B3244E5042E33D114A815462146724643462646FEF7DCFBDDE91494B9F1020F40F06681304629465246FEF766FC002800F0E081DFF85C8621462A46534608F11400FDF734FB04465020BAFBF0F0C246FDF737FD00F089FD18BF032118BF0322022808BF0A46002C18BF0022119286E440F20730FFE640F2FF30FDF78EFE012840F03D8240F2FF300C46FDF7D2FF002840F0358214A808992246FEF71EFE9DF85000002840F02B82079DD5E94301FCF774FF01210024C5E992
S3FF08003956464401EB96210496B8F1000FCDF8188018BF01F03F08A5F868004FF49470DFF8C01509FB0010C5F8988000F5867BD0E94301FCF7BFFFDFF8AC851FFA80FAA0B2504533D2DBE900012246FCF7C0FF81B200F00F00421E00EB400308EB83039E1C0F2A0AD033460C3633F8025C0132002DF6D01B888B42F3D110E008F102030022904200F0E0811E460C3336F8025C0132002DF5D035888D42F2D1013A02EB42000899013408EB80008180C8E70698D8B104994846FEF779FB0420FDF712FEDFF818A50028DFF818B500F0BD810F2900F2BA814FF49470DFF8082501FB00200121FDF777FD804605E04FF00008DFF8ECA4DFF8ECB40798D0F80C119B
S3FF08003A5014A8FDF78DFFBDF85000032800F09E81159E0AF11405DFF8D82431A806F178432946FDF723F99DF8CA00002800F08E819DF8CB00002840F089819DF8CC00002840F08481BDF8C6100122BDF8C400BDF8C830CDE9000114AC00212046FCF7BCFF00F0C1FC002840F071812846FDF713FA002840F06B81B8F1000F09D00420FDF7B3FDDDF82480002800F06081022002E00120DDF82480079C0022059D0023226010AC08222B60606010A881500FE007210720CDE91243ADF846208DF845108DF84400FFF796B80020C4E9000511954FF00209FFF75DBB00F09DFCDFF804A4DDF824801EE0FDF780FD002800F0A680B5F868200923B5F898002C469F
S3FF08003B4A8DF850306FF39F2242EA8020ADF8520014AA08461146FEF71EFA0020C5E900001190D7E7072107204FF0010940EA0120CDE91243ADF84620CDF84090ADF84400FFF749BBDDE916011391CDE91140C0E596F81401002800F0818001204FF0004186F815013046FDF7BAFCB6F86C00DFF874A3DFF874B30628DDF82480DDE904457CD1B6F86E00023880B2042828BF042000F00600022871D10320D149C6F86E000620A6F86C000020C6E9001066E040F207208AE55046FDF71AFD002800F0B6808846102980F0C5804FF49470C84908FB0015B5F8980008902846B5F868B0FDF704FEE4070AD003200621C5F86E00B5F86C00A5F86C10062840F0A1
S3FF08003C44AB8008986FF39F2B4BEA80214046FEF755FA1FFA8AF0864240F09380002C40F093804FF00209012091E09DF85310BDF8512042EA014140EA0120DDE915211391CDE9110246E540F20720FEF7D6BF4FF001094FF480701395CDF84890ADF844003AE50020DFF884A2A6F87200092086F870000320F066DFF878B2DDF82480DDE9044540F2FF300899CDE90014294602904AA831AB069AFEF779FB4A989DF82811C0B219B1002857D001251DE0002853D14B98102850D24FF494718E4A00FB0120002540F2FF310123C0F89850A0F86810DAF80810DAF80C20C0E94635C0E94812FDF757F9DDF8248007980021C0E90051CDE91091FFF772BA002951
S3FF08003D3E00F0EA8001214FEA1A2B01705FFA8AF04C91C846DFE800F006522B6724848D6D9E4BA8004B98012840F2B1804A980021417002204C9022E040F207204FF00109ADF84400FFF734B80020C9E900004FF002090020CDF840901190FFF72BB8FEDE4B980228C0F074804A9804215DE04B98012840F28C804A98022141704C9114A84AA9069A3346FCF7E6FF1498072825D14B994C98884280F07C80BBF1000F18BF4FF0010B4A9901F800B001303FE031A84AA909222346FCF7BAFF47E04B98012865D94A980121417002204C9014A84AAA0699FCF7DBFF1498072863D0169A15993392329156E04B98022831D34A9803211BE04B98022851D34A9933
S3FF08003E3807224A7002214C91DFE80BF0050505050505050549004B98022842D94A9880F802B0032020E04B98022814D34A980521417002204C9038E04B9802280BD34A980621417002204C9031A84AAA0699FCF7A0FF319827E0002034E04B98022820D34A980821417002204C9007201AE04B9801280FD94A980A2141704B9803280BD94A9844804B98042806D94A9880F804B00520CFE74AA832900020319012E00228BCD10020319007280CD114A84AAB089A4146FCF791FF1498072806D1072010904C990DE01090329901E01599109030B1072805D040F20770DFF820B0B5E61021079A002011904FF00209C2E90001FEF762BF00BF0000FFFF1C14E8
S3FF08003F32002000000020080000205C130020051A0008B0B502AF044608466FF39F200D46FDF771FB90B110291ED20F484FF4947201FB0200ABB2D0F8980000F03F02B2EB932F09D10220C4E90001B0BD40F20720A08001202060B0BD054A0021A16062F39F10C4E90010B0BDFEDE08000020FCFFFF03F0B503AF2DE9000F8FB00F2900F29B804FF49478584D01FB085683460792D6E904A906F1040EB6F898000690B6F8680005905FEA897001FB08F0B46908949EE80C406FEA030C285A049002D04FF000080AE00C204FF00008A4FB005020B9E843814598BF4FF00108624503D90B20CBE9012306E06FEA0A0086450BD90B20CBE901EA8BF80C0040F292
S3FF0800402C0710ABF800000FB000F0F4B9B8F1000F15D007984FF49474354D00FB04584443D8F804C02C591CEB0405089D0ED340F20711CBE9014CABF80C100B2055E00B208BF80C000898CBE90190D8E78DE8111009AC204600F056F89DF824000C282FD1059900220698B8F868306FF39F21C8F8145041EA80200A9980B26FF39F23C8E9002008F10802049882E803040620B8F89820B6F86C10A6F86C0043EA822212040532C6F86E20062901BF0321C8F86E10B8F86C10A8F86C0008BF062914D0FEDE9DF827100BF108028BF80310BDF82510ABF8011004F10801DDF828C091E8780078C2CBF804C000E00C208BF800008AE70800002080B56F46FDF7C7
S3FF0800412648FD80F0010080BDD4D4F0B503AF2DE9000F8BB0D7F810808146B8681C4643459346454638BF1D46814211D210293FBF4A1C801A81F00F03984279D24FF494764A4B02FB063201FB063100FB062A12E088423FBF1028421C891A80F00F0338BF994265D24FF49476404B00FB063A02FB063001FB060168465A462346FE68FDF793FF0021B8F1010041F1000144B139B104EB0B010139B14224BF3044584553D203A8514632464346FCF780FF9DF800409DF80CA0DDE904860B2CBDF80D00ADF818009DF80F008DF81A0008BFBAF10B0F29D00B2C05D068460B22411C07A800F0BFF9BAF10B0F1FBF9DF81A008DF82A00BDF81800ADF8280089F87F
S3FF08004220004009F1010007A90B2200F0ACF9BDF82800A9F80D009DF82A0089F80CA0C9E9048689F80F000BB000F0EAB8B5429CBF0298854200D9FEDE019940462A4600F092F90C20C9F8045089F80000EBE74FF001089DF800409DF80F004FF0000A8DF80D808DF81A00BDF80D00ADF81800B3E7080000200F2A00F29680F0B503AF2DE9FF0B81464FF49470474E01FB0061154605FB00649846454B0193B1F89820B1F8681004F16C006FF39F2141EA8221ADF8081001A9FFF724FF30B100200121C9E90001C9F8080018E06069810707D1D4F818C00C22ACFB02320AB91A1810D340F20710ADF8040001A92846FDF749FE01220023C9E90032C9E9020121
S3FF0800431A08B000F091B8BCF1000F2BD04FF49472D4F8FC4005FB0262034404EB4404A432A40084B152F8086C864209D852F8041C31448B4204D8116801F01901012911D00C3C0C32EDE7079001244FF480700694ADF8140005A92846FDF715FE0022C9E90024CBE7C44516D908EB4802B968002400EB8200D0E90123551844F100048B420CD35CB900685B1A02241144C9E90213C9E90040B4E740F2074001E040F20750A9F804000120C9F80000A9E7FEDE0800002006000500F0B503AF4DF804BD0D46118806466C301C46FCF7F0FA50B12168B6F86A0011B12189884203D220810120C4E9000500F000B85DF804BBF0BD00221291C6E900424FF0020950
S3FF0800441402210122CDF84090002C7047BDE8000FF0BD41462A46FCF797BB9DF80800002870472846314622462023FCF785BDBDE8000BF0BD9DF890000028704700FB02142046FCF783BE214653462646FDF735BEDDE91543BDF852209DF851107047C4E901010B202070B0BD9DF82B104FF00109BDF8292070479DF850000B287047099942465346FFF7FCBEF0B503AF2DE90007102A08D300F095F8A64206D213F8015B06F8015BF8E7034629E0A2EB080C88442CF0030E04EB0E035FEA887115D0182101EAC8090021A1EBC80101F0180A28F003010D1D09689C420DD221FA09F602CD01FA0AF2324304C4F5E741469C4202D204C904C4FAE708EB0E01B7
S3FB0800450E0CF003021A44934204D211F8014B03F8014BF8E7BDE80007F0BDF0B503AF4DF804BD102A09D34342054603F0030403199D4204D205F8011BFAE7054612E0121BCCB20825202D04D204FA05F66D003443F8E722F003051D44AB4201D210C3FBE702F003022A44954202D205F8011BFAE700F032B8FFF78BBFFFF7FCBF032A98BFFFF7F8BF08C9043A08C0F7E7FFF7F6BF0B4611461A46FFF7C0BFD2B24FF001335343032998BFFFF7F3BF08C00439F8E7FFF7F3BF0022FFF7F0BFFFF7FBBF0022FFF7EBBFFFF7FBBF4342064603F003080B4600EB080470475DF804BBF0BD70460421084202D1EFF3088002E0EFF30980FFE7FEE7D4D41E
S38D080046045D0700086D0700087D0700088D0700089D070008AD070008BD070008CD070008DD070008A0860100400D0300801A060000350C0040420F0080841E0000093D0000127A000024F40000366E010048E801006CDC02000000000800000004000000C30A00080100FFFF06000300000000000000000000000000000000000800000004000000C30A000835
S3090800468C010000001B
S3FF0800A0000000000000000000FFFFFFFFFFFFFFFF0000000000000000FFFFFFFF0700FEFF00200020001000007F48424601006C1500000A000100000004003C000200000000005400070000007000010068150000050001000010000081000000000000000000000000040048000400000B00000000540040000400000B000000480F00004C0F0000500F0000281000002C100000A4100000A8100000020000000100000001000000FFFFFFFFBFF34F8FBFF36F8F00F0DCF9FEDED0B502AFD0E91024944201D10020D0BD21448B1AA11A4C1C08BFB3F1004F0FD093FBF1F4002904FB11331A4400D54942002B48BF0A4402F00F0100EB8100D0BDFEDED0E957
S3FF0800A0FA10218B1A102B04BF013202644A1C01F00F01426400EB810080ED000A704780B56F4688B0002104220791CDE90512012104914FF4DA71CDE902010248019001A800F0F3FFFEE70000FF03F0B503AF4DF804BD40689E46204E4900CDB2204B4468D7F808C03440611901F502214160194601392CD000BF8469A407F9D5D1B281621946013923D000BF82699207F9D54168022262F34E314160426806F5804111405FFA8CF241EA02410E4A294311430022416062451D460ED0013D08D000BF81694907F9D5416A0EF802100132F1E701205DF804BBF0BD0020FAE7009800FD8138010001240002F0B503AF4DF804BD40684FF48036174D01F07F0127
S3FF0800A1F444682540BC6806EB04463FFA86F646EA41012944114D2943416011490D46013D13D000BF8669B607F9D5D2B282620022A2420ED00D46013D07D000BF8669B607F9D59D5C01328562F2E701205DF804BBF0BD0020FAE700BF00D800FD0120000281380100D0B502AF427840F2A32401788378C07800F0A0BFD0B502AF427840F2A32401788378007900F096BFD0B502AF417901F10902022988BFCA1E992151430522437802318478B1FBF2F102780079C3EB0313084440F2A32148434FF46161614301EB8301114401EBC01001490844D0BD00BF80AEFEFFF0B503AF4DF804BD42794FF4C8731D4CC188032A38BF0139B1FBF3F303FB0414194921
S3FF0800A2EE90F800C04578022A8678007903FB010002F1090188BFD11E9922514305220231B1FBF2F1C5EB0512084440F26D1100EB940004FB01006421B4FBF1F1C943084440F2A32148434FF46161714301EB8201614401EBC010044908445DF804BBF0BD00BF70FEFFFFB13A0200009EDA86F0B503AF2DE9800F2DED028BECB08A4681460025EB46B5F5B87F06D00BEB0500172101F06BF81735F5E7DAF880810021524608EB48004FEAC00CBCF1000F1ED0B1F5B87F60D0137DACF1180C0BF801300BEB01031731D2E90304C3F80D00907D92E860405875507D1832C3F80560C3F80150C3F809E0C3F811409875DDE70DF5B87B00200021402903D04BF819
S3FF0800A3E801000431F9E70AF5C4769FED1D8A00250024402D09D000F0F3FEB0EE480A08B190ED000A00F0E2FEF3E79FED158A00250024402D09D000F0E3FEB0EE480A08B190ED000A00F0D2FEF3E709F1020069464FF4B872BAF8844100F0E5FFA9F8728109F5BA70A9F800405CA900F0C6FE6CB0BDEC028B01B0BDE8000FF0BDFEDE00BF00000000B0B502AFADF5E56D0EA84FF4DA7100F0F2FF00260420CDE984600120914D86968390CDE98106809580A800F045FE0446000403D14FF00008002027E0A94680AD284600F02EFEDDE9801242F210704FF08043091842F10002012000F005FE0095C8F200040EA84FF4DA714FF08042234600F006FE30B91A
S3FF0800A4E2BDF800024FF6FF71884240F099804FF0000800204D460221764CADF8EE1175497D947C91CDE97E61C8B100200421CDE9840101218690CDE9811005F109008391809080A800F0FDFD002840F0C884DFF83C0AF6AAC10740F08E80132198E00DF5F7701E2100F049FD002840F0B8840DF5F7701E2100F07FFD002840F0B0845D4A0A21106861F313401060506A442161F3070050625068112140F4407050600DF5F77000F02AFD002840F099840DF5F770112100F060FD002840F09184206848F2FF310F2220F0010020604B482061A06888434A4900F50040A0606068084360602068492120F4202000F500202060206840F0010020600020ADF8C9
S3FF0800A5DCF803022000907CA8FEABFFF7ADFDB0B9BDF8F80341F2017120F0F00088420ED142F202004921ADF80002022000907CA880AB0122FFF7E6FD002800F054840220002100F0ADFC0020002100224FF08043829C00F051FDB4F5DA7F00F243844FF00008B4F5DA7F7FF457AFB8F1000F40F039840DF138084D4601204FE74FF060400168C907FCD04FF060405B2101701221DFF8000901300132079200F00302022A0AD14FF060421368DB07FCD030F8022B02394FF060431A8000224FF060430446042A06D01D68ED07FCD020CC01321D60F6E701F0030102291CD34FF060421368DB07FCD0028A4FF060431A800239123011E000BF0B00FFFF00544E
S3FF0800A6D60040000400483C14F01000800002000000000000003CFFFF7FFF1030012908D14FF060410A68D207FCD000784FF060410870012000F019FD00204FF6FF74B8F1000FCDF87805CDF8F805CDF8F40540F08C830DF57E7A80AD4FF4C2722846514600F074FE05F5C4780DF2B45B48224046594600F06BFE0AF102001FED1C8A1FED1C9A1FED1CAA08900020ADF88443CDE90300CDE9050000206821CDF8FB030022FE90072000907CA85346FFF7E0FC002840F0C5839DF8FE030C909DF8F8030D909DF8F9030B9050469DF8FA439DF8FB939DF8FC639DF8FD5300F0AEFCD446DDE9FEA206980599BAEB000062EB0101D0F57A704FF0000088414FF067
S3FF0800A7D0000022D2ADF8F803022005924921CDE901560022CDE90994634600907CA8FFF7A9FC002840F09A83BDF8F8030DF57E7CDDE90994C0BADDE90156CDF818A000EE100AB8EEC00A20EE098A2909320901EB810105F00F004FEA191302EB820200EB410006F00F0103EB830301EB420109F00F02000602EB430E04F00F03C4F3011444EA840403EB44020B9C04F00F03240904EB840403EB44090D9B0D9203F00F045FFA89F6C3F3021505EB850504EB45030C9D0C9305F00F042D0905EB850504EB45044FF4FA6555FA84F4CDB2210442EA0E2440EA054041EA10400A90F59043EA062040EA04400990F490604600F027FCDDE9FE9A40F2CE7204982D
S3FF0800A8CA0399B9EB00006AEB0101101A4FF00000884106D2B0EE480A4046FFF708FCCDE903A90D9A4FF46161C4F307200024FE945143C6EB061201EB82010C9A0A44D84900FB0120CDE90C0205FB01200B90E09800EB40004FEAC00AA24565D080A8051905F10806687DDFE800F003351F2A1000F4A8FFF7C6FC81462846FFF7C2FC814550D33046FFF7BDFC0BE0F4A8FFF793FC81462846FFF78FFC814543D33046FFF78AFC814531D33DE02846FFF770FC0C99814237D33046FFF76AFC0C9923E02846FFF76FFC0B9981422CD33046FFF769FC0B9918E0A9784FF4616268785143C0EB001001EB800080A9095D08440D99814218D3A97A687A5143C0EBC8
S3FF0800A9C4001001EB8000317808440D9981420CD295ED040AB4EE480AF1EE10FA05DDA87DFEA90844012100F8011C183497E70DF57E7A0020042812D080F060821AF800107EAA11540029DFF86C15DFF8642508BF1146964A51F8201001309161EAE7F6A8202100F01CFD504600F06FFBDDE9FE0210F5FA7142F100020120012300F048FB7E980D908A4A2021CDF800A0F6A8002300F04AFB0028F5D1FF984FF6FF71BDF8F893894500F0E081411E062900F28480DDF80004DFE811F007008300490069001200FE001A0109980021FE9052460A980823FF90484600F06DFBD3E70024B4F5B87F06D00BEB0400172100F0D3FC1734F5E7DDF880A380A90022DA
S3FF0800AABE0AEB4A004FEAC00CBCF1000F00F05581B2F5B87F00F0F5810B7DACF1180C0BF802300BEB02031732D1E90304C3F80D00887D91E860405875487D1831C3F80560C3F80150C3F809E0C3F811409875DBE700200021402803D04AF800100430F9E700260021B1F1100400F0FA800D4640462146FFF7C1FA04F111010028F2D0102E00F0BF810068691C4AF826000136E9E70D98CDF8B4050020042805D01BF800100AF800100130F7E7FE980DF5B662CDF8B00548460021042300F0FFFA65E7484601210EE1212880F09C810021002940F09881082840F09581BDF8DE0301097C2940F28F819DF8DD134FF00A0E9DF8DC633030B1FBFEF29DF8DB5371
S3FF0800ABB802EB82039DF8DA439DF8D8C3A1EB43019DF8D93341EA02128DF8FD23B6FBFEF202EB8201A6EB410141EA02118DF8FC13B5FBFEF101EB8102A5EB420242EA01118DF8FB13B4FBFEF101EB810201F00B01A4EB420242EA01118DF8FA13B3FBFEF101EB8102A3EB4202534642EA01118DF8F913BCFBFEF101EB8102ACEB420242EA01118DF8F813C1B2B1FBFEF101EB8102A0EB4200002240EA01108DF8FE030720682100907CA8FFF7BFFA002858D04846032199E0805101000004004801000080212880F02181172840F01E819DF8ED03411F11F1050F40F217819DF8EE130522052928BF114680F00F81E09A102A40F080804846042177E02128EA
S3FF0800ACB280F00581012840F00281E09880AD9DF8D84300EB4002D30005EBC2014FF0FF32002B62D005F118062D7D0132183BA5423546F5D1904240F2EA8002EB420080AA183902EBC000182200F098FBE0980138E090102C80F0DB800120BDF88413A0400843ADF884034846002140E05846514600F05EFAB0EE4ABA0024661C112E13D064F00F014046FFF7BDF930B190ED000AB4EE4B0AF1EE10FA02DC01340136EDE73446B0EE40BAE8E75046594600F040FA0DF5806000215246442380ED0EBA484600F001FA67E6089859464FF4B87200F045FBADF8F8A30DF57E7A4846002152464FF4B97300F0EFF955E6484605210122002300F0E8F94EE6079BAA
S3FF0800ADAC4FF0010CBDF884A3102A5D680C95DD680B951C68D3F808E01D69CAF1000303EA0A039BB2B3FA83F3C3F11F0303F00F060CFA06F62AEA0606ADF884636AD200EE105A80AD02EB42020DF57E7A8DF8F83345F8324005EBC2020C9CC2E9014E9075E0980B9C0130517513750021E0904846D460012382ED040A524600F0A7F90DE6B0F1FF3F74DD002000210022012300F04BF995E4B8F8720117210DF57E7E002300FB01FC002129E02E7E052E2CBF0526102B2FD203EB4303D5F80320D5F80BA017314EF833200EEBC302D5F80F90D5F8070095F802B0D5F81350C2E9010ADDF8780500EE105AC2F80C90431C9475567582F814B082ED040ACDF8A8
S3FF0800AEA678358C4543D0B1F5B87F1FBF08EB0105EC7D661F16F1050FC9D8FEDE0DF5F7701E2100F088F80028F7D10DF5F7701E2100F0BFF80028F0D1214A2149906808409060506820F48E605060106808401D490843106020209061102090614FF4806090614020906100207E90FFF7FCBA80A9032000F030F8FEAC80A92046FFF71BFA2046FFF7F6F880A9022000F024F808F5BA7180A800F052F90DF2B4540025402D08D080A8284490ED000A2046FFF7D1F80435F4E7B8F80040FFF7E3BB00BF00040048FFC0CFFF001510007CB40008A0B4000890B4000880B56F46EEB08846054611B9002000F0D9F801AE4FF6FF74012000214FF0004200230096CF
S3FF0800AFA000F0A4F80028F5D1BDF80400A04207D1B8F1000FEED00298B0F1FF3FEADC05E029460122002300F0D7F8E3E701AD41462846FFF7C3F92846FFF79EF8F0B503AF2DE9000F8BB00446A1F11100C0B20D2804D843F20731C140C90704D102200BB0BDE8000FF0BD124900F0C2F8114951F8200001900420099508903004013000F0D1F848B1024610F5807F08D36FF39F2646EA82262680EDE749B90020DFE71046022A18BF0320012A08BF1046D7E7FEDEB0B40008E8B40008F0B503AF2DE9000F8BB00446A1F11100C0B20D2804D843F20731C140C90704D102200BB0BDE8000FF0BD124900F084F8114951F8200001900420099508903004043008
S3FF0800B09A00F093F848B1024610F5807F08D36FF39F2646EA82262680EDE749B90020DFE71046022A18BF0320012A08BF1046D7E7FEDE20B5000858B500082DE9F04804460D4616461F464FF0030B00DFBDE8F088FEDE2DE9F00F04460D4616461F46089B4FF0010B00DF204683E8E003BDE8F00F7047FEDE2DE9F00F4FF0090B00DF80E8F003BDE8F00F7047FEDE2DE9F00F90E8F0074FF0000B00DF20462946BDE8F00F7047FEDEDEDE80B56F4688B007F81D0C002004210790CDE905010120CDE90300A7F11D0002900448019001A8FFF7DDFF08B908B080BDFEDE00BF0A00FFFF2DE9F04804460D4616461F464FF0020B00DFBDE8F088FEDEA7F11D0AD5
S3FF0800B19426880DF104090DF10C08002551F820104FF0080B02917047C2EB021260434FF46164634303EBC01000EB82000844D0BD03904046CDE906A5CDE9049BFFF7A8BF0BEB05000134043580ED000A7047402200F013B964F00F013046FEF762BFF0B503AF2DE90007102A08D300F032F9A64206D213F8015B06F8015BF8E7034629E0A2EB080C88442CF0030E04EB0E035FEA887115D0182101EAC8090021A1EBC80101F0180A28F003010D1D09689C420DD221FA09F602CD01FA0AF2324304C4F5E741469C4202D204C904C4FAE708EB0E010CF003021A44934204D211F8014B03F8014BF8E7BDE80007F0BDF0B503AF2DE9000F431A934211D28E18FF
S3FF0800B28E8418102A6FD304F0030C751E24F00309CCF10008A1450FD215F8013904F8013DF8E7102A4DD300F0D7F8A64229D213F8015B06F8015BF8E7A2EB0C0EB0442EF00302A9EB0205C2F1000C5FEA88723AD028F003030022A2EBC80218211E6802F0180B1A1F01EAC80A4B469D4235D206FA0BF152F8046926FA0AF4214343F8041DF3E7A2EB080C88442CF0030E04EB0E035FEA887130D0182101EAC8090021A1EBC80101F0180A28F003010D1D09689C4228D221FA09F602CD01FA0AF2324304C4F5E7034622E071444A460439954204D251F8043942F8043DF8E708EB0C0609EB0C040EF00302A11A721EA14216D212F8013904F8013DF8E7414678
S3FF0800B3889C4202D204C904C4FAE708EB0E010CF003021A44934204D211F8014B03F8014BF8E7BDE8000FF0BDF0B503AF4DF804BD102A09D34342054603F0030403199D4204D205F8011BFAE7054612E0121BCCB20825202D04D204FA05F66D003443F8E722F003051D44AB4201D210C3FBE702F003022A44954202D205F8011BFAE700F036B8FFF7F2BEFFF7FCBF032A98BFFFF7F8BF08C9043A08C0F7E7FFF7F6BFFFF72ABFFFF7FCBFFFF7FCBF0B4611461A46FFF7BABFD2B24FF001335343032998BFFFF7F3BF08C00439F8E70022FFF7EDBFFFF7FBBF0022FFF7EDBFFFF7FBBF4342064603F003080B4600EB080470475DF804BBF0BD5B544845524D4B
S3FF0800B4824F76315D204F6E6C696E65210A00000020000000100000000004000040002000000010000000000400004000000015000000160000001700000001000000010000000100000001000000010000000000000001000000010000000100000000000000010000000300000003000000030000000100000001000000010000000100000001000000000000000000000001000000010000000100000001000000150000001600000017000000010000000100000001000000010000000100000000000000010000000100000001000000000000000100000003000000030000000300000001000000010000000100000001000000010000000000000021
S31D0800B57C000000000100000001000000010000000100000039A654660C
S3FF0800C0000000000000000000FFFFFFFFFFFFFFFF0000000000000000FFFFFFFF0800FEFF00300020000800007F4842460100F40700000B0001000000000000000000000000003C000B00000068000200F00700001400010000080000810000000000000000000000480500004C0500005005000054050000580500005C0500006005000064050000680500006C050000700500000300000001000000000000000A0000000100000000000000BFF34F8FBFF36F8F00F002F8FEDEDEDEB0B502AFADF5906D00200421CDE9C6010121C890CDE9C310E048C591C290C2A800F0C1FA002840F045820320ADF81C00DFF88404C10701D117210CE04FF06040016887
S3FF0800C0FAC907FCD04FF060405B2101701621DFF86404013008AA0132009200F00302022A0AD14FF060421368DB07FCD030F8022B02394FF060431A8000224FF060430546052A06D01E68F607FCD040CD01321E60F6E701F0030102290CD3C2AD4FF060421368DB07FCD0828A4FF060431A800239163001E01430C2AD012908D14FF060410A68D207FCD000784FF0604108704FF0000A681C8DF81FA0A7F10D04069008A8011D0291291D0191811D4FF00A0B4FF0030801264FF004090591A91D0230049103900B200A9666900DF11F00099002200890C89608A8CDE9C494CDE9C6A066A8C3904FEA0840023000F056FA40B110F5807FC0F0BE816FF39F28D1
S3FF0800C1F448EA8028E8E70029ADF81C8040F0B4819DF81F00A0F16E01062939D84FF00808DFE801F004217A767694C8000DF5CC781621404600F0D2FA07A84146162200F0E1F9002800F095819DF8AC014FF01708411E03299CBF9DF8AD11042940F2548107A8CB4982E1CDF820A3CDE9C69908A8C5904FEA0B40043000F01BFA002800F0F18010F5807FC0F01A8100F0FBF9EAE763284FF0080828D0642839D18DF898A107A866A9012200F0ADF9002800F061819DF898018DF82000CDF820A3CDE9C6A9CDE9C46408A8C3904FEA0B40073000F0E6F9002800F0128110F5807FC0F0128100F0D0F9E8E700F0CDF9C6A880E8000708A8C5904FEA0B4001305C
S3FF0800C2EE00F0DAF9002800F0E08010F5807FEDD207A8A2492DE107A8A44901222AE14FF017084FF4B9744FEA0B40CDE96B9A0530CDE96954CDE9676A669066A800F098F9002850D010F5807FC0F0198100F09DF9E9E7CDE966AA07A866A9082200F055F9002800F00981669D9DF89F019DF89E119DF89D219DF89C310995C2AD8DF823308DF822208DF821108DF82000CDF820A3CDE9C6A9CDE9C48408A8C3904FEA0B40023000F07FF9002800F0A58010F5807FC0F0A58000F069F9E8E74FF044080BA8CDE9096A80E820074FEA0B400330089008A800F04DF9002855D010F5807F97D300F053F9EBE7B1F5B97F40F0C880BDF808034FF4B672ADF8200028
S3FF0800C3E8DDF80A5366AC0499204600F0D3F9059821464FF4B672CDF8225000F0CBF9BDF82050112D80F0AE80069C4FF4B871204600F0D5F9702003998DF8080300202246A7F10D04A8420AD00023172B03D0CC5CD4540133F9E7173117320130F0E705FB08F0421C07A8C2AD294686E01400FFFF042940F087806F208DF808030020CDF80903042819D000F014F9FAE7442979D1DDE901104022C29D00F08CF90698442100F09DF974200895C2AD8DF808030020442806D000F0FDF8FAE707A8294605225BE007A82946452257E007A8344953E0082957D1069B0020DDE90812CDE908125860186063238DF80833082802D000F0E0F8FAE707A829460922A1
S3FF0800C4E23EE000292B4939D03FE0284936E00029214933D039E01E4930E09DED6A0A009B10EE102ADDE96845DDE966CEDD60C2AD9C60A7F10D04C3F804E0C3F800C08DF820A08DF836108DF835001A61C6A8CDE9C48480E8400608A8C3904FEA0B40063000F0A6F828B110F5807F06D300F093F8ECE701290A4901D007E0074907A8022200F01BF8BDF81C8027E6FEDE00BFECC7000811C8000813C800080DC800080BC800080FC8000809C8000803C8000805C8000807C8000815C80008F0B503AF2DE9000F8DB004460B20019001202688A7F11D0BCDE903120DF10409029005AD4FF0000A4FF0040801200B9002A80A903004013000F055F840B110F530
S3FF0800C5DC807F0AD36FF39F2646EA80262680EDE719B90DB0BDE8000FF0BDFEDEF0B503AF2DE9000F8DB004460B20019041F28830009002202688A7F11D0BCDE903124FF0000A029005AD4FF00808E94601200B9002A80A903004033000F025F840B110F5807F06D36FF39F2646EA80262680EDE731B9B0FA80F040090DB0BDE8000FF0BDFEDE2DE9F00F90E8F0074FF0000B00DF20462946BDE8F00F7047FEDE6FF39F2B4BEA802B704705902846CDE908BACDE90698FFF7E6BFC2902846FFF7E2BF08AA2918125C01304A707047C2902846CDE9C36AFFF7D6BFF0B503AF2DE90007102A08D300F089F8A64206D213F8015B06F8015BF8E7034629E0A2EBF1
S3FF0800C6D6080C88442CF0030E04EB0E035FEA887115D0182101EAC8090021A1EBC80101F0180A28F003010D1D09689C420DD221FA09F602CD01FA0AF2324304C4F5E741469C4202D204C904C4FAE708EB0E010CF003021A44934204D211F8014B03F8014BF8E7BDE80007F0BDF0B503AF4DF804BD102A09D34342054603F0030403199D4204D205F8011BFAE7054612E0121BCCB20825202D04D204FA05F66D003443F8E722F003051D44AB4201D210C3FBE702F003022A44954202D205F8011BFAE700F026B8FFF78BBFFFF7FCBF0B4611461A46FFF7CABFD2B24FF001335343032998BFFFF7F3BF08C00439F8E70022FFF7EDBFFFF7FBBF0022FFF7EDBF9E
S3510800C7D0FFF7FBBF4342064603F003080B4600EB080470475DF804BBF0BDDEDE5B434F4E54524F4C4C455276315D204F6E6C696E65210A7401730173006F016E006E026E0164016400000000C81D92EFB9
S3FF0800D0000000000000000000FFFFFFFFFFFFFFFF0000000000000000FFFFFFFF0900FEFF001A0020000100007F4842460100E4010000080001000000040000000000000000003C000200000000000000E0010000FF000100000100004900000000000000000000005E0000416600009FFFFFFFFFBFF34F8FBFF36F8F00F001F8FEDE80B56F4600F091F84DF2F4114FF06040C0F60001112200F002F830BFFDE7B0B502AF002A00F08080CB0710D00368DB0709D10368DB0704BF03685FEAC37302D10368DB07F2D011F8013B013A037001F00303022B12D1022A55D30368DB0709D10368DB0704BF03685FEAC37302D10368DB07F2D031F8023B023A03801B
S3FF0800D0FA002A53D022F0030C5FEA920E16D000230C4605E054F8045B0133734505600DD00568ED07F6D10568ED0704BF05685FEAC575EFD10568ED07F2D0EBE702F003026144022A10D30368DB0709D10368DB0704BF03685FEAC37302D10368DB07F2D031F8023B023A0380012A18BFB0BD0268D20719D10268D20704BF02685FEAC27212D10268D207F2D00EE0012A0ED10268D20709D10268D20704BF02685FEAC27202D10268D207F2D009780170B0BD80B56F4688B000200421CDE9050101210790CDE902101420CFF6FF700491019001A800F005F8002804BF08B080BDFEDE2DE9F00F90E8F0074FF0000B00DF20462946BDE8F00F7047FEDEDEDE57
S31D0800D1F45B49444C4576315D204F6E6C696E65210A0000000606C456C2
S3FF0800D8000000000000000000FFFFFFFFFFFFFFFF0000000000000000FFFFFFFF0900FEFF001B0020000100007F4842460100CC03000002000100000000003C0001000000000048000400000000000000C8030000000001000001000059000000000000000000000000100240000400000B000000720000417A00009F000200410802009FBFF34F8FBFF36F8F00F002F8FEDEDEDE80B56F468AB000F057F94DF6CC314FF06040C0F60001102200F0C8F800200821CDE9020002A80022002305AC009400F068F9002840F0AF8041F2000802ADC4F202084FF6FF7A4FF001090EE001210122002300F067F92846082100220023009400F04FF9002840F09680A8
S3FF0800D8FABDF814005045F1D006994A1E042AE8D20799082900F28A80D2B2DFE802F0024A1A3208295DD1029B042B5AD803990FF2080606EB83064822B74600F061B800F006B800F074B800F05AB800F054B84C2256E0082945D1029B042B42D803990FF2080606EB83062822B74600F049B800F006B800F05CB800F038B800F034B82C223EE008292DD1029B042B2AD803990FF2080606EB83062822B74600F03AB800F006B800F044B800F024B800F020B82C222FE0082915D1029B042B12D803990FF2080606EB83064822B74600F022B800F006B800F02CB800F01BB800F00EB84C2217E002217EE740220AE0382208E040220FE038220DE0602202E049
S3FF0800D9F4602209E0582201F01F0158F8023009FA01F1194308E0582201F01F0158F8023009FA01F123EA010148F80210002122465CE7FEDE4DF6DC314FF06040C0F60001142200F001F8FEDEB0B502AF002A00F08080CB0710D00368DB0709D10368DB0704BF03685FEAC37302D10368DB07F2D011F8013B013A037001F00303022B12D1022A55D30368DB0709D10368DB0704BF03685FEAC37302D10368DB07F2D031F8023B023A0380002A53D022F0030C5FEA920E16D000230C4605E054F8045B0133734505600DD00568ED07F6D10568ED0704BF05685FEAC575EFD10568ED07F2D0EBE702F003026144022A10D30368DB0709D10368DB0704BF036885
S3FF0800DAEE5FEAC37302D10368DB07F2D031F8023B023A0380012A18BFB0BD0268D20719D10268D20704BF02685FEAC27212D10268D207F2D00EE0012A0ED10268D20709D10268D20704BF02685FEAC27202D10268D207F2D009780170B0BD80B56F4688B000200421CDE9050101210790CDE902101420CFF6FF700491019001A800F005F8002804BF08B080BDFEDE2DE9F00F90E8F0074FF0000B00DF20462946BDE8F00F7047FEDE2DE9F00F04460D4616461F46089B4FF0010B00DF204683E8E003BDE8F00F7047FEDE2DE9F04804460D4616461F464FF0020B00DFBDE8F088FEDE5B52434376315D204F6E6C696E65210A41484233206E6F7420737570FA
S3110800DBE8706F72746564210AA5516C1EEA
S3FF0800E0000000000000000000FFFFFFFFFFFFFFFF0000000000000000FFFFFFFF0700FEFF00400020001000007F4842460100F812000004000100000004003C0001000000000048001100000000000000F412000019000100001000009100000000000000000000000000000800001000070000004003000044030000E40D0000E80D0000EC0D0000800E0000840E0000880E00008C0E0000980F0000B8120000BC120000C0120000C4120000C8120000CC120000D0120000FFFFFFFFBFF34F8FBFF36F8F00F08CFAFEDE8BB20022B2EB532F07D1DA02C0F6000102F10062C0E90121012202607047F0B503AF4DF8048D0022B2EB512F01BF01F2FF11043067
S3FF0800E0FA425C002A00D0FEDE4FF0010C6FF0080340F2FE38002540F2FE7E00F801C0C3B14A1E82F0010601364645ECD8845D84B18555445C002CE6D000294554E3D07145E1D85108425C002ADDD100F801C00133E5E75DF8048BF0BDF0B503AF2DE9E00FD1E90054A7F126098E688A4680464FF4801BB6F5801F11D2E26848462946334600F097F917F8200C10B117F81F0C48B100F0E0FF0644CAF80860EAE70320A8F8000014E037F8222C4FF4801317F81E0C46F0006102F01F0288F80C0057F8260C23FA02F2A8E807009019CAF80800BDE80E0FF0BDF0B503AF4DF804BD044600680D4688421CD305F01F00012104F1040C01FA00F001184A1E002DF8
S3FF0800E1F408BF0122E61C411E91420BD2B1F5FF7F26D8335C0130002BF5D000200CF8010001201AE0A5B1691E2046FFF7D6FF78B12068A84288BF054649002560B1F5FE7F08D88A1C231D985C50B90120985402E0002002E0002041F001015DF804BBF0BDFEDEF0B503AF4DF8048D804600680D4688421ED305F01F00012108F1030608F1040C01FA00F040F2FF3301184A1E002D08BF0122411E91420AD2994229D2345C0130002CF6D000200CF8010001201DE0BDB1691E4046FFF7D4FF90B1D8F80000A84288BF05464900C8F80050B1F57F7F09D88A1C08F10403985C50B90120985402E0002002E0002041F001015DF8048BF0BDFEDEF0B503AF2DE96B
S3FF0800E2EE000FADF2144D0DF10409804609F104000C4640F2FF3100F0C0FF184EA7F1260A09204FF420454FF4801B0190B5F5801F12D200F004FF17F8200C18B100F010FF0544F3E717F81F0CA8B9E90A4846FFF7D2FE05F50065E9E708F1080001A940F2044200F083FF0448C8E900400DF2144DBDE8000FF0BDFEDE00BFD4F2000847E50008F0B503AF2DE9000F93B006462B481044B0F5762F50D29346CA6898460BF17843A7F152008A46314600F088F837F84E4C0DF1200937F8501C17F84A2C37F8520C2346CDE900014846012100F0C5FDDAF81C50304659464A462023A84760BBDAF820103046CDF81080884728BB04F01F004FF48011DAF810805C
S3FF0800E3E821FA00F0DAF8249058440394441E0DF1400A5C450DD3504631462246C047109870B1129D30462946C84748B9A4EB1544EFE7DDE90310018013B0BDE8000FF0BDFEDE00BF0060FFF7F0B503AF2DE9E00F8046B868A7F1260A994616460C464FF420454FF4801B002808BFA9F12009B5F5801F16D200F066FE17F8200C70B117F81F0C58B937F8220C45F00061494500F01F002BFA00F008D00544E8E705F50065E5E70320A8F8000009E017F81E1C88F80C1057F8261CC8E90019C8F80800BDE80E0FF0BDF0B503AF2DE9FF0BE9460E460446484620211D46904600F0E6FE05F1006130464A462023C04770BBBDF81E004FF6FE7102226080884203
S3FF0800E4E24FF6FF7108BF0122401A18BF10462080DDE904100840B0F1FF3018BF012020729DE80F001A40B2F1FF3218BF01220840B0F1FF31E27118BF01210130BDF81C00A17108BF0920A08008B0BDE8000BF0BDFEDEE0B502AF80B27A1E0021002300F0DAFD8CBD80B56F4610461A4600F07AFE002080BD084611461A4600F09ABD00F0B2BD110D802908D806491140D20AC0F60002C0E90112012100E000210160704700BF00F8FF0F80B56F461146FFF79AFD80BD80B56F46511EFFF794FD80BD80B56F4688B027F81E1C002004210790CDE905010120049002200390A7F11E0002900548019001A800F057FD002818BF012008B080BD00BF2400FFFF01
S3FF0800E5DC80B56F46ADF5D06DDFF82408142100F065FC4FF0000A0420CDE99CA001209B90CDE9990AC848CDF878A2989098AE304600F035FD002840F0FA8300F001FCCDF828A006F10809CDE908AA12A808AC00F10408CDF8189020460C2101220023009600F00CFD002840F0E28399994FF6FF70BDF860B2834511D09AAB01290DCB18D029291DD0142919D015290CD01E290ED028290AD00A290ED10A2112E0C807DAD000F0CEFBD7E715210BE0282109E01E2107E0012105E058460121ACE3142100E029210D2880F0B383012900F020810A2900F0F880142943D0152900F0C0801E2900F0A780282940F0CE800721002840F091831C2AC0F08E834FF495
S3FF0800E6D62040CDF81CB014904FF00009DFF82C074FF0000B0025002600241390781E129098A812A9FFF72AFDBDF86002032800F0F7809DF86C1200296FF01F0108BF0135012808BF6FF027019A9A59440128114401F1200B05D199980BF1080B0136406A81440134DCE70721012B08BF0C2840F05483BAF1000F40F05D8300F0DEFC9898002800F081809998C0077DD00A98791EDDE90835DFF8A8260590A7F114009A9C00F0DFFC37F814BCBBF1030F00F05F8228196FF01F01BBF1010F08BF6FF0270157F80C2C1144884200F2938200F0BCFC2020BBF1010F08BF28200026284400EB0905B44240F20D8306F140004FF04009A04288BFA4EB06090799F5
S3FF0800E7D0B9F1410F80F01983CDF8589098A8CDE9121ACDE9146012A800F01CFC0A460721002840F0F782914540F0F482A81998A94A4600F047FC4E440028D5D0E9E204286FD1BAF1000F40F0F882089B791EDFF8F425CDF800A012A8FFF702FEBDF84800032840F07C810421DAE20721012B08BF082840F0D582BAF1000F40F0DE8200F05FFC989818B19998800700F1E581072137E2042845D10C2A43D3BAF1000F40F0CC82089C4FF420401490DFF894051390781E129012A93046FFF763FCBDF86002032800F0AB81002C00F0AC81013CF1E7042826D1BAF1000F40F0AF82791E3046CDF81CB0089DFFF717FDDDE99896A5F12004F2680DF1480B012094
S3FF0800E8CA2346009058464946FFF7ADFDBDF84800032840F05F8198AE0421DDF81890F2E1082801D1102A1AD207217CE24FF46640CDE90D5BCDE910904FF476200F90002107981C23CDE90B460BAA00F0F0FB98AEDDF8189008AC87E600BF1400FFFFBAF1000F40F06D82791E3046CDF81CB0089CFFF7D5FC04F11F004FF0FF31B0FA80F021FA00F0411CC80A01284FF0010088BFC80A24F00101203108BF0120B0F5007F00F23D8100214FF40073013101F01F0223FA02F29042F8D94D1E4846092D28BF09252946FFF762FC002800F028810DF1480901200C4600904846002100222B4600F0CDFA4FF0FF314FF40070A940E8402144DDE998460131D6F843
S3FF0800E9C41CC04A46202300FB01FB4FF0006000EBCB212046E047002840F01582316A20468847002840F00F82099840F2FF11049040464FEACB2400F045FC0820A7F114061290CA48204405904FF48010E84028380390C7488146C64800F56640814580F01181DFF8E8039490781E93904FF42040959093A93046FFF78AFB37F8140C032838D00128F5D157F8106C0423DDE99340D0F80CB006F1200117F8085CCDE996AA96AA2046D847002840F0CD8106F1240197AA20460423D847002840F0C4819698411C12D097994A1C0FD04FF6FF72A7F1140620EA0202B2F1005F40F0B4818145C7D308448145C4D23DE0A7F11406002DBFD0A8E109F16040FF21AD
S3FF0800EABE012540F2FE3C01EB102018F80010002940F09C816FF0070108F8005019B3421E82F001030133B3F5FF7F00F28F8118F80340C4B108F803A018F80030002B00F08581002808F800A000F08081604500F27D81500818F80020002A40F0778108F800500131DAE709F5807977E7814675E7BDF84800032800F06981139DA7F11400B54A791E05F17843FFF7B1FC17F80E0C00284ED017F80D0C00284AD117F80C0C002846D137F8121C012237F8103C37F8140CCDE900013046002100F0E6F928463146202200F087FA002840F03F8100F09CFA002840F03A815846FFF7CCFC49E54846314622465B46ADF848A0FFF7E1FBBDF8481098AE98484FF403
S3FF0800EBB8007201F01F01DDF81890284422FA01F1C40A01EBD025AC4205D248462146FFF785FA0134F7E70798FFF7A8FC08AC24E5022171E00821FEE00121FDE0DDE99912BDF862322031ADF8680201286FF01F00ADF86A32989108BF6FF02700104499905846002132460C2300F06AFA08AC04E5DDE90834A7F11400784A791EDDF868B200F07EFA37F8145C032D34D10421D0E0DDF8189012AC4FF401722146484600F000FB6E4A791E059B6B4899902046989100F066FABDF8480001282BD1049A4FF0FF31501EB0FA80F021FA00F0411C080A01284FF0010088BF080A012A4FF0010198BF084698AE08ACDDF81CB0B0F5807F46D90321A0E06FF01F0127
S3FF0800ECB2012D08BF6FF0270157F80C2C04EB0B001144884207D905218EE0042198AE08ACDDF81CB08BE000F021FA2020012D08BF2820002520448144AB4540F2878005F140004024584588BFABEB0504412C80F0838098AE09EB05012246304600F09AFA0798CDE91564CDE913A5129012A800F08DF910B925448C42DED0072159E020000008001A002000214FF48075013101F01F0225FA02F29042F8D94C1E0820082C28BF044648462146FFF738FA002851D04FF0FF3225FA04F0A24011440131DDF81490042348434FF0005101EB0020049093904FF4803020FA04FBDDE99845EE69494647F814BC93AA2046B047A0BB09F10401A7F114022046042395
S3FF0800EDACB04760BB296A2046884740BB049800219A9010230398999005989890CDF86CB2079898AE324600F091F9A0E5059880B100F074F968B1062198AEDDF81890DDF81CB008AC58460122002300F07FF9FFF71ABC0798FFF798FB88E5032161E7FEDEACF20008D4F2000847E50008E0FFFFF7F0B503AF2DE9F80F2048142100F046F8204DA7F12A08A7F11D064FF420444FF0000B4FF48019BBEB145F25D1404631462A462346FFF72CFB17F8240C60B117F8230C37F826AC68B1134944F0006204AB3046FFF77FFA09E017F8230CA0B904F50064E0E717F8220C0028EDD00AF01F0029FA00F00444D6E705481E2100F00EF805B0BDE8000FF0BDFEDE1A
